{
  "_format": "hh-sol-artifact-1",
  "contractName": "RentCar",
  "sourceName": "contracts/RentCar.sol",
  "abi": [
    {
      "anonymous": false,
      "inputs": [
        {
          "indexed": false,
          "internalType": "address",
          "name": "previousAdmin",
          "type": "address"
        },
        {
          "indexed": false,
          "internalType": "address",
          "name": "newAdmin",
          "type": "address"
        }
      ],
      "name": "AdminChanged",
      "type": "event"
    },
    {
      "anonymous": false,
      "inputs": [
        {
          "indexed": true,
          "internalType": "address",
          "name": "beacon",
          "type": "address"
        }
      ],
      "name": "BeaconUpgraded",
      "type": "event"
    },
    {
      "anonymous": false,
      "inputs": [
        {
          "indexed": false,
          "internalType": "uint8",
          "name": "version",
          "type": "uint8"
        }
      ],
      "name": "Initialized",
      "type": "event"
    },
    {
      "anonymous": false,
      "inputs": [
        {
          "indexed": true,
          "internalType": "address",
          "name": "renter",
          "type": "address"
        },
        {
          "indexed": false,
          "internalType": "uint256",
          "name": "rentalId",
          "type": "uint256"
        },
        {
          "indexed": false,
          "internalType": "uint256",
          "name": "carIndex",
          "type": "uint256"
        },
        {
          "indexed": false,
          "internalType": "uint256",
          "name": "tokenId",
          "type": "uint256"
        },
        {
          "indexed": false,
          "internalType": "uint256",
          "name": "startDate",
          "type": "uint256"
        },
        {
          "indexed": false,
          "internalType": "uint256",
          "name": "endDate",
          "type": "uint256"
        }
      ],
      "name": "RentalCreated",
      "type": "event"
    },
    {
      "anonymous": false,
      "inputs": [
        {
          "indexed": true,
          "internalType": "address",
          "name": "renter",
          "type": "address"
        },
        {
          "indexed": false,
          "internalType": "uint256",
          "name": "rentalId",
          "type": "uint256"
        },
        {
          "indexed": false,
          "internalType": "uint256",
          "name": "endDate",
          "type": "uint256"
        }
      ],
      "name": "RentalReturned",
      "type": "event"
    },
    {
      "anonymous": false,
      "inputs": [
        {
          "indexed": true,
          "internalType": "bytes32",
          "name": "role",
          "type": "bytes32"
        },
        {
          "indexed": true,
          "internalType": "bytes32",
          "name": "previousAdminRole",
          "type": "bytes32"
        },
        {
          "indexed": true,
          "internalType": "bytes32",
          "name": "newAdminRole",
          "type": "bytes32"
        }
      ],
      "name": "RoleAdminChanged",
      "type": "event"
    },
    {
      "anonymous": false,
      "inputs": [
        {
          "indexed": true,
          "internalType": "bytes32",
          "name": "role",
          "type": "bytes32"
        },
        {
          "indexed": true,
          "internalType": "address",
          "name": "account",
          "type": "address"
        },
        {
          "indexed": true,
          "internalType": "address",
          "name": "sender",
          "type": "address"
        }
      ],
      "name": "RoleGranted",
      "type": "event"
    },
    {
      "anonymous": false,
      "inputs": [
        {
          "indexed": true,
          "internalType": "bytes32",
          "name": "role",
          "type": "bytes32"
        },
        {
          "indexed": true,
          "internalType": "address",
          "name": "account",
          "type": "address"
        },
        {
          "indexed": true,
          "internalType": "address",
          "name": "sender",
          "type": "address"
        }
      ],
      "name": "RoleRevoked",
      "type": "event"
    },
    {
      "anonymous": false,
      "inputs": [
        {
          "indexed": true,
          "internalType": "address",
          "name": "implementation",
          "type": "address"
        }
      ],
      "name": "Upgraded",
      "type": "event"
    },
    {
      "inputs": [],
      "name": "DEFAULT_ADMIN_ROLE",
      "outputs": [
        {
          "internalType": "bytes32",
          "name": "",
          "type": "bytes32"
        }
      ],
      "stateMutability": "view",
      "type": "function"
    },
    {
      "inputs": [],
      "name": "RENTER_ROLE",
      "outputs": [
        {
          "internalType": "bytes32",
          "name": "",
          "type": "bytes32"
        }
      ],
      "stateMutability": "view",
      "type": "function"
    },
    {
      "inputs": [
        {
          "internalType": "uint256",
          "name": "rentalId",
          "type": "uint256"
        }
      ],
      "name": "calculateRentalCost",
      "outputs": [
        {
          "internalType": "uint256",
          "name": "",
          "type": "uint256"
        }
      ],
      "stateMutability": "view",
      "type": "function"
    },
    {
      "inputs": [
        {
          "internalType": "uint256",
          "name": "rentalId",
          "type": "uint256"
        }
      ],
      "name": "calculateReturnGarante",
      "outputs": [
        {
          "internalType": "uint256",
          "name": "",
          "type": "uint256"
        }
      ],
      "stateMutability": "view",
      "type": "function"
    },
    {
      "inputs": [
        {
          "internalType": "uint256",
          "name": "carIndex",
          "type": "uint256"
        },
        {
          "internalType": "uint256",
          "name": "tokenId",
          "type": "uint256"
        },
        {
          "internalType": "uint256",
          "name": "startDate",
          "type": "uint256"
        },
        {
          "internalType": "uint256",
          "name": "endDate",
          "type": "uint256"
        }
      ],
      "name": "createRental",
      "outputs": [],
      "stateMutability": "payable",
      "type": "function"
    },
    {
      "inputs": [
        {
          "internalType": "address",
          "name": "carOwner",
          "type": "address"
        }
      ],
      "name": "getCarRentals",
      "outputs": [
        {
          "internalType": "uint256[]",
          "name": "",
          "type": "uint256[]"
        }
      ],
      "stateMutability": "view",
      "type": "function"
    },
    {
      "inputs": [
        {
          "internalType": "uint256",
          "name": "rentalId",
          "type": "uint256"
        }
      ],
      "name": "getRental",
      "outputs": [
        {
          "internalType": "uint256",
          "name": "carIndex",
          "type": "uint256"
        },
        {
          "internalType": "uint256",
          "name": "tokenId",
          "type": "uint256"
        },
        {
          "internalType": "address",
          "name": "renter",
          "type": "address"
        },
        {
          "internalType": "uint256",
          "name": "startDate",
          "type": "uint256"
        },
        {
          "internalType": "uint256",
          "name": "endDate",
          "type": "uint256"
        },
        {
          "internalType": "bool",
          "name": "active",
          "type": "bool"
        },
        {
          "internalType": "bool",
          "name": "returned",
          "type": "bool"
        }
      ],
      "stateMutability": "view",
      "type": "function"
    },
    {
      "inputs": [
        {
          "internalType": "address",
          "name": "renter",
          "type": "address"
        }
      ],
      "name": "getRenterRentals",
      "outputs": [
        {
          "internalType": "uint256[]",
          "name": "",
          "type": "uint256[]"
        }
      ],
      "stateMutability": "view",
      "type": "function"
    },
    {
      "inputs": [
        {
          "internalType": "bytes32",
          "name": "role",
          "type": "bytes32"
        }
      ],
      "name": "getRoleAdmin",
      "outputs": [
        {
          "internalType": "bytes32",
          "name": "",
          "type": "bytes32"
        }
      ],
      "stateMutability": "view",
      "type": "function"
    },
    {
      "inputs": [],
      "name": "getTotalRentals",
      "outputs": [
        {
          "internalType": "uint256",
          "name": "",
          "type": "uint256"
        }
      ],
      "stateMutability": "view",
      "type": "function"
    },
    {
      "inputs": [
        {
          "internalType": "bytes32",
          "name": "role",
          "type": "bytes32"
        },
        {
          "internalType": "address",
          "name": "account",
          "type": "address"
        }
      ],
      "name": "grantRole",
      "outputs": [],
      "stateMutability": "nonpayable",
      "type": "function"
    },
    {
      "inputs": [
        {
          "internalType": "bytes32",
          "name": "role",
          "type": "bytes32"
        },
        {
          "internalType": "address",
          "name": "account",
          "type": "address"
        }
      ],
      "name": "hasRole",
      "outputs": [
        {
          "internalType": "bool",
          "name": "",
          "type": "bool"
        }
      ],
      "stateMutability": "view",
      "type": "function"
    },
    {
      "inputs": [
        {
          "internalType": "address",
          "name": "_nftContractAddress",
          "type": "address"
        },
        {
          "internalType": "address",
          "name": "_marketplaceOwner",
          "type": "address"
        }
      ],
      "name": "initialize",
      "outputs": [],
      "stateMutability": "nonpayable",
      "type": "function"
    },
    {
      "inputs": [],
      "name": "proxiableUUID",
      "outputs": [
        {
          "internalType": "bytes32",
          "name": "",
          "type": "bytes32"
        }
      ],
      "stateMutability": "view",
      "type": "function"
    },
    {
      "inputs": [
        {
          "internalType": "bytes32",
          "name": "role",
          "type": "bytes32"
        },
        {
          "internalType": "address",
          "name": "account",
          "type": "address"
        }
      ],
      "name": "renounceRole",
      "outputs": [],
      "stateMutability": "nonpayable",
      "type": "function"
    },
    {
      "inputs": [
        {
          "internalType": "uint256",
          "name": "rentalId",
          "type": "uint256"
        }
      ],
      "name": "returnRental",
      "outputs": [],
      "stateMutability": "nonpayable",
      "type": "function"
    },
    {
      "inputs": [
        {
          "internalType": "bytes32",
          "name": "role",
          "type": "bytes32"
        },
        {
          "internalType": "address",
          "name": "account",
          "type": "address"
        }
      ],
      "name": "revokeRole",
      "outputs": [],
      "stateMutability": "nonpayable",
      "type": "function"
    },
    {
      "inputs": [
        {
          "internalType": "bytes4",
          "name": "interfaceId",
          "type": "bytes4"
        }
      ],
      "name": "supportsInterface",
      "outputs": [
        {
          "internalType": "bool",
          "name": "",
          "type": "bool"
        }
      ],
      "stateMutability": "view",
      "type": "function"
    },
    {
      "inputs": [
        {
          "internalType": "address",
          "name": "newImplementation",
          "type": "address"
        }
      ],
      "name": "upgradeTo",
      "outputs": [],
      "stateMutability": "nonpayable",
      "type": "function"
    },
    {
      "inputs": [
        {
          "internalType": "address",
          "name": "newImplementation",
          "type": "address"
        },
        {
          "internalType": "bytes",
          "name": "data",
          "type": "bytes"
        }
      ],
      "name": "upgradeToAndCall",
      "outputs": [],
      "stateMutability": "payable",
      "type": "function"
    },
    {
      "inputs": [],
      "name": "withdrawFunds",
      "outputs": [],
      "stateMutability": "nonpayable",
      "type": "function"
    }
  ],
  "bytecode": "0x60a06040523073ffffffffffffffffffffffffffffffffffffffff1660809073ffffffffffffffffffffffffffffffffffffffff1681525034801561004357600080fd5b506080516143c561007b60003960008181610c1001528181610c9f015281816113100152818161139f015261145c01526143c56000f3fe60806040526004361061012a5760003560e01c80634f1ef286116100ab57806377af87c01161006f57806377af87c0146103d85780638e5d94701461041557806391d1485414610452578063a217fddf1461048f578063b97c9f77146104ba578063d547741f146104e55761012a565b80634f1ef286146103075780634fc783811461032357806352d1902d1461034e5780636128e19f14610379578063652bd29e146103955761012a565b806336568abe116100f257806336568abe146102125780633659cfe61461023b5780633e9f4fa0146102645780634670956f146102a1578063485cc955146102de5761012a565b806301ffc9a71461012f57806324600fc31461016c578063248a9ca3146101835780632f2ff15d146101c05780633310df9e146101e9575b600080fd5b34801561013b57600080fd5b5061015660048036038101906101519190612b95565b61050e565b6040516101639190612bdd565b60405180910390f35b34801561017857600080fd5b50610181610588565b005b34801561018f57600080fd5b506101aa60048036038101906101a59190612c2e565b6105df565b6040516101b79190612c6a565b60405180910390f35b3480156101cc57600080fd5b506101e760048036038101906101e29190612ce3565b6105ff565b005b3480156101f557600080fd5b50610210600480360381019061020b9190612d59565b610620565b005b34801561021e57600080fd5b5061023960048036038101906102349190612ce3565b610b8b565b005b34801561024757600080fd5b50610262600480360381019061025d9190612d86565b610c0e565b005b34801561027057600080fd5b5061028b60048036038101906102869190612d59565b610d97565b6040516102989190612dc2565b60405180910390f35b3480156102ad57600080fd5b506102c860048036038101906102c39190612d59565b610f1a565b6040516102d59190612dc2565b60405180910390f35b3480156102ea57600080fd5b5061030560048036038101906103009190612ddd565b611105565b005b610321600480360381019061031c9190612f63565b61130e565b005b34801561032f57600080fd5b5061033861144b565b6040516103459190612dc2565b60405180910390f35b34801561035a57600080fd5b50610363611458565b6040516103709190612c6a565b60405180910390f35b610393600480360381019061038e9190612fbf565b611511565b005b3480156103a157600080fd5b506103bc60048036038101906103b79190612d59565b611aa2565b6040516103cf9796959493929190613035565b60405180910390f35b3480156103e457600080fd5b506103ff60048036038101906103fa9190612d86565b611b91565b60405161040c9190613162565b60405180910390f35b34801561042157600080fd5b5061043c60048036038101906104379190612d86565b611c29565b6040516104499190613162565b60405180910390f35b34801561045e57600080fd5b5061047960048036038101906104749190612ce3565b611cc0565b6040516104869190612bdd565b60405180910390f35b34801561049b57600080fd5b506104a4611d2b565b6040516104b19190612c6a565b60405180910390f35b3480156104c657600080fd5b506104cf611d32565b6040516104dc9190612c6a565b60405180910390f35b3480156104f157600080fd5b5061050c60048036038101906105079190612ce3565b611d56565b005b60007f7965db0b000000000000000000000000000000000000000000000000000000007bffffffffffffffffffffffffffffffffffffffffffffffffffffffff1916827bffffffffffffffffffffffffffffffffffffffffffffffffffffffff19161480610581575061058082611d77565b5b9050919050565b6000801b61059581611de1565b3373ffffffffffffffffffffffffffffffffffffffff166108fc479081150290604051600060405180830381858888f193505050501580156105db573d6000803e3d6000fd5b5050565b600060656000838152602001908152602001600020600101549050919050565b610608826105df565b61061181611de1565b61061b8383611df5565b505050565b7f3b652633b3026fa70803ad50b58b0ae884cefe3497643f62c67c466f41a6e88d61064a81611de1565b60fe805490508210610691576040517f08c379a0000000000000000000000000000000000000000000000000000000008152600401610688906131e1565b60405180910390fd5b600060fe83815481106106a7576106a6613201565b5b906000526020600020906006020190503373ffffffffffffffffffffffffffffffffffffffff168160020160009054906101000a900473ffffffffffffffffffffffffffffffffffffffff1673ffffffffffffffffffffffffffffffffffffffff1614610749576040517f08c379a0000000000000000000000000000000000000000000000000000000008152600401610740906132a2565b60405180910390fd5b8060050160009054906101000a900460ff1661079a576040517f08c379a00000000000000000000000000000000000000000000000000000000081526004016107919061330e565b60405180910390fd5b428160040154106107e0576040517f08c379a00000000000000000000000000000000000000000000000000000000081526004016107d79061337a565b60405180910390fd5b60008160050160006101000a81548160ff02191690831515021790555060008160050160016101000a81548160ff0219169083151502179055503373ffffffffffffffffffffffffffffffffffffffff167feed83d4b93c4f21bc39939ac711d0fef0317fcf9485bbfaaaebd1690c2e16d1584836004015460405161086692919061339a565b60405180910390a2600061087984610f1a565b9050600081116108be576040517f08c379a00000000000000000000000000000000000000000000000000000000081526004016108b590613435565b60405180910390fd5b600060fb60009054906101000a900473ffffffffffffffffffffffffffffffffffffffff1673ffffffffffffffffffffffffffffffffffffffff16636352211e84600101546040518263ffffffff1660e01b815260040161091f9190612dc2565b60206040518083038186803b15801561093757600080fd5b505afa15801561094b573d6000803e3d6000fd5b505050506040513d601f19601f8201168201806040525081019061096f919061346a565b9050600073ffffffffffffffffffffffffffffffffffffffff168173ffffffffffffffffffffffffffffffffffffffff1614156109e1576040517f08c379a00000000000000000000000000000000000000000000000000000000081526004016109d8906134e3565b60405180910390fd5b3373ffffffffffffffffffffffffffffffffffffffff166108fc839081150290604051600060405180830381858888f19350505050158015610a27573d6000803e3d6000fd5b5060018360050160006101000a81548160ff02191690831515021790555060018360050160016101000a81548160ff02191690831515021790555060fb60009054906101000a900473ffffffffffffffffffffffffffffffffffffffff1673ffffffffffffffffffffffffffffffffffffffff1663d75796f084600101546040518263ffffffff1660e01b8152600401610ac19190612dc2565b600060405180830381600087803b158015610adb57600080fd5b505af1158015610aef573d6000803e3d6000fd5b5050505060fb60009054906101000a900473ffffffffffffffffffffffffffffffffffffffff1673ffffffffffffffffffffffffffffffffffffffff1663bdb614f084600101546040518263ffffffff1660e01b8152600401610b529190612dc2565b600060405180830381600087803b158015610b6c57600080fd5b505af1158015610b80573d6000803e3d6000fd5b505050505050505050565b610b93611ed6565b73ffffffffffffffffffffffffffffffffffffffff168173ffffffffffffffffffffffffffffffffffffffff1614610c00576040517f08c379a0000000000000000000000000000000000000000000000000000000008152600401610bf790613575565b60405180910390fd5b610c0a8282611ede565b5050565b7f000000000000000000000000000000000000000000000000000000000000000073ffffffffffffffffffffffffffffffffffffffff163073ffffffffffffffffffffffffffffffffffffffff161415610c9d576040517f08c379a0000000000000000000000000000000000000000000000000000000008152600401610c9490613607565b60405180910390fd5b7f000000000000000000000000000000000000000000000000000000000000000073ffffffffffffffffffffffffffffffffffffffff16610cdc611fc0565b73ffffffffffffffffffffffffffffffffffffffff1614610d32576040517f08c379a0000000000000000000000000000000000000000000000000000000008152600401610d2990613699565b60405180910390fd5b610d3b81612017565b610d9481600067ffffffffffffffff811115610d5a57610d59612e38565b5b6040519080825280601f01601f191660200182016040528015610d8c5781602001600182028036833780820191505090505b506000612028565b50565b600060fe805490508210610de0576040517f08c379a0000000000000000000000000000000000000000000000000000000008152600401610dd7906131e1565b60405180910390fd5b600060fe8381548110610df657610df5613201565b5b9060005260206000209060060201905060008060fb60009054906101000a900473ffffffffffffffffffffffffffffffffffffffff1673ffffffffffffffffffffffffffffffffffffffff16635e8be19084600001546040518263ffffffff1660e01b8152600401610e689190612dc2565b60006040518083038186803b158015610e8057600080fd5b505afa158015610e94573d6000803e3d6000fd5b505050506040513d6000823e3d601f19601f82011682018060405250810190610ebd91906137a2565b95509550505050506000610ee2846003015485600401546121a590919063ffffffff16565b90506000610f0b83610efd84876121bb90919063ffffffff16565b6121d190919063ffffffff16565b90508095505050505050919050565b600060fe805490508210610f63576040517f08c379a0000000000000000000000000000000000000000000000000000000008152600401610f5a906131e1565b60405180910390fd5b600060fe8381548110610f7957610f78613201565b5b9060005260206000209060060201905060008060fb60009054906101000a900473ffffffffffffffffffffffffffffffffffffffff1673ffffffffffffffffffffffffffffffffffffffff16635e8be19084600001546040518263ffffffff1660e01b8152600401610feb9190612dc2565b60006040518083038186803b15801561100357600080fd5b505afa158015611017573d6000803e3d6000fd5b505050506040513d6000823e3d601f19601f8201168201806040525081019061104091906137a2565b95509550505050508260050160019054906101000a900460ff16801561106a575042836004015410155b1561107a57819350505050611100565b42836004015410801561109c57508260050160019054906101000a900460ff16155b156110f85760006110ba8460040154426121a590919063ffffffff16565b905060006110d183836121bb90919063ffffffff16565b905060006110e882866121a590919063ffffffff16565b9050809650505050505050611100565b600093505050505b919050565b60008060019054906101000a900460ff161590508080156111365750600160008054906101000a900460ff1660ff16105b806111635750611145306121e7565b1580156111625750600160008054906101000a900460ff1660ff16145b5b6111a2576040517f08c379a0000000000000000000000000000000000000000000000000000000008152600401611199906138d9565b60405180910390fd5b60016000806101000a81548160ff021916908360ff16021790555080156111df576001600060016101000a81548160ff0219169083151502179055505b6111e761220a565b6111ef61225b565b6111fc6000801b336122ac565b6112267f3b652633b3026fa70803ad50b58b0ae884cefe3497643f62c67c466f41a6e88d336122ac565b8260fb60006101000a81548173ffffffffffffffffffffffffffffffffffffffff021916908373ffffffffffffffffffffffffffffffffffffffff1602179055508160fc60006101000a81548173ffffffffffffffffffffffffffffffffffffffff021916908373ffffffffffffffffffffffffffffffffffffffff160217905550600a60fd8190555080156113095760008060016101000a81548160ff0219169083151502179055507f7f26b83ff96e1f2b6a682f133852f6798a09c465da95921460cefb38474024986001604051611300919061394b565b60405180910390a15b505050565b7f000000000000000000000000000000000000000000000000000000000000000073ffffffffffffffffffffffffffffffffffffffff163073ffffffffffffffffffffffffffffffffffffffff16141561139d576040517f08c379a000000000000000000000000000000000000000000000000000000000815260040161139490613607565b60405180910390fd5b7f000000000000000000000000000000000000000000000000000000000000000073ffffffffffffffffffffffffffffffffffffffff166113dc611fc0565b73ffffffffffffffffffffffffffffffffffffffff1614611432576040517f08c379a000000000000000000000000000000000000000000000000000000000815260040161142990613699565b60405180910390fd5b61143b82612017565b61144782826001612028565b5050565b600060fe80549050905090565b60007f000000000000000000000000000000000000000000000000000000000000000073ffffffffffffffffffffffffffffffffffffffff163073ffffffffffffffffffffffffffffffffffffffff16146114e8576040517f08c379a00000000000000000000000000000000000000000000000000000000081526004016114df906139d8565b60405180910390fd5b7f360894a13ba1a3210667c828492db98dca3e2076cc3735a920a3ca505d382bbc60001b905090565b7f3b652633b3026fa70803ad50b58b0ae884cefe3497643f62c67c466f41a6e88d61153b81611de1565b81831061157d576040517f08c379a000000000000000000000000000000000000000000000000000000000815260040161157490613a44565b60405180910390fd5b611586846122ba565b6115c5576040517f08c379a00000000000000000000000000000000000000000000000000000000081526004016115bc90613ab0565b60405180910390fd5b6115ce8561236a565b61160d576040517f08c379a000000000000000000000000000000000000000000000000000000000815260040161160490613b42565b60405180910390fd5b600060fe805490509050600060fe6001816001815401808255809150500390600052602060002090600602019050868160000181905550858160010181905550338160020160006101000a81548173ffffffffffffffffffffffffffffffffffffffff021916908373ffffffffffffffffffffffffffffffffffffffff16021790555084816003018190555083816004018190555060018160050160006101000a81548160ff02191690831515021790555060008160050160016101000a81548160ff02191690831515021790555060ff60003373ffffffffffffffffffffffffffffffffffffffff1673ffffffffffffffffffffffffffffffffffffffff168152602001908152602001600020829080600181540180825580915050600190039060005260206000200160009091909190915055610100600060fb60009054906101000a900473ffffffffffffffffffffffffffffffffffffffff1673ffffffffffffffffffffffffffffffffffffffff16636352211e896040518263ffffffff1660e01b81526004016117a29190612dc2565b60206040518083038186803b1580156117ba57600080fd5b505afa1580156117ce573d6000803e3d6000fd5b505050506040513d601f19601f820116820180604052508101906117f2919061346a565b73ffffffffffffffffffffffffffffffffffffffff1673ffffffffffffffffffffffffffffffffffffffff1681526020019081526020016000208290806001815401808255809150506001900390600052602060002001600090919091909150553373ffffffffffffffffffffffffffffffffffffffff167f54d2fb9eb3117e745b84d6bc809f5d1bbc6ac32ce060ac16936f52cd56ab5f3f83898989896040516118a1959493929190613b62565b60405180910390a260006118b483610d97565b9050803410156118f9576040517f08c379a00000000000000000000000000000000000000000000000000000000081526004016118f090613c01565b60405180910390fd5b6000611923606461191560fd54856121bb90919063ffffffff16565b61256490919063ffffffff16565b9050600061193a82846121a590919063ffffffff16565b905060fc60009054906101000a900473ffffffffffffffffffffffffffffffffffffffff1673ffffffffffffffffffffffffffffffffffffffff166108fc839081150290604051600060405180830381858888f193505050501580156119a4573d6000803e3d6000fd5b5060fb60009054906101000a900473ffffffffffffffffffffffffffffffffffffffff1673ffffffffffffffffffffffffffffffffffffffff16636352211e8a6040518263ffffffff1660e01b8152600401611a009190612dc2565b60206040518083038186803b158015611a1857600080fd5b505afa158015611a2c573d6000803e3d6000fd5b505050506040513d601f19601f82011682018060405250810190611a50919061346a565b73ffffffffffffffffffffffffffffffffffffffff166108fc829081150290604051600060405180830381858888f19350505050158015611a95573d6000803e3d6000fd5b5050505050505050505050565b600080600080600080600060fe805490508810611af4576040517f08c379a0000000000000000000000000000000000000000000000000000000008152600401611aeb906131e1565b60405180910390fd5b600060fe8981548110611b0a57611b09613201565b5b90600052602060002090600602019050806000015481600101548260020160009054906101000a900473ffffffffffffffffffffffffffffffffffffffff16836003015484600401548560050160009054906101000a900460ff168660050160019054906101000a900460ff16975097509750975097509750975050919395979092949650565b606061010060008373ffffffffffffffffffffffffffffffffffffffff1673ffffffffffffffffffffffffffffffffffffffff168152602001908152602001600020805480602002602001604051908101604052809291908181526020018280548015611c1d57602002820191906000526020600020905b815481526020019060010190808311611c09575b50505050509050919050565b606060ff60008373ffffffffffffffffffffffffffffffffffffffff1673ffffffffffffffffffffffffffffffffffffffff168152602001908152602001600020805480602002602001604051908101604052809291908181526020018280548015611cb457602002820191906000526020600020905b815481526020019060010190808311611ca0575b50505050509050919050565b60006065600084815260200190815260200160002060000160008373ffffffffffffffffffffffffffffffffffffffff1673ffffffffffffffffffffffffffffffffffffffff16815260200190815260200160002060009054906101000a900460ff16905092915050565b6000801b81565b7f3b652633b3026fa70803ad50b58b0ae884cefe3497643f62c67c466f41a6e88d81565b611d5f826105df565b611d6881611de1565b611d728383611ede565b505050565b60007f01ffc9a7000000000000000000000000000000000000000000000000000000007bffffffffffffffffffffffffffffffffffffffffffffffffffffffff1916827bffffffffffffffffffffffffffffffffffffffffffffffffffffffff1916149050919050565b611df281611ded611ed6565b61257a565b50565b611dff8282611cc0565b611ed25760016065600084815260200190815260200160002060000160008373ffffffffffffffffffffffffffffffffffffffff1673ffffffffffffffffffffffffffffffffffffffff16815260200190815260200160002060006101000a81548160ff021916908315150217905550611e77611ed6565b73ffffffffffffffffffffffffffffffffffffffff168173ffffffffffffffffffffffffffffffffffffffff16837f2f8788117e7eff1d82e926ec794901d17c78024a50270940304540a733656f0d60405160405180910390a45b5050565b600033905090565b611ee88282611cc0565b15611fbc5760006065600084815260200190815260200160002060000160008373ffffffffffffffffffffffffffffffffffffffff1673ffffffffffffffffffffffffffffffffffffffff16815260200190815260200160002060006101000a81548160ff021916908315150217905550611f61611ed6565b73ffffffffffffffffffffffffffffffffffffffff168173ffffffffffffffffffffffffffffffffffffffff16837ff6391f5c32d9c69d2a47ea670b442974b53935d1edc7fd64eb21e047a839171b60405160405180910390a45b5050565b6000611fee7f360894a13ba1a3210667c828492db98dca3e2076cc3735a920a3ca505d382bbc60001b6125ff565b60000160009054906101000a900473ffffffffffffffffffffffffffffffffffffffff16905090565b6000801b61202481611de1565b5050565b6120547f4910fdfa16fed3260ed0e7147f7cc6da11a60208b5b9406d12a635614ffd914360001b612609565b60000160009054906101000a900460ff16156120785761207383612613565b6121a0565b8273ffffffffffffffffffffffffffffffffffffffff166352d1902d6040518163ffffffff1660e01b815260040160206040518083038186803b1580156120be57600080fd5b505afa9250505080156120ef57506040513d601f19601f820116820180604052508101906120ec9190613c36565b60015b61212e576040517f08c379a000000000000000000000000000000000000000000000000000000000815260040161212590613cd5565b60405180910390fd5b7f360894a13ba1a3210667c828492db98dca3e2076cc3735a920a3ca505d382bbc60001b8114612193576040517f08c379a000000000000000000000000000000000000000000000000000000000815260040161218a90613d67565b60405180910390fd5b5061219f8383836126cc565b5b505050565b600081836121b39190613db6565b905092915050565b600081836121c99190613dea565b905092915050565b600081836121df9190613e44565b905092915050565b6000808273ffffffffffffffffffffffffffffffffffffffff163b119050919050565b600060019054906101000a900460ff16612259576040517f08c379a000000000000000000000000000000000000000000000000000000000815260040161225090613f0c565b60405180910390fd5b565b600060019054906101000a900460ff166122aa576040517f08c379a00000000000000000000000000000000000000000000000000000000081526004016122a190613f0c565b60405180910390fd5b565b6122b68282611df5565b5050565b60008060fb60009054906101000a900473ffffffffffffffffffffffffffffffffffffffff1673ffffffffffffffffffffffffffffffffffffffff166318160ddd6040518163ffffffff1660e01b815260040160206040518083038186803b15801561232557600080fd5b505afa158015612339573d6000803e3d6000fd5b505050506040513d601f19601f8201168201806040525081019061235d9190613f2c565b9050808310915050919050565b600080610100600060fb60009054906101000a900473ffffffffffffffffffffffffffffffffffffffff1673ffffffffffffffffffffffffffffffffffffffff16636352211e866040518263ffffffff1660e01b81526004016123cd9190612dc2565b60206040518083038186803b1580156123e557600080fd5b505afa1580156123f9573d6000803e3d6000fd5b505050506040513d601f19601f8201168201806040525081019061241d919061346a565b73ffffffffffffffffffffffffffffffffffffffff1673ffffffffffffffffffffffffffffffffffffffff1681526020019081526020016000208054806020026020016040519081016040528092919081815260200182805480156124a157602002820191906000526020600020905b81548152602001906001019080831161248d575b5050505050905060005b815181101561255857600060fe8383815181106124cb576124ca613201565b5b6020026020010151815481106124e4576124e3613201565b5b906000526020600020906006020190508060050160009054906101000a900460ff1680156125155750848160000154145b156125445780600301544210158015612532575080600401544211155b15612543576000935050505061255f565b5b50808061255090613f59565b9150506124ab565b5060019150505b919050565b600081836125729190613fd1565b905092915050565b6125848282611cc0565b6125fb57612591816126f8565b61259f8360001c6020612725565b6040516020016125b09291906140e1565b6040516020818303038152906040526040517f08c379a00000000000000000000000000000000000000000000000000000000081526004016125f29190614154565b60405180910390fd5b5050565b6000819050919050565b6000819050919050565b61261c816121e7565b61265b576040517f08c379a0000000000000000000000000000000000000000000000000000000008152600401612652906141e8565b60405180910390fd5b806126887f360894a13ba1a3210667c828492db98dca3e2076cc3735a920a3ca505d382bbc60001b6125ff565b60000160006101000a81548173ffffffffffffffffffffffffffffffffffffffff021916908373ffffffffffffffffffffffffffffffffffffffff16021790555050565b6126d583612961565b6000825111806126e25750805b156126f3576126f183836129b0565b505b505050565b606061271e8273ffffffffffffffffffffffffffffffffffffffff16601460ff16612725565b9050919050565b6060600060028360026127389190613dea565b6127429190613e44565b67ffffffffffffffff81111561275b5761275a612e38565b5b6040519080825280601f01601f19166020018201604052801561278d5781602001600182028036833780820191505090505b5090507f3000000000000000000000000000000000000000000000000000000000000000816000815181106127c5576127c4613201565b5b60200101907effffffffffffffffffffffffffffffffffffffffffffffffffffffffffffff1916908160001a9053507f78000000000000000000000000000000000000000000000000000000000000008160018151811061282957612828613201565b5b60200101907effffffffffffffffffffffffffffffffffffffffffffffffffffffffffffff1916908160001a905350600060018460026128699190613dea565b6128739190613e44565b90505b6001811115612913577f3031323334353637383961626364656600000000000000000000000000000000600f8616601081106128b5576128b4613201565b5b1a60f81b8282815181106128cc576128cb613201565b5b60200101907effffffffffffffffffffffffffffffffffffffffffffffffffffffffffffff1916908160001a905350600485901c94508061290c90614208565b9050612876565b5060008414612957576040517f08c379a000000000000000000000000000000000000000000000000000000000815260040161294e9061427e565b60405180910390fd5b8091505092915050565b61296a81612613565b8073ffffffffffffffffffffffffffffffffffffffff167fbc7cd75a20ee27fd9adebab32041f755214dbc6bffa90cc0225b39da2e5c2d3b60405160405180910390a250565b60606129d58383604051806060016040528060278152602001614369602791396129dd565b905092915050565b60606000808573ffffffffffffffffffffffffffffffffffffffff1685604051612a0791906142e5565b600060405180830381855af49150503d8060008114612a42576040519150601f19603f3d011682016040523d82523d6000602084013e612a47565b606091505b5091509150612a5886838387612a63565b925050509392505050565b60608315612ac657600083511415612abe57612a7e856121e7565b612abd576040517f08c379a0000000000000000000000000000000000000000000000000000000008152600401612ab490614348565b60405180910390fd5b5b829050612ad1565b612ad08383612ad9565b5b949350505050565b600082511115612aec5781518083602001fd5b806040517f08c379a0000000000000000000000000000000000000000000000000000000008152600401612b209190614154565b60405180910390fd5b6000604051905090565b600080fd5b600080fd5b60007fffffffff0000000000000000000000000000000000000000000000000000000082169050919050565b612b7281612b3d565b8114612b7d57600080fd5b50565b600081359050612b8f81612b69565b92915050565b600060208284031215612bab57612baa612b33565b5b6000612bb984828501612b80565b91505092915050565b60008115159050919050565b612bd781612bc2565b82525050565b6000602082019050612bf26000830184612bce565b92915050565b6000819050919050565b612c0b81612bf8565b8114612c1657600080fd5b50565b600081359050612c2881612c02565b92915050565b600060208284031215612c4457612c43612b33565b5b6000612c5284828501612c19565b91505092915050565b612c6481612bf8565b82525050565b6000602082019050612c7f6000830184612c5b565b92915050565b600073ffffffffffffffffffffffffffffffffffffffff82169050919050565b6000612cb082612c85565b9050919050565b612cc081612ca5565b8114612ccb57600080fd5b50565b600081359050612cdd81612cb7565b92915050565b60008060408385031215612cfa57612cf9612b33565b5b6000612d0885828601612c19565b9250506020612d1985828601612cce565b9150509250929050565b6000819050919050565b612d3681612d23565b8114612d4157600080fd5b50565b600081359050612d5381612d2d565b92915050565b600060208284031215612d6f57612d6e612b33565b5b6000612d7d84828501612d44565b91505092915050565b600060208284031215612d9c57612d9b612b33565b5b6000612daa84828501612cce565b91505092915050565b612dbc81612d23565b82525050565b6000602082019050612dd76000830184612db3565b92915050565b60008060408385031215612df457612df3612b33565b5b6000612e0285828601612cce565b9250506020612e1385828601612cce565b9150509250929050565b600080fd5b600080fd5b6000601f19601f8301169050919050565b7f4e487b7100000000000000000000000000000000000000000000000000000000600052604160045260246000fd5b612e7082612e27565b810181811067ffffffffffffffff82111715612e8f57612e8e612e38565b5b80604052505050565b6000612ea2612b29565b9050612eae8282612e67565b919050565b600067ffffffffffffffff821115612ece57612ecd612e38565b5b612ed782612e27565b9050602081019050919050565b82818337600083830152505050565b6000612f06612f0184612eb3565b612e98565b905082815260208101848484011115612f2257612f21612e22565b5b612f2d848285612ee4565b509392505050565b600082601f830112612f4a57612f49612e1d565b5b8135612f5a848260208601612ef3565b91505092915050565b60008060408385031215612f7a57612f79612b33565b5b6000612f8885828601612cce565b925050602083013567ffffffffffffffff811115612fa957612fa8612b38565b5b612fb585828601612f35565b9150509250929050565b60008060008060808587031215612fd957612fd8612b33565b5b6000612fe787828801612d44565b9450506020612ff887828801612d44565b935050604061300987828801612d44565b925050606061301a87828801612d44565b91505092959194509250565b61302f81612ca5565b82525050565b600060e08201905061304a600083018a612db3565b6130576020830189612db3565b6130646040830188613026565b6130716060830187612db3565b61307e6080830186612db3565b61308b60a0830185612bce565b61309860c0830184612bce565b98975050505050505050565b600081519050919050565b600082825260208201905092915050565b6000819050602082019050919050565b6130d981612d23565b82525050565b60006130eb83836130d0565b60208301905092915050565b6000602082019050919050565b600061310f826130a4565b61311981856130af565b9350613124836130c0565b8060005b8381101561315557815161313c88826130df565b9750613147836130f7565b925050600181019050613128565b5085935050505092915050565b6000602082019050818103600083015261317c8184613104565b905092915050565b600082825260208201905092915050565b7f494420646520616c7175696c657220696e76616c69646f000000000000000000600082015250565b60006131cb601783613184565b91506131d682613195565b602082019050919050565b600060208201905081810360008301526131fa816131be565b9050919050565b7f4e487b7100000000000000000000000000000000000000000000000000000000600052603260045260246000fd5b7f4e6f20657320656c20617272656e6461746172696f206465206573746520616c60008201527f7175696c65720000000000000000000000000000000000000000000000000000602082015250565b600061328c602683613184565b915061329782613230565b604082019050919050565b600060208201905081810360008301526132bb8161327f565b9050919050565b7f456c20616c7175696c6572206e6f20657374612061637469766f000000000000600082015250565b60006132f8601a83613184565b9150613303826132c2565b602082019050919050565b60006020820190508181036000830152613327816132eb565b9050919050565b7f456c20616c7175696c65722061756e206e6f2068612066696e616c697a61646f600082015250565b6000613364602083613184565b915061336f8261332e565b602082019050919050565b6000602082019050818103600083015261339381613357565b9050919050565b60006040820190506133af6000830185612db3565b6133bc6020830184612db3565b9392505050565b7f4e6f20686179206d6f6e746f206465206465766f6c7563696f6e20706172612060008201527f7265656d626f6c73617200000000000000000000000000000000000000000000602082015250565b600061341f602a83613184565b915061342a826133c3565b604082019050919050565b6000602082019050818103600083015261344e81613412565b9050919050565b60008151905061346481612cb7565b92915050565b6000602082840312156134805761347f612b33565b5b600061348e84828501613455565b91505092915050565b7f50726f706965746172696f206465206175746f20696e76616c69646f00000000600082015250565b60006134cd601c83613184565b91506134d882613497565b602082019050919050565b600060208201905081810360008301526134fc816134c0565b9050919050565b7f416363657373436f6e74726f6c3a2063616e206f6e6c792072656e6f756e636560008201527f20726f6c657320666f722073656c660000000000000000000000000000000000602082015250565b600061355f602f83613184565b915061356a82613503565b604082019050919050565b6000602082019050818103600083015261358e81613552565b9050919050565b7f46756e6374696f6e206d7573742062652063616c6c6564207468726f7567682060008201527f64656c656761746563616c6c0000000000000000000000000000000000000000602082015250565b60006135f1602c83613184565b91506135fc82613595565b604082019050919050565b60006020820190508181036000830152613620816135e4565b9050919050565b7f46756e6374696f6e206d7573742062652063616c6c6564207468726f7567682060008201527f6163746976652070726f78790000000000000000000000000000000000000000602082015250565b6000613683602c83613184565b915061368e82613627565b604082019050919050565b600060208201905081810360008301526136b281613676565b9050919050565b6000815190506136c881612d2d565b92915050565b600067ffffffffffffffff8211156136e9576136e8612e38565b5b6136f282612e27565b9050602081019050919050565b60005b8381101561371d578082015181840152602081019050613702565b8381111561372c576000848401525b50505050565b6000613745613740846136ce565b612e98565b90508281526020810184848401111561376157613760612e22565b5b61376c8482856136ff565b509392505050565b600082601f83011261378957613788612e1d565b5b8151613799848260208601613732565b91505092915050565b60008060008060008060c087890312156137bf576137be612b33565b5b60006137cd89828a016136b9565b965050602087015167ffffffffffffffff8111156137ee576137ed612b38565b5b6137fa89828a01613774565b955050604087015167ffffffffffffffff81111561381b5761381a612b38565b5b61382789828a01613774565b945050606061383889828a016136b9565b935050608061384989828a016136b9565b92505060a061385a89828a016136b9565b9150509295509295509295565b7f496e697469616c697a61626c653a20636f6e747261637420697320616c72656160008201527f647920696e697469616c697a6564000000000000000000000000000000000000602082015250565b60006138c3602e83613184565b91506138ce82613867565b604082019050919050565b600060208201905081810360008301526138f2816138b6565b9050919050565b6000819050919050565b600060ff82169050919050565b6000819050919050565b600061393561393061392b846138f9565b613910565b613903565b9050919050565b6139458161391a565b82525050565b6000602082019050613960600083018461393c565b92915050565b7f555550535570677261646561626c653a206d757374206e6f742062652063616c60008201527f6c6564207468726f7567682064656c656761746563616c6c0000000000000000602082015250565b60006139c2603883613184565b91506139cd82613966565b604082019050919050565b600060208201905081810360008301526139f1816139b5565b9050919050565b7f4461746f7320696e76616c69646f730000000000000000000000000000000000600082015250565b6000613a2e600f83613184565b9150613a39826139f8565b602082019050919050565b60006020820190508181036000830152613a5d81613a21565b9050919050565b7f546f6b656e204944206e6f206578697374650000000000000000000000000000600082015250565b6000613a9a601283613184565b9150613aa582613a64565b602082019050919050565b60006020820190508181036000830152613ac981613a8d565b9050919050565b7f436172726f206e6f20646973706f6e69626c65207061726120616c7175696c6560008201527f7200000000000000000000000000000000000000000000000000000000000000602082015250565b6000613b2c602183613184565b9150613b3782613ad0565b604082019050919050565b60006020820190508181036000830152613b5b81613b1f565b9050919050565b600060a082019050613b776000830188612db3565b613b846020830187612db3565b613b916040830186612db3565b613b9e6060830185612db3565b613bab6080830184612db3565b9695505050505050565b7f496e73756666696369656e74657320666f6e646f730000000000000000000000600082015250565b6000613beb601583613184565b9150613bf682613bb5565b602082019050919050565b60006020820190508181036000830152613c1a81613bde565b9050919050565b600081519050613c3081612c02565b92915050565b600060208284031215613c4c57613c4b612b33565b5b6000613c5a84828501613c21565b91505092915050565b7f45524331393637557067726164653a206e657720696d706c656d656e7461746960008201527f6f6e206973206e6f742055555053000000000000000000000000000000000000602082015250565b6000613cbf602e83613184565b9150613cca82613c63565b604082019050919050565b60006020820190508181036000830152613cee81613cb2565b9050919050565b7f45524331393637557067726164653a20756e737570706f727465642070726f7860008201527f6961626c65555549440000000000000000000000000000000000000000000000602082015250565b6000613d51602983613184565b9150613d5c82613cf5565b604082019050919050565b60006020820190508181036000830152613d8081613d44565b9050919050565b7f4e487b7100000000000000000000000000000000000000000000000000000000600052601160045260246000fd5b6000613dc182612d23565b9150613dcc83612d23565b925082821015613ddf57613dde613d87565b5b828203905092915050565b6000613df582612d23565b9150613e0083612d23565b9250817fffffffffffffffffffffffffffffffffffffffffffffffffffffffffffffffff0483118215151615613e3957613e38613d87565b5b828202905092915050565b6000613e4f82612d23565b9150613e5a83612d23565b9250827fffffffffffffffffffffffffffffffffffffffffffffffffffffffffffffffff03821115613e8f57613e8e613d87565b5b828201905092915050565b7f496e697469616c697a61626c653a20636f6e7472616374206973206e6f74206960008201527f6e697469616c697a696e67000000000000000000000000000000000000000000602082015250565b6000613ef6602b83613184565b9150613f0182613e9a565b604082019050919050565b60006020820190508181036000830152613f2581613ee9565b9050919050565b600060208284031215613f4257613f41612b33565b5b6000613f50848285016136b9565b91505092915050565b6000613f6482612d23565b91507fffffffffffffffffffffffffffffffffffffffffffffffffffffffffffffffff821415613f9757613f96613d87565b5b600182019050919050565b7f4e487b7100000000000000000000000000000000000000000000000000000000600052601260045260246000fd5b6000613fdc82612d23565b9150613fe783612d23565b925082613ff757613ff6613fa2565b5b828204905092915050565b600081905092915050565b7f416363657373436f6e74726f6c3a206163636f756e7420000000000000000000600082015250565b6000614043601783614002565b915061404e8261400d565b601782019050919050565b600081519050919050565b600061406f82614059565b6140798185614002565b93506140898185602086016136ff565b80840191505092915050565b7f206973206d697373696e6720726f6c6520000000000000000000000000000000600082015250565b60006140cb601183614002565b91506140d682614095565b601182019050919050565b60006140ec82614036565b91506140f88285614064565b9150614103826140be565b915061410f8284614064565b91508190509392505050565b600061412682614059565b6141308185613184565b93506141408185602086016136ff565b61414981612e27565b840191505092915050565b6000602082019050818103600083015261416e818461411b565b905092915050565b7f455243313936373a206e657720696d706c656d656e746174696f6e206973206e60008201527f6f74206120636f6e747261637400000000000000000000000000000000000000602082015250565b60006141d2602d83613184565b91506141dd82614176565b604082019050919050565b60006020820190508181036000830152614201816141c5565b9050919050565b600061421382612d23565b9150600082141561422757614226613d87565b5b600182039050919050565b7f537472696e67733a20686578206c656e67746820696e73756666696369656e74600082015250565b6000614268602083613184565b915061427382614232565b602082019050919050565b600060208201905081810360008301526142978161425b565b9050919050565b600081519050919050565b600081905092915050565b60006142bf8261429e565b6142c981856142a9565b93506142d98185602086016136ff565b80840191505092915050565b60006142f182846142b4565b915081905092915050565b7f416464726573733a2063616c6c20746f206e6f6e2d636f6e7472616374000000600082015250565b6000614332601d83613184565b915061433d826142fc565b602082019050919050565b6000602082019050818103600083015261436181614325565b905091905056fe416464726573733a206c6f772d6c6576656c2064656c65676174652063616c6c206661696c6564a26469706673582212201ec62c225fd538cb3d440e17e3c0d943cee0b7fb74896fef80dd699d9de6048564736f6c63430008090033",
  "linkReferences": {},
  "deployedLinkReferences": {}
}