{
  "_format": "hh-sol-artifact-1",
  "contractName": "RentCar",
  "sourceName": "contracts/RentCar.sol",
  "abi": [
    {
      "anonymous": false,
      "inputs": [
        {
          "indexed": false,
          "internalType": "address",
          "name": "previousAdmin",
          "type": "address"
        },
        {
          "indexed": false,
          "internalType": "address",
          "name": "newAdmin",
          "type": "address"
        }
      ],
      "name": "AdminChanged",
      "type": "event"
    },
    {
      "anonymous": false,
      "inputs": [
        {
          "indexed": true,
          "internalType": "address",
          "name": "beacon",
          "type": "address"
        }
      ],
      "name": "BeaconUpgraded",
      "type": "event"
    },
    {
      "anonymous": false,
      "inputs": [
        {
          "indexed": false,
          "internalType": "uint8",
          "name": "version",
          "type": "uint8"
        }
      ],
      "name": "Initialized",
      "type": "event"
    },
    {
      "anonymous": false,
      "inputs": [
        {
          "indexed": true,
          "internalType": "address",
          "name": "renter",
          "type": "address"
        },
        {
          "indexed": false,
          "internalType": "uint256",
          "name": "rentalId",
          "type": "uint256"
        },
        {
          "indexed": false,
          "internalType": "uint256",
          "name": "carIndex",
          "type": "uint256"
        },
        {
          "indexed": false,
          "internalType": "uint256",
          "name": "tokenId",
          "type": "uint256"
        },
        {
          "indexed": false,
          "internalType": "uint256",
          "name": "startDate",
          "type": "uint256"
        },
        {
          "indexed": false,
          "internalType": "uint256",
          "name": "endDate",
          "type": "uint256"
        }
      ],
      "name": "RentalCreated",
      "type": "event"
    },
    {
      "anonymous": false,
      "inputs": [
        {
          "indexed": true,
          "internalType": "address",
          "name": "renter",
          "type": "address"
        },
        {
          "indexed": false,
          "internalType": "uint256",
          "name": "rentalId",
          "type": "uint256"
        },
        {
          "indexed": false,
          "internalType": "uint256",
          "name": "endDate",
          "type": "uint256"
        }
      ],
      "name": "RentalReturned",
      "type": "event"
    },
    {
      "anonymous": false,
      "inputs": [
        {
          "indexed": true,
          "internalType": "bytes32",
          "name": "role",
          "type": "bytes32"
        },
        {
          "indexed": true,
          "internalType": "bytes32",
          "name": "previousAdminRole",
          "type": "bytes32"
        },
        {
          "indexed": true,
          "internalType": "bytes32",
          "name": "newAdminRole",
          "type": "bytes32"
        }
      ],
      "name": "RoleAdminChanged",
      "type": "event"
    },
    {
      "anonymous": false,
      "inputs": [
        {
          "indexed": true,
          "internalType": "bytes32",
          "name": "role",
          "type": "bytes32"
        },
        {
          "indexed": true,
          "internalType": "address",
          "name": "account",
          "type": "address"
        },
        {
          "indexed": true,
          "internalType": "address",
          "name": "sender",
          "type": "address"
        }
      ],
      "name": "RoleGranted",
      "type": "event"
    },
    {
      "anonymous": false,
      "inputs": [
        {
          "indexed": true,
          "internalType": "bytes32",
          "name": "role",
          "type": "bytes32"
        },
        {
          "indexed": true,
          "internalType": "address",
          "name": "account",
          "type": "address"
        },
        {
          "indexed": true,
          "internalType": "address",
          "name": "sender",
          "type": "address"
        }
      ],
      "name": "RoleRevoked",
      "type": "event"
    },
    {
      "anonymous": false,
      "inputs": [
        {
          "indexed": true,
          "internalType": "address",
          "name": "implementation",
          "type": "address"
        }
      ],
      "name": "Upgraded",
      "type": "event"
    },
    {
      "inputs": [],
      "name": "DEFAULT_ADMIN_ROLE",
      "outputs": [
        {
          "internalType": "bytes32",
          "name": "",
          "type": "bytes32"
        }
      ],
      "stateMutability": "view",
      "type": "function"
    },
    {
      "inputs": [],
      "name": "RENTER_ROLE",
      "outputs": [
        {
          "internalType": "bytes32",
          "name": "",
          "type": "bytes32"
        }
      ],
      "stateMutability": "view",
      "type": "function"
    },
    {
      "inputs": [
        {
          "internalType": "uint256",
          "name": "rentalId",
          "type": "uint256"
        }
      ],
      "name": "calculateRentalCost",
      "outputs": [
        {
          "internalType": "uint256",
          "name": "",
          "type": "uint256"
        }
      ],
      "stateMutability": "view",
      "type": "function"
    },
    {
      "inputs": [
        {
          "internalType": "uint256",
          "name": "carIndex",
          "type": "uint256"
        },
        {
          "internalType": "uint256",
          "name": "tokenId",
          "type": "uint256"
        },
        {
          "internalType": "uint256",
          "name": "startDate",
          "type": "uint256"
        },
        {
          "internalType": "uint256",
          "name": "endDate",
          "type": "uint256"
        }
      ],
      "name": "createRental",
      "outputs": [],
      "stateMutability": "payable",
      "type": "function"
    },
    {
      "inputs": [
        {
          "internalType": "address",
          "name": "carOwner",
          "type": "address"
        }
      ],
      "name": "getCarRentals",
      "outputs": [
        {
          "internalType": "uint256[]",
          "name": "",
          "type": "uint256[]"
        }
      ],
      "stateMutability": "view",
      "type": "function"
    },
    {
      "inputs": [
        {
          "internalType": "uint256",
          "name": "rentalId",
          "type": "uint256"
        }
      ],
      "name": "getRental",
      "outputs": [
        {
          "internalType": "uint256",
          "name": "carIndex",
          "type": "uint256"
        },
        {
          "internalType": "uint256",
          "name": "tokenId",
          "type": "uint256"
        },
        {
          "internalType": "address",
          "name": "renter",
          "type": "address"
        },
        {
          "internalType": "uint256",
          "name": "startDate",
          "type": "uint256"
        },
        {
          "internalType": "uint256",
          "name": "endDate",
          "type": "uint256"
        },
        {
          "internalType": "bool",
          "name": "active",
          "type": "bool"
        },
        {
          "internalType": "bool",
          "name": "returned",
          "type": "bool"
        }
      ],
      "stateMutability": "view",
      "type": "function"
    },
    {
      "inputs": [
        {
          "internalType": "address",
          "name": "renter",
          "type": "address"
        }
      ],
      "name": "getRenterRentals",
      "outputs": [
        {
          "internalType": "uint256[]",
          "name": "",
          "type": "uint256[]"
        }
      ],
      "stateMutability": "view",
      "type": "function"
    },
    {
      "inputs": [
        {
          "internalType": "bytes32",
          "name": "role",
          "type": "bytes32"
        }
      ],
      "name": "getRoleAdmin",
      "outputs": [
        {
          "internalType": "bytes32",
          "name": "",
          "type": "bytes32"
        }
      ],
      "stateMutability": "view",
      "type": "function"
    },
    {
      "inputs": [],
      "name": "getTotalRentals",
      "outputs": [
        {
          "internalType": "uint256",
          "name": "",
          "type": "uint256"
        }
      ],
      "stateMutability": "view",
      "type": "function"
    },
    {
      "inputs": [
        {
          "internalType": "bytes32",
          "name": "role",
          "type": "bytes32"
        },
        {
          "internalType": "address",
          "name": "account",
          "type": "address"
        }
      ],
      "name": "grantRole",
      "outputs": [],
      "stateMutability": "nonpayable",
      "type": "function"
    },
    {
      "inputs": [
        {
          "internalType": "bytes32",
          "name": "role",
          "type": "bytes32"
        },
        {
          "internalType": "address",
          "name": "account",
          "type": "address"
        }
      ],
      "name": "hasRole",
      "outputs": [
        {
          "internalType": "bool",
          "name": "",
          "type": "bool"
        }
      ],
      "stateMutability": "view",
      "type": "function"
    },
    {
      "inputs": [
        {
          "internalType": "address",
          "name": "_nftContractAddress",
          "type": "address"
        },
        {
          "internalType": "address",
          "name": "_marketplaceOwner",
          "type": "address"
        },
        {
          "internalType": "uint256",
          "name": "_commissionPercentage",
          "type": "uint256"
        }
      ],
      "name": "initialize",
      "outputs": [],
      "stateMutability": "nonpayable",
      "type": "function"
    },
    {
      "inputs": [],
      "name": "proxiableUUID",
      "outputs": [
        {
          "internalType": "bytes32",
          "name": "",
          "type": "bytes32"
        }
      ],
      "stateMutability": "view",
      "type": "function"
    },
    {
      "inputs": [
        {
          "internalType": "bytes32",
          "name": "role",
          "type": "bytes32"
        },
        {
          "internalType": "address",
          "name": "account",
          "type": "address"
        }
      ],
      "name": "renounceRole",
      "outputs": [],
      "stateMutability": "nonpayable",
      "type": "function"
    },
    {
      "inputs": [
        {
          "internalType": "uint256",
          "name": "rentalId",
          "type": "uint256"
        }
      ],
      "name": "returnRental",
      "outputs": [],
      "stateMutability": "nonpayable",
      "type": "function"
    },
    {
      "inputs": [
        {
          "internalType": "bytes32",
          "name": "role",
          "type": "bytes32"
        },
        {
          "internalType": "address",
          "name": "account",
          "type": "address"
        }
      ],
      "name": "revokeRole",
      "outputs": [],
      "stateMutability": "nonpayable",
      "type": "function"
    },
    {
      "inputs": [
        {
          "internalType": "uint256",
          "name": "_commissionPercentage",
          "type": "uint256"
        }
      ],
      "name": "setCommissionPercentage",
      "outputs": [],
      "stateMutability": "nonpayable",
      "type": "function"
    },
    {
      "inputs": [
        {
          "internalType": "bytes4",
          "name": "interfaceId",
          "type": "bytes4"
        }
      ],
      "name": "supportsInterface",
      "outputs": [
        {
          "internalType": "bool",
          "name": "",
          "type": "bool"
        }
      ],
      "stateMutability": "view",
      "type": "function"
    },
    {
      "inputs": [
        {
          "internalType": "address",
          "name": "newImplementation",
          "type": "address"
        }
      ],
      "name": "upgradeTo",
      "outputs": [],
      "stateMutability": "nonpayable",
      "type": "function"
    },
    {
      "inputs": [
        {
          "internalType": "address",
          "name": "newImplementation",
          "type": "address"
        },
        {
          "internalType": "bytes",
          "name": "data",
          "type": "bytes"
        }
      ],
      "name": "upgradeToAndCall",
      "outputs": [],
      "stateMutability": "payable",
      "type": "function"
    },
    {
      "inputs": [],
      "name": "withdrawFunds",
      "outputs": [],
      "stateMutability": "nonpayable",
      "type": "function"
    }
  ],
  "bytecode": "0x60a06040523073ffffffffffffffffffffffffffffffffffffffff1660809073ffffffffffffffffffffffffffffffffffffffff1681525034801561004357600080fd5b50608051613ca661007b60003960008181610aed01528181610b7c01528181610e3b01528181610eca0152610f870152613ca66000f3fe60806040526004361061012a5760003560e01c80634f1ef286116100ab57806377af87c01161006f57806377af87c0146103c45780638e5d94701461040157806391d148541461043e578063a217fddf1461047b578063b97c9f77146104a6578063d547741f146104d15761012a565b80634f1ef286146102f35780634fc783811461030f57806352d1902d1461033a5780636128e19f14610365578063652bd29e146103815761012a565b80633310df9e116100f25780633310df9e1461021257806336568abe1461023b5780633659cfe61461026457806339b87c8f1461028d5780633e9f4fa0146102b65761012a565b806301ffc9a71461012f5780631794bb3c1461016c57806324600fc314610195578063248a9ca3146101ac5780632f2ff15d146101e9575b600080fd5b34801561013b57600080fd5b50610156600480360381019061015191906126c0565b6104fa565b6040516101639190612708565b60405180910390f35b34801561017857600080fd5b50610193600480360381019061018e91906127b7565b610574565b005b3480156101a157600080fd5b506101aa61077d565b005b3480156101b857600080fd5b506101d360048036038101906101ce9190612840565b6107d4565b6040516101e0919061287c565b60405180910390f35b3480156101f557600080fd5b50610210600480360381019061020b9190612897565b6107f4565b005b34801561021e57600080fd5b50610239600480360381019061023491906128d7565b610815565b005b34801561024757600080fd5b50610262600480360381019061025d9190612897565b610a68565b005b34801561027057600080fd5b5061028b60048036038101906102869190612904565b610aeb565b005b34801561029957600080fd5b506102b460048036038101906102af91906128d7565b610c74565b005b3480156102c257600080fd5b506102dd60048036038101906102d891906128d7565b610c8c565b6040516102ea9190612940565b60405180910390f35b61030d60048036038101906103089190612aa1565b610e39565b005b34801561031b57600080fd5b50610324610f76565b6040516103319190612940565b60405180910390f35b34801561034657600080fd5b5061034f610f83565b60405161035c919061287c565b60405180910390f35b61037f600480360381019061037a9190612afd565b61103c565b005b34801561038d57600080fd5b506103a860048036038101906103a391906128d7565b6115cd565b6040516103bb9796959493929190612b73565b60405180910390f35b3480156103d057600080fd5b506103eb60048036038101906103e69190612904565b6116bc565b6040516103f89190612ca0565b60405180910390f35b34801561040d57600080fd5b5061042860048036038101906104239190612904565b611754565b6040516104359190612ca0565b60405180910390f35b34801561044a57600080fd5b5061046560048036038101906104609190612897565b6117eb565b6040516104729190612708565b60405180910390f35b34801561048757600080fd5b50610490611856565b60405161049d919061287c565b60405180910390f35b3480156104b257600080fd5b506104bb61185d565b6040516104c8919061287c565b60405180910390f35b3480156104dd57600080fd5b506104f860048036038101906104f39190612897565b611881565b005b60007f7965db0b000000000000000000000000000000000000000000000000000000007bffffffffffffffffffffffffffffffffffffffffffffffffffffffff1916827bffffffffffffffffffffffffffffffffffffffffffffffffffffffff1916148061056d575061056c826118a2565b5b9050919050565b60008060019054906101000a900460ff161590508080156105a55750600160008054906101000a900460ff1660ff16105b806105d257506105b43061190c565b1580156105d15750600160008054906101000a900460ff1660ff16145b5b610611576040517f08c379a000000000000000000000000000000000000000000000000000000000815260040161060890612d45565b60405180910390fd5b60016000806101000a81548160ff021916908360ff160217905550801561064e576001600060016101000a81548160ff0219169083151502179055505b61065661192f565b61065e611980565b61066b6000801b336119d1565b6106957f3b652633b3026fa70803ad50b58b0ae884cefe3497643f62c67c466f41a6e88d336119d1565b8360fb60006101000a81548173ffffffffffffffffffffffffffffffffffffffff021916908373ffffffffffffffffffffffffffffffffffffffff1602179055508260fc60006101000a81548173ffffffffffffffffffffffffffffffffffffffff021916908373ffffffffffffffffffffffffffffffffffffffff1602179055508160fd8190555080156107775760008060016101000a81548160ff0219169083151502179055507f7f26b83ff96e1f2b6a682f133852f6798a09c465da95921460cefb3847402498600160405161076e9190612db7565b60405180910390a15b50505050565b6000801b61078a816119df565b3373ffffffffffffffffffffffffffffffffffffffff166108fc479081150290604051600060405180830381858888f193505050501580156107d0573d6000803e3d6000fd5b5050565b600060656000838152602001908152602001600020600101549050919050565b6107fd826107d4565b610806816119df565b61081083836119f3565b505050565b7f3b652633b3026fa70803ad50b58b0ae884cefe3497643f62c67c466f41a6e88d61083f816119df565b60fe805490508210610886576040517f08c379a000000000000000000000000000000000000000000000000000000000815260040161087d90612e1e565b60405180910390fd5b600060fe838154811061089c5761089b612e3e565b5b906000526020600020906006020190503373ffffffffffffffffffffffffffffffffffffffff168160020160009054906101000a900473ffffffffffffffffffffffffffffffffffffffff1673ffffffffffffffffffffffffffffffffffffffff161461093e576040517f08c379a000000000000000000000000000000000000000000000000000000000815260040161093590612eb9565b60405180910390fd5b8060050160009054906101000a900460ff1661098f576040517f08c379a000000000000000000000000000000000000000000000000000000000815260040161098690612f25565b60405180910390fd5b428160040154106109d5576040517f08c379a00000000000000000000000000000000000000000000000000000000081526004016109cc90612f91565b60405180910390fd5b60008160050160006101000a81548160ff02191690831515021790555060018160050160016101000a81548160ff0219169083151502179055503373ffffffffffffffffffffffffffffffffffffffff167feed83d4b93c4f21bc39939ac711d0fef0317fcf9485bbfaaaebd1690c2e16d15848360040154604051610a5b929190612fb1565b60405180910390a2505050565b610a70611ad4565b73ffffffffffffffffffffffffffffffffffffffff168173ffffffffffffffffffffffffffffffffffffffff1614610add576040517f08c379a0000000000000000000000000000000000000000000000000000000008152600401610ad49061304c565b60405180910390fd5b610ae78282611adc565b5050565b7f000000000000000000000000000000000000000000000000000000000000000073ffffffffffffffffffffffffffffffffffffffff163073ffffffffffffffffffffffffffffffffffffffff161415610b7a576040517f08c379a0000000000000000000000000000000000000000000000000000000008152600401610b71906130de565b60405180910390fd5b7f000000000000000000000000000000000000000000000000000000000000000073ffffffffffffffffffffffffffffffffffffffff16610bb9611bbe565b73ffffffffffffffffffffffffffffffffffffffff1614610c0f576040517f08c379a0000000000000000000000000000000000000000000000000000000008152600401610c0690613170565b60405180910390fd5b610c1881611c15565b610c7181600067ffffffffffffffff811115610c3757610c36612976565b5b6040519080825280601f01601f191660200182016040528015610c695781602001600182028036833780820191505090505b506000611c26565b50565b6000801b610c81816119df565b8160fd819055505050565b600060fe805490508210610cd5576040517f08c379a0000000000000000000000000000000000000000000000000000000008152600401610ccc90612e1e565b60405180910390fd5b600060fe8381548110610ceb57610cea612e3e565b5b9060005260206000209060060201905060008060fb60009054906101000a900473ffffffffffffffffffffffffffffffffffffffff1673ffffffffffffffffffffffffffffffffffffffff16635e8be19084600001546040518263ffffffff1660e01b8152600401610d5d9190612940565b60606040518083038186803b158015610d7557600080fd5b505afa158015610d89573d6000803e3d6000fd5b505050506040513d601f19601f82011682018060405250810190610dad91906131a5565b92509250506000610dcf84600301548560040154611da390919063ffffffff16565b9050620151808111610de75782945050505050610e34565b6000610dff6201518083611da390919063ffffffff16565b90506000610e168483611db990919063ffffffff16565b9050610e2b8186611dcf90919063ffffffff16565b96505050505050505b919050565b7f000000000000000000000000000000000000000000000000000000000000000073ffffffffffffffffffffffffffffffffffffffff163073ffffffffffffffffffffffffffffffffffffffff161415610ec8576040517f08c379a0000000000000000000000000000000000000000000000000000000008152600401610ebf906130de565b60405180910390fd5b7f000000000000000000000000000000000000000000000000000000000000000073ffffffffffffffffffffffffffffffffffffffff16610f07611bbe565b73ffffffffffffffffffffffffffffffffffffffff1614610f5d576040517f08c379a0000000000000000000000000000000000000000000000000000000008152600401610f5490613170565b60405180910390fd5b610f6682611c15565b610f7282826001611c26565b5050565b600060fe80549050905090565b60007f000000000000000000000000000000000000000000000000000000000000000073ffffffffffffffffffffffffffffffffffffffff163073ffffffffffffffffffffffffffffffffffffffff1614611013576040517f08c379a000000000000000000000000000000000000000000000000000000000815260040161100a9061326a565b60405180910390fd5b7f360894a13ba1a3210667c828492db98dca3e2076cc3735a920a3ca505d382bbc60001b905090565b7f3b652633b3026fa70803ad50b58b0ae884cefe3497643f62c67c466f41a6e88d611066816119df565b8183106110a8576040517f08c379a000000000000000000000000000000000000000000000000000000000815260040161109f906132d6565b60405180910390fd5b6110b184611de5565b6110f0576040517f08c379a00000000000000000000000000000000000000000000000000000000081526004016110e790613342565b60405180910390fd5b6110f985611e95565b611138576040517f08c379a000000000000000000000000000000000000000000000000000000000815260040161112f906133ae565b60405180910390fd5b600060fe805490509050600060fe6001816001815401808255809150500390600052602060002090600602019050868160000181905550858160010181905550338160020160006101000a81548173ffffffffffffffffffffffffffffffffffffffff021916908373ffffffffffffffffffffffffffffffffffffffff16021790555084816003018190555083816004018190555060018160050160006101000a81548160ff02191690831515021790555060008160050160016101000a81548160ff02191690831515021790555060ff60003373ffffffffffffffffffffffffffffffffffffffff1673ffffffffffffffffffffffffffffffffffffffff168152602001908152602001600020829080600181540180825580915050600190039060005260206000200160009091909190915055610100600060fb60009054906101000a900473ffffffffffffffffffffffffffffffffffffffff1673ffffffffffffffffffffffffffffffffffffffff16636352211e896040518263ffffffff1660e01b81526004016112cd9190612940565b60206040518083038186803b1580156112e557600080fd5b505afa1580156112f9573d6000803e3d6000fd5b505050506040513d601f19601f8201168201806040525081019061131d91906133e3565b73ffffffffffffffffffffffffffffffffffffffff1673ffffffffffffffffffffffffffffffffffffffff1681526020019081526020016000208290806001815401808255809150506001900390600052602060002001600090919091909150553373ffffffffffffffffffffffffffffffffffffffff167f54d2fb9eb3117e745b84d6bc809f5d1bbc6ac32ce060ac16936f52cd56ab5f3f83898989896040516113cc959493929190613410565b60405180910390a260006113df83610c8c565b905080341015611424576040517f08c379a000000000000000000000000000000000000000000000000000000000815260040161141b906134af565b60405180910390fd5b600061144e606461144060fd5485611db990919063ffffffff16565b61208f90919063ffffffff16565b905060006114658284611da390919063ffffffff16565b905060fc60009054906101000a900473ffffffffffffffffffffffffffffffffffffffff1673ffffffffffffffffffffffffffffffffffffffff166108fc839081150290604051600060405180830381858888f193505050501580156114cf573d6000803e3d6000fd5b5060fb60009054906101000a900473ffffffffffffffffffffffffffffffffffffffff1673ffffffffffffffffffffffffffffffffffffffff16636352211e8a6040518263ffffffff1660e01b815260040161152b9190612940565b60206040518083038186803b15801561154357600080fd5b505afa158015611557573d6000803e3d6000fd5b505050506040513d601f19601f8201168201806040525081019061157b91906133e3565b73ffffffffffffffffffffffffffffffffffffffff166108fc829081150290604051600060405180830381858888f193505050501580156115c0573d6000803e3d6000fd5b5050505050505050505050565b600080600080600080600060fe80549050881061161f576040517f08c379a000000000000000000000000000000000000000000000000000000000815260040161161690612e1e565b60405180910390fd5b600060fe898154811061163557611634612e3e565b5b90600052602060002090600602019050806000015481600101548260020160009054906101000a900473ffffffffffffffffffffffffffffffffffffffff16836003015484600401548560050160009054906101000a900460ff168660050160019054906101000a900460ff16975097509750975097509750975050919395979092949650565b606061010060008373ffffffffffffffffffffffffffffffffffffffff1673ffffffffffffffffffffffffffffffffffffffff16815260200190815260200160002080548060200260200160405190810160405280929190818152602001828054801561174857602002820191906000526020600020905b815481526020019060010190808311611734575b50505050509050919050565b606060ff60008373ffffffffffffffffffffffffffffffffffffffff1673ffffffffffffffffffffffffffffffffffffffff1681526020019081526020016000208054806020026020016040519081016040528092919081815260200182805480156117df57602002820191906000526020600020905b8154815260200190600101908083116117cb575b50505050509050919050565b60006065600084815260200190815260200160002060000160008373ffffffffffffffffffffffffffffffffffffffff1673ffffffffffffffffffffffffffffffffffffffff16815260200190815260200160002060009054906101000a900460ff16905092915050565b6000801b81565b7f3b652633b3026fa70803ad50b58b0ae884cefe3497643f62c67c466f41a6e88d81565b61188a826107d4565b611893816119df565b61189d8383611adc565b505050565b60007f01ffc9a7000000000000000000000000000000000000000000000000000000007bffffffffffffffffffffffffffffffffffffffffffffffffffffffff1916827bffffffffffffffffffffffffffffffffffffffffffffffffffffffff1916149050919050565b6000808273ffffffffffffffffffffffffffffffffffffffff163b119050919050565b600060019054906101000a900460ff1661197e576040517f08c379a000000000000000000000000000000000000000000000000000000000815260040161197590613541565b60405180910390fd5b565b600060019054906101000a900460ff166119cf576040517f08c379a00000000000000000000000000000000000000000000000000000000081526004016119c690613541565b60405180910390fd5b565b6119db82826119f3565b5050565b6119f0816119eb611ad4565b6120a5565b50565b6119fd82826117eb565b611ad05760016065600084815260200190815260200160002060000160008373ffffffffffffffffffffffffffffffffffffffff1673ffffffffffffffffffffffffffffffffffffffff16815260200190815260200160002060006101000a81548160ff021916908315150217905550611a75611ad4565b73ffffffffffffffffffffffffffffffffffffffff168173ffffffffffffffffffffffffffffffffffffffff16837f2f8788117e7eff1d82e926ec794901d17c78024a50270940304540a733656f0d60405160405180910390a45b5050565b600033905090565b611ae682826117eb565b15611bba5760006065600084815260200190815260200160002060000160008373ffffffffffffffffffffffffffffffffffffffff1673ffffffffffffffffffffffffffffffffffffffff16815260200190815260200160002060006101000a81548160ff021916908315150217905550611b5f611ad4565b73ffffffffffffffffffffffffffffffffffffffff168173ffffffffffffffffffffffffffffffffffffffff16837ff6391f5c32d9c69d2a47ea670b442974b53935d1edc7fd64eb21e047a839171b60405160405180910390a45b5050565b6000611bec7f360894a13ba1a3210667c828492db98dca3e2076cc3735a920a3ca505d382bbc60001b61212a565b60000160009054906101000a900473ffffffffffffffffffffffffffffffffffffffff16905090565b6000801b611c22816119df565b5050565b611c527f4910fdfa16fed3260ed0e7147f7cc6da11a60208b5b9406d12a635614ffd914360001b612134565b60000160009054906101000a900460ff1615611c7657611c718361213e565b611d9e565b8273ffffffffffffffffffffffffffffffffffffffff166352d1902d6040518163ffffffff1660e01b815260040160206040518083038186803b158015611cbc57600080fd5b505afa925050508015611ced57506040513d601f19601f82011682018060405250810190611cea9190613576565b60015b611d2c576040517f08c379a0000000000000000000000000000000000000000000000000000000008152600401611d2390613615565b60405180910390fd5b7f360894a13ba1a3210667c828492db98dca3e2076cc3735a920a3ca505d382bbc60001b8114611d91576040517f08c379a0000000000000000000000000000000000000000000000000000000008152600401611d88906136a7565b60405180910390fd5b50611d9d8383836121f7565b5b505050565b60008183611db191906136f6565b905092915050565b60008183611dc7919061372a565b905092915050565b60008183611ddd9190613784565b905092915050565b60008060fb60009054906101000a900473ffffffffffffffffffffffffffffffffffffffff1673ffffffffffffffffffffffffffffffffffffffff166318160ddd6040518163ffffffff1660e01b815260040160206040518083038186803b158015611e5057600080fd5b505afa158015611e64573d6000803e3d6000fd5b505050506040513d601f19601f82011682018060405250810190611e8891906137da565b9050808310915050919050565b600080610100600060fb60009054906101000a900473ffffffffffffffffffffffffffffffffffffffff1673ffffffffffffffffffffffffffffffffffffffff16636352211e866040518263ffffffff1660e01b8152600401611ef89190612940565b60206040518083038186803b158015611f1057600080fd5b505afa158015611f24573d6000803e3d6000fd5b505050506040513d601f19601f82011682018060405250810190611f4891906133e3565b73ffffffffffffffffffffffffffffffffffffffff1673ffffffffffffffffffffffffffffffffffffffff168152602001908152602001600020805480602002602001604051908101604052809291908181526020018280548015611fcc57602002820191906000526020600020905b815481526020019060010190808311611fb8575b5050505050905060005b815181101561208357600060fe838381518110611ff657611ff5612e3e565b5b60200260200101518154811061200f5761200e612e3e565b5b906000526020600020906006020190508060050160009054906101000a900460ff1680156120405750848160000154145b1561206f578060030154421015801561205d575080600401544211155b1561206e576000935050505061208a565b5b50808061207b90613807565b915050611fd6565b5060019150505b919050565b6000818361209d919061387f565b905092915050565b6120af82826117eb565b612126576120bc81612223565b6120ca8360001c6020612250565b6040516020016120db9291906139c2565b6040516020818303038152906040526040517f08c379a000000000000000000000000000000000000000000000000000000000815260040161211d9190613a35565b60405180910390fd5b5050565b6000819050919050565b6000819050919050565b6121478161190c565b612186576040517f08c379a000000000000000000000000000000000000000000000000000000000815260040161217d90613ac9565b60405180910390fd5b806121b37f360894a13ba1a3210667c828492db98dca3e2076cc3735a920a3ca505d382bbc60001b61212a565b60000160006101000a81548173ffffffffffffffffffffffffffffffffffffffff021916908373ffffffffffffffffffffffffffffffffffffffff16021790555050565b6122008361248c565b60008251118061220d5750805b1561221e5761221c83836124db565b505b505050565b60606122498273ffffffffffffffffffffffffffffffffffffffff16601460ff16612250565b9050919050565b606060006002836002612263919061372a565b61226d9190613784565b67ffffffffffffffff81111561228657612285612976565b5b6040519080825280601f01601f1916602001820160405280156122b85781602001600182028036833780820191505090505b5090507f3000000000000000000000000000000000000000000000000000000000000000816000815181106122f0576122ef612e3e565b5b60200101907effffffffffffffffffffffffffffffffffffffffffffffffffffffffffffff1916908160001a9053507f78000000000000000000000000000000000000000000000000000000000000008160018151811061235457612353612e3e565b5b60200101907effffffffffffffffffffffffffffffffffffffffffffffffffffffffffffff1916908160001a90535060006001846002612394919061372a565b61239e9190613784565b90505b600181111561243e577f3031323334353637383961626364656600000000000000000000000000000000600f8616601081106123e0576123df612e3e565b5b1a60f81b8282815181106123f7576123f6612e3e565b5b60200101907effffffffffffffffffffffffffffffffffffffffffffffffffffffffffffff1916908160001a905350600485901c94508061243790613ae9565b90506123a1565b5060008414612482576040517f08c379a000000000000000000000000000000000000000000000000000000000815260040161247990613b5f565b60405180910390fd5b8091505092915050565b6124958161213e565b8073ffffffffffffffffffffffffffffffffffffffff167fbc7cd75a20ee27fd9adebab32041f755214dbc6bffa90cc0225b39da2e5c2d3b60405160405180910390a250565b60606125008383604051806060016040528060278152602001613c4a60279139612508565b905092915050565b60606000808573ffffffffffffffffffffffffffffffffffffffff16856040516125329190613bc6565b600060405180830381855af49150503d806000811461256d576040519150601f19603f3d011682016040523d82523d6000602084013e612572565b606091505b50915091506125838683838761258e565b925050509392505050565b606083156125f1576000835114156125e9576125a98561190c565b6125e8576040517f08c379a00000000000000000000000000000000000000000000000000000000081526004016125df90613c29565b60405180910390fd5b5b8290506125fc565b6125fb8383612604565b5b949350505050565b6000825111156126175781518083602001fd5b806040517f08c379a000000000000000000000000000000000000000000000000000000000815260040161264b9190613a35565b60405180910390fd5b6000604051905090565b600080fd5b600080fd5b60007fffffffff0000000000000000000000000000000000000000000000000000000082169050919050565b61269d81612668565b81146126a857600080fd5b50565b6000813590506126ba81612694565b92915050565b6000602082840312156126d6576126d561265e565b5b60006126e4848285016126ab565b91505092915050565b60008115159050919050565b612702816126ed565b82525050565b600060208201905061271d60008301846126f9565b92915050565b600073ffffffffffffffffffffffffffffffffffffffff82169050919050565b600061274e82612723565b9050919050565b61275e81612743565b811461276957600080fd5b50565b60008135905061277b81612755565b92915050565b6000819050919050565b61279481612781565b811461279f57600080fd5b50565b6000813590506127b18161278b565b92915050565b6000806000606084860312156127d0576127cf61265e565b5b60006127de8682870161276c565b93505060206127ef8682870161276c565b9250506040612800868287016127a2565b9150509250925092565b6000819050919050565b61281d8161280a565b811461282857600080fd5b50565b60008135905061283a81612814565b92915050565b6000602082840312156128565761285561265e565b5b60006128648482850161282b565b91505092915050565b6128768161280a565b82525050565b6000602082019050612891600083018461286d565b92915050565b600080604083850312156128ae576128ad61265e565b5b60006128bc8582860161282b565b92505060206128cd8582860161276c565b9150509250929050565b6000602082840312156128ed576128ec61265e565b5b60006128fb848285016127a2565b91505092915050565b60006020828403121561291a5761291961265e565b5b60006129288482850161276c565b91505092915050565b61293a81612781565b82525050565b60006020820190506129556000830184612931565b92915050565b600080fd5b600080fd5b6000601f19601f8301169050919050565b7f4e487b7100000000000000000000000000000000000000000000000000000000600052604160045260246000fd5b6129ae82612965565b810181811067ffffffffffffffff821117156129cd576129cc612976565b5b80604052505050565b60006129e0612654565b90506129ec82826129a5565b919050565b600067ffffffffffffffff821115612a0c57612a0b612976565b5b612a1582612965565b9050602081019050919050565b82818337600083830152505050565b6000612a44612a3f846129f1565b6129d6565b905082815260208101848484011115612a6057612a5f612960565b5b612a6b848285612a22565b509392505050565b600082601f830112612a8857612a8761295b565b5b8135612a98848260208601612a31565b91505092915050565b60008060408385031215612ab857612ab761265e565b5b6000612ac68582860161276c565b925050602083013567ffffffffffffffff811115612ae757612ae6612663565b5b612af385828601612a73565b9150509250929050565b60008060008060808587031215612b1757612b1661265e565b5b6000612b25878288016127a2565b9450506020612b36878288016127a2565b9350506040612b47878288016127a2565b9250506060612b58878288016127a2565b91505092959194509250565b612b6d81612743565b82525050565b600060e082019050612b88600083018a612931565b612b956020830189612931565b612ba26040830188612b64565b612baf6060830187612931565b612bbc6080830186612931565b612bc960a08301856126f9565b612bd660c08301846126f9565b98975050505050505050565b600081519050919050565b600082825260208201905092915050565b6000819050602082019050919050565b612c1781612781565b82525050565b6000612c298383612c0e565b60208301905092915050565b6000602082019050919050565b6000612c4d82612be2565b612c578185612bed565b9350612c6283612bfe565b8060005b83811015612c93578151612c7a8882612c1d565b9750612c8583612c35565b925050600181019050612c66565b5085935050505092915050565b60006020820190508181036000830152612cba8184612c42565b905092915050565b600082825260208201905092915050565b7f496e697469616c697a61626c653a20636f6e747261637420697320616c72656160008201527f647920696e697469616c697a6564000000000000000000000000000000000000602082015250565b6000612d2f602e83612cc2565b9150612d3a82612cd3565b604082019050919050565b60006020820190508181036000830152612d5e81612d22565b9050919050565b6000819050919050565b600060ff82169050919050565b6000819050919050565b6000612da1612d9c612d9784612d65565b612d7c565b612d6f565b9050919050565b612db181612d86565b82525050565b6000602082019050612dcc6000830184612da8565b92915050565b7f496e76616c69642072656e74616c204944000000000000000000000000000000600082015250565b6000612e08601183612cc2565b9150612e1382612dd2565b602082019050919050565b60006020820190508181036000830152612e3781612dfb565b9050919050565b7f4e487b7100000000000000000000000000000000000000000000000000000000600052603260045260246000fd5b7f4e6f74207468652072656e746572206f6620746869732072656e74616c000000600082015250565b6000612ea3601d83612cc2565b9150612eae82612e6d565b602082019050919050565b60006020820190508181036000830152612ed281612e96565b9050919050565b7f52656e74616c206973206e6f7420616374697665000000000000000000000000600082015250565b6000612f0f601483612cc2565b9150612f1a82612ed9565b602082019050919050565b60006020820190508181036000830152612f3e81612f02565b9050919050565b7f52656e74616c20686173206e6f7420656e646564207965740000000000000000600082015250565b6000612f7b601883612cc2565b9150612f8682612f45565b602082019050919050565b60006020820190508181036000830152612faa81612f6e565b9050919050565b6000604082019050612fc66000830185612931565b612fd36020830184612931565b9392505050565b7f416363657373436f6e74726f6c3a2063616e206f6e6c792072656e6f756e636560008201527f20726f6c657320666f722073656c660000000000000000000000000000000000602082015250565b6000613036602f83612cc2565b915061304182612fda565b604082019050919050565b6000602082019050818103600083015261306581613029565b9050919050565b7f46756e6374696f6e206d7573742062652063616c6c6564207468726f7567682060008201527f64656c656761746563616c6c0000000000000000000000000000000000000000602082015250565b60006130c8602c83612cc2565b91506130d38261306c565b604082019050919050565b600060208201905081810360008301526130f7816130bb565b9050919050565b7f46756e6374696f6e206d7573742062652063616c6c6564207468726f7567682060008201527f6163746976652070726f78790000000000000000000000000000000000000000602082015250565b600061315a602c83612cc2565b9150613165826130fe565b604082019050919050565b600060208201905081810360008301526131898161314d565b9050919050565b60008151905061319f8161278b565b92915050565b6000806000606084860312156131be576131bd61265e565b5b60006131cc86828701613190565b93505060206131dd86828701613190565b92505060406131ee86828701613190565b9150509250925092565b7f555550535570677261646561626c653a206d757374206e6f742062652063616c60008201527f6c6564207468726f7567682064656c656761746563616c6c0000000000000000602082015250565b6000613254603883612cc2565b915061325f826131f8565b604082019050919050565b6000602082019050818103600083015261328381613247565b9050919050565b7f496e76616c69642072656e74616c206461746573000000000000000000000000600082015250565b60006132c0601483612cc2565b91506132cb8261328a565b602082019050919050565b600060208201905081810360008301526132ef816132b3565b9050919050565b7f546f6b656e20494420646f6573206e6f74206578697374000000000000000000600082015250565b600061332c601783612cc2565b9150613337826132f6565b602082019050919050565b6000602082019050818103600083015261335b8161331f565b9050919050565b7f436172206973206e6f7420617661696c61626c6520666f722072656e74616c00600082015250565b6000613398601f83612cc2565b91506133a382613362565b602082019050919050565b600060208201905081810360008301526133c78161338b565b9050919050565b6000815190506133dd81612755565b92915050565b6000602082840312156133f9576133f861265e565b5b6000613407848285016133ce565b91505092915050565b600060a0820190506134256000830188612931565b6134326020830187612931565b61343f6040830186612931565b61344c6060830185612931565b6134596080830184612931565b9695505050505050565b7f496e73756666696369656e742066756e64730000000000000000000000000000600082015250565b6000613499601283612cc2565b91506134a482613463565b602082019050919050565b600060208201905081810360008301526134c88161348c565b9050919050565b7f496e697469616c697a61626c653a20636f6e7472616374206973206e6f74206960008201527f6e697469616c697a696e67000000000000000000000000000000000000000000602082015250565b600061352b602b83612cc2565b9150613536826134cf565b604082019050919050565b6000602082019050818103600083015261355a8161351e565b9050919050565b60008151905061357081612814565b92915050565b60006020828403121561358c5761358b61265e565b5b600061359a84828501613561565b91505092915050565b7f45524331393637557067726164653a206e657720696d706c656d656e7461746960008201527f6f6e206973206e6f742055555053000000000000000000000000000000000000602082015250565b60006135ff602e83612cc2565b915061360a826135a3565b604082019050919050565b6000602082019050818103600083015261362e816135f2565b9050919050565b7f45524331393637557067726164653a20756e737570706f727465642070726f7860008201527f6961626c65555549440000000000000000000000000000000000000000000000602082015250565b6000613691602983612cc2565b915061369c82613635565b604082019050919050565b600060208201905081810360008301526136c081613684565b9050919050565b7f4e487b7100000000000000000000000000000000000000000000000000000000600052601160045260246000fd5b600061370182612781565b915061370c83612781565b92508282101561371f5761371e6136c7565b5b828203905092915050565b600061373582612781565b915061374083612781565b9250817fffffffffffffffffffffffffffffffffffffffffffffffffffffffffffffffff0483118215151615613779576137786136c7565b5b828202905092915050565b600061378f82612781565b915061379a83612781565b9250827fffffffffffffffffffffffffffffffffffffffffffffffffffffffffffffffff038211156137cf576137ce6136c7565b5b828201905092915050565b6000602082840312156137f0576137ef61265e565b5b60006137fe84828501613190565b91505092915050565b600061381282612781565b91507fffffffffffffffffffffffffffffffffffffffffffffffffffffffffffffffff821415613845576138446136c7565b5b600182019050919050565b7f4e487b7100000000000000000000000000000000000000000000000000000000600052601260045260246000fd5b600061388a82612781565b915061389583612781565b9250826138a5576138a4613850565b5b828204905092915050565b600081905092915050565b7f416363657373436f6e74726f6c3a206163636f756e7420000000000000000000600082015250565b60006138f16017836138b0565b91506138fc826138bb565b601782019050919050565b600081519050919050565b60005b83811015613930578082015181840152602081019050613915565b8381111561393f576000848401525b50505050565b600061395082613907565b61395a81856138b0565b935061396a818560208601613912565b80840191505092915050565b7f206973206d697373696e6720726f6c6520000000000000000000000000000000600082015250565b60006139ac6011836138b0565b91506139b782613976565b601182019050919050565b60006139cd826138e4565b91506139d98285613945565b91506139e48261399f565b91506139f08284613945565b91508190509392505050565b6000613a0782613907565b613a118185612cc2565b9350613a21818560208601613912565b613a2a81612965565b840191505092915050565b60006020820190508181036000830152613a4f81846139fc565b905092915050565b7f455243313936373a206e657720696d706c656d656e746174696f6e206973206e60008201527f6f74206120636f6e747261637400000000000000000000000000000000000000602082015250565b6000613ab3602d83612cc2565b9150613abe82613a57565b604082019050919050565b60006020820190508181036000830152613ae281613aa6565b9050919050565b6000613af482612781565b91506000821415613b0857613b076136c7565b5b600182039050919050565b7f537472696e67733a20686578206c656e67746820696e73756666696369656e74600082015250565b6000613b49602083612cc2565b9150613b5482613b13565b602082019050919050565b60006020820190508181036000830152613b7881613b3c565b9050919050565b600081519050919050565b600081905092915050565b6000613ba082613b7f565b613baa8185613b8a565b9350613bba818560208601613912565b80840191505092915050565b6000613bd28284613b95565b915081905092915050565b7f416464726573733a2063616c6c20746f206e6f6e2d636f6e7472616374000000600082015250565b6000613c13601d83612cc2565b9150613c1e82613bdd565b602082019050919050565b60006020820190508181036000830152613c4281613c06565b905091905056fe416464726573733a206c6f772d6c6576656c2064656c65676174652063616c6c206661696c6564a264697066735822122061636b9b25f6bffbf2833bddcd0c651165fe072555f8c735aafaa72d85d014b364736f6c63430008090033",
  "linkReferences": {},
  "deployedLinkReferences": {}
}