{
  "_format": "hh-sol-artifact-1",
  "contractName": "NFT",
  "sourceName": "contracts/NFT.sol",
  "abi": [
    {
      "anonymous": false,
      "inputs": [
        {
          "indexed": false,
          "internalType": "address",
          "name": "previousAdmin",
          "type": "address"
        },
        {
          "indexed": false,
          "internalType": "address",
          "name": "newAdmin",
          "type": "address"
        }
      ],
      "name": "AdminChanged",
      "type": "event"
    },
    {
      "anonymous": false,
      "inputs": [
        {
          "indexed": true,
          "internalType": "address",
          "name": "owner",
          "type": "address"
        },
        {
          "indexed": true,
          "internalType": "address",
          "name": "approved",
          "type": "address"
        },
        {
          "indexed": true,
          "internalType": "uint256",
          "name": "tokenId",
          "type": "uint256"
        }
      ],
      "name": "Approval",
      "type": "event"
    },
    {
      "anonymous": false,
      "inputs": [
        {
          "indexed": true,
          "internalType": "address",
          "name": "owner",
          "type": "address"
        },
        {
          "indexed": true,
          "internalType": "address",
          "name": "operator",
          "type": "address"
        },
        {
          "indexed": false,
          "internalType": "bool",
          "name": "approved",
          "type": "bool"
        }
      ],
      "name": "ApprovalForAll",
      "type": "event"
    },
    {
      "anonymous": false,
      "inputs": [
        {
          "indexed": false,
          "internalType": "uint256",
          "name": "_fromTokenId",
          "type": "uint256"
        },
        {
          "indexed": false,
          "internalType": "uint256",
          "name": "_toTokenId",
          "type": "uint256"
        }
      ],
      "name": "BatchMetadataUpdate",
      "type": "event"
    },
    {
      "anonymous": false,
      "inputs": [
        {
          "indexed": true,
          "internalType": "address",
          "name": "beacon",
          "type": "address"
        }
      ],
      "name": "BeaconUpgraded",
      "type": "event"
    },
    {
      "anonymous": false,
      "inputs": [
        {
          "indexed": false,
          "internalType": "uint8",
          "name": "version",
          "type": "uint8"
        }
      ],
      "name": "Initialized",
      "type": "event"
    },
    {
      "anonymous": false,
      "inputs": [
        {
          "indexed": false,
          "internalType": "uint256",
          "name": "_tokenId",
          "type": "uint256"
        }
      ],
      "name": "MetadataUpdate",
      "type": "event"
    },
    {
      "anonymous": false,
      "inputs": [
        {
          "indexed": true,
          "internalType": "bytes32",
          "name": "role",
          "type": "bytes32"
        },
        {
          "indexed": true,
          "internalType": "bytes32",
          "name": "previousAdminRole",
          "type": "bytes32"
        },
        {
          "indexed": true,
          "internalType": "bytes32",
          "name": "newAdminRole",
          "type": "bytes32"
        }
      ],
      "name": "RoleAdminChanged",
      "type": "event"
    },
    {
      "anonymous": false,
      "inputs": [
        {
          "indexed": true,
          "internalType": "bytes32",
          "name": "role",
          "type": "bytes32"
        },
        {
          "indexed": true,
          "internalType": "address",
          "name": "account",
          "type": "address"
        },
        {
          "indexed": true,
          "internalType": "address",
          "name": "sender",
          "type": "address"
        }
      ],
      "name": "RoleGranted",
      "type": "event"
    },
    {
      "anonymous": false,
      "inputs": [
        {
          "indexed": true,
          "internalType": "bytes32",
          "name": "role",
          "type": "bytes32"
        },
        {
          "indexed": true,
          "internalType": "address",
          "name": "account",
          "type": "address"
        },
        {
          "indexed": true,
          "internalType": "address",
          "name": "sender",
          "type": "address"
        }
      ],
      "name": "RoleRevoked",
      "type": "event"
    },
    {
      "anonymous": false,
      "inputs": [
        {
          "indexed": true,
          "internalType": "address",
          "name": "from",
          "type": "address"
        },
        {
          "indexed": true,
          "internalType": "address",
          "name": "to",
          "type": "address"
        },
        {
          "indexed": true,
          "internalType": "uint256",
          "name": "tokenId",
          "type": "uint256"
        }
      ],
      "name": "Transfer",
      "type": "event"
    },
    {
      "anonymous": false,
      "inputs": [
        {
          "indexed": true,
          "internalType": "address",
          "name": "implementation",
          "type": "address"
        }
      ],
      "name": "Upgraded",
      "type": "event"
    },
    {
      "inputs": [],
      "name": "DEFAULT_ADMIN_ROLE",
      "outputs": [
        {
          "internalType": "bytes32",
          "name": "",
          "type": "bytes32"
        }
      ],
      "stateMutability": "view",
      "type": "function"
    },
    {
      "inputs": [],
      "name": "MINTER_ROLE",
      "outputs": [
        {
          "internalType": "bytes32",
          "name": "",
          "type": "bytes32"
        }
      ],
      "stateMutability": "view",
      "type": "function"
    },
    {
      "inputs": [
        {
          "internalType": "address",
          "name": "to",
          "type": "address"
        },
        {
          "internalType": "uint256",
          "name": "tokenId",
          "type": "uint256"
        }
      ],
      "name": "approve",
      "outputs": [],
      "stateMutability": "nonpayable",
      "type": "function"
    },
    {
      "inputs": [
        {
          "internalType": "address",
          "name": "owner",
          "type": "address"
        }
      ],
      "name": "balanceOf",
      "outputs": [
        {
          "internalType": "uint256",
          "name": "",
          "type": "uint256"
        }
      ],
      "stateMutability": "view",
      "type": "function"
    },
    {
      "inputs": [
        {
          "internalType": "uint256",
          "name": "tokenId",
          "type": "uint256"
        }
      ],
      "name": "getApproved",
      "outputs": [
        {
          "internalType": "address",
          "name": "",
          "type": "address"
        }
      ],
      "stateMutability": "view",
      "type": "function"
    },
    {
      "inputs": [
        {
          "internalType": "uint256",
          "name": "index",
          "type": "uint256"
        }
      ],
      "name": "getCar",
      "outputs": [
        {
          "internalType": "uint256",
          "name": "tokenId",
          "type": "uint256"
        },
        {
          "internalType": "uint256",
          "name": "guarantee",
          "type": "uint256"
        },
        {
          "internalType": "uint256",
          "name": "interestRate",
          "type": "uint256"
        }
      ],
      "stateMutability": "view",
      "type": "function"
    },
    {
      "inputs": [
        {
          "internalType": "bytes32",
          "name": "role",
          "type": "bytes32"
        }
      ],
      "name": "getRoleAdmin",
      "outputs": [
        {
          "internalType": "bytes32",
          "name": "",
          "type": "bytes32"
        }
      ],
      "stateMutability": "view",
      "type": "function"
    },
    {
      "inputs": [
        {
          "internalType": "bytes32",
          "name": "role",
          "type": "bytes32"
        },
        {
          "internalType": "address",
          "name": "account",
          "type": "address"
        }
      ],
      "name": "grantRole",
      "outputs": [],
      "stateMutability": "nonpayable",
      "type": "function"
    },
    {
      "inputs": [
        {
          "internalType": "bytes32",
          "name": "role",
          "type": "bytes32"
        },
        {
          "internalType": "address",
          "name": "account",
          "type": "address"
        }
      ],
      "name": "hasRole",
      "outputs": [
        {
          "internalType": "bool",
          "name": "",
          "type": "bool"
        }
      ],
      "stateMutability": "view",
      "type": "function"
    },
    {
      "inputs": [],
      "name": "initialize",
      "outputs": [],
      "stateMutability": "nonpayable",
      "type": "function"
    },
    {
      "inputs": [
        {
          "internalType": "address",
          "name": "owner",
          "type": "address"
        },
        {
          "internalType": "address",
          "name": "operator",
          "type": "address"
        }
      ],
      "name": "isApprovedForAll",
      "outputs": [
        {
          "internalType": "bool",
          "name": "",
          "type": "bool"
        }
      ],
      "stateMutability": "view",
      "type": "function"
    },
    {
      "inputs": [],
      "name": "name",
      "outputs": [
        {
          "internalType": "string",
          "name": "",
          "type": "string"
        }
      ],
      "stateMutability": "view",
      "type": "function"
    },
    {
      "inputs": [
        {
          "internalType": "uint256",
          "name": "tokenId",
          "type": "uint256"
        }
      ],
      "name": "ownerOf",
      "outputs": [
        {
          "internalType": "address",
          "name": "",
          "type": "address"
        }
      ],
      "stateMutability": "view",
      "type": "function"
    },
    {
      "inputs": [],
      "name": "proxiableUUID",
      "outputs": [
        {
          "internalType": "bytes32",
          "name": "",
          "type": "bytes32"
        }
      ],
      "stateMutability": "view",
      "type": "function"
    },
    {
      "inputs": [
        {
          "internalType": "bytes32",
          "name": "role",
          "type": "bytes32"
        },
        {
          "internalType": "address",
          "name": "account",
          "type": "address"
        }
      ],
      "name": "renounceRole",
      "outputs": [],
      "stateMutability": "nonpayable",
      "type": "function"
    },
    {
      "inputs": [
        {
          "internalType": "bytes32",
          "name": "role",
          "type": "bytes32"
        },
        {
          "internalType": "address",
          "name": "account",
          "type": "address"
        }
      ],
      "name": "revokeRole",
      "outputs": [],
      "stateMutability": "nonpayable",
      "type": "function"
    },
    {
      "inputs": [
        {
          "internalType": "address",
          "name": "to",
          "type": "address"
        },
        {
          "internalType": "string",
          "name": "uri",
          "type": "string"
        },
        {
          "internalType": "uint256",
          "name": "guarantee",
          "type": "uint256"
        },
        {
          "internalType": "uint256",
          "name": "interestRate",
          "type": "uint256"
        }
      ],
      "name": "safeMint",
      "outputs": [],
      "stateMutability": "nonpayable",
      "type": "function"
    },
    {
      "inputs": [
        {
          "internalType": "address",
          "name": "from",
          "type": "address"
        },
        {
          "internalType": "address",
          "name": "to",
          "type": "address"
        },
        {
          "internalType": "uint256",
          "name": "tokenId",
          "type": "uint256"
        }
      ],
      "name": "safeTransferFrom",
      "outputs": [],
      "stateMutability": "nonpayable",
      "type": "function"
    },
    {
      "inputs": [
        {
          "internalType": "address",
          "name": "from",
          "type": "address"
        },
        {
          "internalType": "address",
          "name": "to",
          "type": "address"
        },
        {
          "internalType": "uint256",
          "name": "tokenId",
          "type": "uint256"
        },
        {
          "internalType": "bytes",
          "name": "data",
          "type": "bytes"
        }
      ],
      "name": "safeTransferFrom",
      "outputs": [],
      "stateMutability": "nonpayable",
      "type": "function"
    },
    {
      "inputs": [
        {
          "internalType": "address",
          "name": "operator",
          "type": "address"
        },
        {
          "internalType": "bool",
          "name": "approved",
          "type": "bool"
        }
      ],
      "name": "setApprovalForAll",
      "outputs": [],
      "stateMutability": "nonpayable",
      "type": "function"
    },
    {
      "inputs": [
        {
          "internalType": "bytes4",
          "name": "interfaceId",
          "type": "bytes4"
        }
      ],
      "name": "supportsInterface",
      "outputs": [
        {
          "internalType": "bool",
          "name": "",
          "type": "bool"
        }
      ],
      "stateMutability": "view",
      "type": "function"
    },
    {
      "inputs": [],
      "name": "symbol",
      "outputs": [
        {
          "internalType": "string",
          "name": "",
          "type": "string"
        }
      ],
      "stateMutability": "view",
      "type": "function"
    },
    {
      "inputs": [
        {
          "internalType": "uint256",
          "name": "tokenId",
          "type": "uint256"
        }
      ],
      "name": "tokenURI",
      "outputs": [
        {
          "internalType": "string",
          "name": "",
          "type": "string"
        }
      ],
      "stateMutability": "view",
      "type": "function"
    },
    {
      "inputs": [],
      "name": "totalSupply",
      "outputs": [
        {
          "internalType": "uint256",
          "name": "",
          "type": "uint256"
        }
      ],
      "stateMutability": "view",
      "type": "function"
    },
    {
      "inputs": [
        {
          "internalType": "address",
          "name": "from",
          "type": "address"
        },
        {
          "internalType": "address",
          "name": "to",
          "type": "address"
        },
        {
          "internalType": "uint256",
          "name": "tokenId",
          "type": "uint256"
        }
      ],
      "name": "transferFrom",
      "outputs": [],
      "stateMutability": "nonpayable",
      "type": "function"
    },
    {
      "inputs": [
        {
          "internalType": "address",
          "name": "newImplementation",
          "type": "address"
        }
      ],
      "name": "upgradeTo",
      "outputs": [],
      "stateMutability": "nonpayable",
      "type": "function"
    },
    {
      "inputs": [
        {
          "internalType": "address",
          "name": "newImplementation",
          "type": "address"
        },
        {
          "internalType": "bytes",
          "name": "data",
          "type": "bytes"
        }
      ],
      "name": "upgradeToAndCall",
      "outputs": [],
      "stateMutability": "payable",
      "type": "function"
    }
  ],
  "bytecode": "0x60a06040523073ffffffffffffffffffffffffffffffffffffffff1660809073ffffffffffffffffffffffffffffffffffffffff1681525034801561004357600080fd5b50608051614cc861007b60003960008181610aaa01528181610b3901528181610c5301528181610ce20152610d920152614cc86000f3fe60806040526004361061019c5760003560e01c806352d1902d116100ec578063a217fddf1161008a578063c87b56dd11610064578063c87b56dd146105c9578063d539139314610606578063d547741f14610631578063e985e9c51461065a5761019c565b8063a217fddf1461054c578063a22cb46514610577578063b88d4fde146105a05761019c565b806370a08231116100c657806370a08231146104905780638129fc1c146104cd57806391d14854146104e457806395d89b41146105215761019c565b806352d1902d146103e95780635e8be190146104145780636352211e146104535761019c565b8063248a9ca31161015957806336568abe1161013357806336568abe146103525780633659cfe61461037b57806342842e0e146103a45780634f1ef286146103cd5761019c565b8063248a9ca3146102c35780632923ce11146103005780632f2ff15d146103295761019c565b806301ffc9a7146101a157806306fdde03146101de578063081812fc14610209578063095ea7b31461024657806318160ddd1461026f57806323b872dd1461029a575b600080fd5b3480156101ad57600080fd5b506101c860048036038101906101c391906132c2565b610697565b6040516101d5919061330a565b60405180910390f35b3480156101ea57600080fd5b506101f36106a9565b60405161020091906133be565b60405180910390f35b34801561021557600080fd5b50610230600480360381019061022b9190613416565b61073b565b60405161023d9190613484565b60405180910390f35b34801561025257600080fd5b5061026d600480360381019061026891906134cb565b610781565b005b34801561027b57600080fd5b50610284610899565b604051610291919061351a565b60405180910390f35b3480156102a657600080fd5b506102c160048036038101906102bc9190613535565b6108a4565b005b3480156102cf57600080fd5b506102ea60048036038101906102e591906135be565b610904565b6040516102f791906135fa565b60405180910390f35b34801561030c57600080fd5b506103276004803603810190610322919061374a565b610924565b005b34801561033557600080fd5b50610350600480360381019061034b91906137cd565b610a04565b005b34801561035e57600080fd5b50610379600480360381019061037491906137cd565b610a25565b005b34801561038757600080fd5b506103a2600480360381019061039d919061380d565b610aa8565b005b3480156103b057600080fd5b506103cb60048036038101906103c69190613535565b610c31565b005b6103e760048036038101906103e291906138db565b610c51565b005b3480156103f557600080fd5b506103fe610d8e565b60405161040b91906135fa565b60405180910390f35b34801561042057600080fd5b5061043b60048036038101906104369190613416565b610e47565b60405161044a93929190613937565b60405180910390f35b34801561045f57600080fd5b5061047a60048036038101906104759190613416565b610ed8565b6040516104879190613484565b60405180910390f35b34801561049c57600080fd5b506104b760048036038101906104b2919061380d565b610f5f565b6040516104c4919061351a565b60405180910390f35b3480156104d957600080fd5b506104e2611017565b005b3480156104f057600080fd5b5061050b600480360381019061050691906137cd565b611210565b604051610518919061330a565b60405180910390f35b34801561052d57600080fd5b5061053661127b565b60405161054391906133be565b60405180910390f35b34801561055857600080fd5b5061056161130d565b60405161056e91906135fa565b60405180910390f35b34801561058357600080fd5b5061059e6004803603810190610599919061399a565b611314565b005b3480156105ac57600080fd5b506105c760048036038101906105c291906139da565b61132a565b005b3480156105d557600080fd5b506105f060048036038101906105eb9190613416565b61138c565b6040516105fd91906133be565b60405180910390f35b34801561061257600080fd5b5061061b61139e565b60405161062891906135fa565b60405180910390f35b34801561063d57600080fd5b50610658600480360381019061065391906137cd565b6113c2565b005b34801561066657600080fd5b50610681600480360381019061067c9190613a5d565b6113e3565b60405161068e919061330a565b60405180910390f35b60006106a282611477565b9050919050565b6060606580546106b890613acc565b80601f01602080910402602001604051908101604052809291908181526020018280546106e490613acc565b80156107315780601f1061070657610100808354040283529160200191610731565b820191906000526020600020905b81548152906001019060200180831161071457829003601f168201915b5050505050905090565b6000610746826114f1565b6069600083815260200190815260200160002060009054906101000a900473ffffffffffffffffffffffffffffffffffffffff169050919050565b600061078c82610ed8565b90508073ffffffffffffffffffffffffffffffffffffffff168373ffffffffffffffffffffffffffffffffffffffff1614156107fd576040517f08c379a00000000000000000000000000000000000000000000000000000000081526004016107f490613b70565b60405180910390fd5b8073ffffffffffffffffffffffffffffffffffffffff1661081c61153c565b73ffffffffffffffffffffffffffffffffffffffff16148061084b575061084a8161084561153c565b6113e3565b5b61088a576040517f08c379a000000000000000000000000000000000000000000000000000000000815260040161088190613c02565b60405180910390fd5b6108948383611544565b505050565b600061016054905090565b6108b56108af61153c565b826115fd565b6108f4576040517f08c379a00000000000000000000000000000000000000000000000000000000081526004016108eb90613c94565b60405180910390fd5b6108ff838383611692565b505050565b600060c96000838152602001908152602001600020600101549050919050565b7f9f2df0fed2c77648de5860a4cc508cd0818c85b8b8a1ab4ceeef8d981c8956a661094e8161198c565b600061095b61015f6119a0565b905061096786826119ae565b61097181866119cc565b610161604051806060016040528083815260200186815260200185815250908060018154018082558091505060019003906000526020600020906003020160009091909190915060008201518160000155602082015181600101556040820151816002015550506109e361015f611a77565b61016060008154809291906109f790613ce3565b9190505550505050505050565b610a0d82610904565b610a168161198c565b610a208383611a8d565b505050565b610a2d61153c565b73ffffffffffffffffffffffffffffffffffffffff168173ffffffffffffffffffffffffffffffffffffffff1614610a9a576040517f08c379a0000000000000000000000000000000000000000000000000000000008152600401610a9190613d9e565b60405180910390fd5b610aa48282611b6e565b5050565b7f000000000000000000000000000000000000000000000000000000000000000073ffffffffffffffffffffffffffffffffffffffff163073ffffffffffffffffffffffffffffffffffffffff161415610b37576040517f08c379a0000000000000000000000000000000000000000000000000000000008152600401610b2e90613e30565b60405180910390fd5b7f000000000000000000000000000000000000000000000000000000000000000073ffffffffffffffffffffffffffffffffffffffff16610b76611c50565b73ffffffffffffffffffffffffffffffffffffffff1614610bcc576040517f08c379a0000000000000000000000000000000000000000000000000000000008152600401610bc390613ec2565b60405180910390fd5b610bd581611ca7565b610c2e81600067ffffffffffffffff811115610bf457610bf361361f565b5b6040519080825280601f01601f191660200182016040528015610c265781602001600182028036833780820191505090505b506000611cb8565b50565b610c4c8383836040518060200160405280600081525061132a565b505050565b7f000000000000000000000000000000000000000000000000000000000000000073ffffffffffffffffffffffffffffffffffffffff163073ffffffffffffffffffffffffffffffffffffffff161415610ce0576040517f08c379a0000000000000000000000000000000000000000000000000000000008152600401610cd790613e30565b60405180910390fd5b7f000000000000000000000000000000000000000000000000000000000000000073ffffffffffffffffffffffffffffffffffffffff16610d1f611c50565b73ffffffffffffffffffffffffffffffffffffffff1614610d75576040517f08c379a0000000000000000000000000000000000000000000000000000000008152600401610d6c90613ec2565b60405180910390fd5b610d7e82611ca7565b610d8a82826001611cb8565b5050565b60007f000000000000000000000000000000000000000000000000000000000000000073ffffffffffffffffffffffffffffffffffffffff163073ffffffffffffffffffffffffffffffffffffffff1614610e1e576040517f08c379a0000000000000000000000000000000000000000000000000000000008152600401610e1590613f54565b60405180910390fd5b7f360894a13ba1a3210667c828492db98dca3e2076cc3735a920a3ca505d382bbc60001b905090565b6000806000610161805490508410610e94576040517f08c379a0000000000000000000000000000000000000000000000000000000008152600401610e8b90613fc0565b60405180910390fd5b60006101618581548110610eab57610eaa613fe0565b5b90600052602060002090600302019050806000015481600101548260020154935093509350509193909250565b600080610ee483611e35565b9050600073ffffffffffffffffffffffffffffffffffffffff168173ffffffffffffffffffffffffffffffffffffffff161415610f56576040517f08c379a0000000000000000000000000000000000000000000000000000000008152600401610f4d9061405b565b60405180910390fd5b80915050919050565b60008073ffffffffffffffffffffffffffffffffffffffff168273ffffffffffffffffffffffffffffffffffffffff161415610fd0576040517f08c379a0000000000000000000000000000000000000000000000000000000008152600401610fc7906140ed565b60405180910390fd5b606860008373ffffffffffffffffffffffffffffffffffffffff1673ffffffffffffffffffffffffffffffffffffffff168152602001908152602001600020549050919050565b60008060019054906101000a900460ff161590508080156110485750600160008054906101000a900460ff1660ff16105b80611075575061105730611e72565b1580156110745750600160008054906101000a900460ff1660ff16145b5b6110b4576040517f08c379a00000000000000000000000000000000000000000000000000000000081526004016110ab9061417f565b60405180910390fd5b60016000806101000a81548160ff021916908360ff16021790555080156110f1576001600060016101000a81548160ff0219169083151502179055505b6111656040518060400160405280600381526020017f4e465400000000000000000000000000000000000000000000000000000000008152506040518060400160405280600281526020017f5243000000000000000000000000000000000000000000000000000000000000815250611e95565b61116d611ef2565b611175611f43565b61117d611f94565b61118a6000801b33611fe5565b6111b47f9f2df0fed2c77648de5860a4cc508cd0818c85b8b8a1ab4ceeef8d981c8956a633611fe5565b801561120d5760008060016101000a81548160ff0219169083151502179055507f7f26b83ff96e1f2b6a682f133852f6798a09c465da95921460cefb3847402498600160405161120491906141f1565b60405180910390a15b50565b600060c9600084815260200190815260200160002060000160008373ffffffffffffffffffffffffffffffffffffffff1673ffffffffffffffffffffffffffffffffffffffff16815260200190815260200160002060009054906101000a900460ff16905092915050565b60606066805461128a90613acc565b80601f01602080910402602001604051908101604052809291908181526020018280546112b690613acc565b80156113035780601f106112d857610100808354040283529160200191611303565b820191906000526020600020905b8154815290600101906020018083116112e657829003601f168201915b5050505050905090565b6000801b81565b61132661131f61153c565b8383611ff3565b5050565b61133b61133561153c565b836115fd565b61137a576040517f08c379a000000000000000000000000000000000000000000000000000000000815260040161137190613c94565b60405180910390fd5b61138684848484612160565b50505050565b6060611397826121bc565b9050919050565b7f9f2df0fed2c77648de5860a4cc508cd0818c85b8b8a1ab4ceeef8d981c8956a681565b6113cb82610904565b6113d48161198c565b6113de8383611b6e565b505050565b6000606a60008473ffffffffffffffffffffffffffffffffffffffff1673ffffffffffffffffffffffffffffffffffffffff16815260200190815260200160002060008373ffffffffffffffffffffffffffffffffffffffff1673ffffffffffffffffffffffffffffffffffffffff16815260200190815260200160002060009054906101000a900460ff16905092915050565b60007f7965db0b000000000000000000000000000000000000000000000000000000007bffffffffffffffffffffffffffffffffffffffffffffffffffffffff1916827bffffffffffffffffffffffffffffffffffffffffffffffffffffffff191614806114ea57506114e9826122cf565b5b9050919050565b6114fa81612330565b611539576040517f08c379a00000000000000000000000000000000000000000000000000000000081526004016115309061405b565b60405180910390fd5b50565b600033905090565b816069600083815260200190815260200160002060006101000a81548173ffffffffffffffffffffffffffffffffffffffff021916908373ffffffffffffffffffffffffffffffffffffffff160217905550808273ffffffffffffffffffffffffffffffffffffffff166115b783610ed8565b73ffffffffffffffffffffffffffffffffffffffff167f8c5be1e5ebec7d5bd14f71427d1e84f3dd0314c0f7b2291e5b200ac8c7c3b92560405160405180910390a45050565b60008061160983610ed8565b90508073ffffffffffffffffffffffffffffffffffffffff168473ffffffffffffffffffffffffffffffffffffffff16148061164b575061164a81856113e3565b5b8061168957508373ffffffffffffffffffffffffffffffffffffffff166116718461073b565b73ffffffffffffffffffffffffffffffffffffffff16145b91505092915050565b8273ffffffffffffffffffffffffffffffffffffffff166116b282610ed8565b73ffffffffffffffffffffffffffffffffffffffff1614611708576040517f08c379a00000000000000000000000000000000000000000000000000000000081526004016116ff9061427e565b60405180910390fd5b600073ffffffffffffffffffffffffffffffffffffffff168273ffffffffffffffffffffffffffffffffffffffff161415611778576040517f08c379a000000000000000000000000000000000000000000000000000000000815260040161176f90614310565b60405180910390fd5b6117858383836001612371565b8273ffffffffffffffffffffffffffffffffffffffff166117a582610ed8565b73ffffffffffffffffffffffffffffffffffffffff16146117fb576040517f08c379a00000000000000000000000000000000000000000000000000000000081526004016117f29061427e565b60405180910390fd5b6069600082815260200190815260200160002060006101000a81549073ffffffffffffffffffffffffffffffffffffffff02191690556001606860008573ffffffffffffffffffffffffffffffffffffffff1673ffffffffffffffffffffffffffffffffffffffff168152602001908152602001600020600082825403925050819055506001606860008473ffffffffffffffffffffffffffffffffffffffff1673ffffffffffffffffffffffffffffffffffffffff16815260200190815260200160002060008282540192505081905550816067600083815260200190815260200160002060006101000a81548173ffffffffffffffffffffffffffffffffffffffff021916908373ffffffffffffffffffffffffffffffffffffffff160217905550808273ffffffffffffffffffffffffffffffffffffffff168473ffffffffffffffffffffffffffffffffffffffff167fddf252ad1be2c89b69c2b068fc378daa952ba7f163c4a11628f55a4df523b3ef60405160405180910390a46119878383836001612377565b505050565b61199d8161199861153c565b61237d565b50565b600081600001549050919050565b6119c8828260405180602001604052806000815250612402565b5050565b6119d582612330565b611a14576040517f08c379a0000000000000000000000000000000000000000000000000000000008152600401611a0b906143a2565b60405180910390fd5b80609760008481526020019081526020016000209080519060200190611a3b9291906131b3565b507ff8e1a15aba9398e019f0b49df1a4fde98ee17ae345cb5f6b5e2c27f5033e8ce782604051611a6b919061351a565b60405180910390a15050565b6001816000016000828254019250508190555050565b611a978282611210565b611b6a57600160c9600084815260200190815260200160002060000160008373ffffffffffffffffffffffffffffffffffffffff1673ffffffffffffffffffffffffffffffffffffffff16815260200190815260200160002060006101000a81548160ff021916908315150217905550611b0f61153c565b73ffffffffffffffffffffffffffffffffffffffff168173ffffffffffffffffffffffffffffffffffffffff16837f2f8788117e7eff1d82e926ec794901d17c78024a50270940304540a733656f0d60405160405180910390a45b5050565b611b788282611210565b15611c4c57600060c9600084815260200190815260200160002060000160008373ffffffffffffffffffffffffffffffffffffffff1673ffffffffffffffffffffffffffffffffffffffff16815260200190815260200160002060006101000a81548160ff021916908315150217905550611bf161153c565b73ffffffffffffffffffffffffffffffffffffffff168173ffffffffffffffffffffffffffffffffffffffff16837ff6391f5c32d9c69d2a47ea670b442974b53935d1edc7fd64eb21e047a839171b60405160405180910390a45b5050565b6000611c7e7f360894a13ba1a3210667c828492db98dca3e2076cc3735a920a3ca505d382bbc60001b61245d565b60000160009054906101000a900473ffffffffffffffffffffffffffffffffffffffff16905090565b6000801b611cb48161198c565b5050565b611ce47f4910fdfa16fed3260ed0e7147f7cc6da11a60208b5b9406d12a635614ffd914360001b612467565b60000160009054906101000a900460ff1615611d0857611d0383612471565b611e30565b8273ffffffffffffffffffffffffffffffffffffffff166352d1902d6040518163ffffffff1660e01b815260040160206040518083038186803b158015611d4e57600080fd5b505afa925050508015611d7f57506040513d601f19601f82011682018060405250810190611d7c91906143d7565b60015b611dbe576040517f08c379a0000000000000000000000000000000000000000000000000000000008152600401611db590614476565b60405180910390fd5b7f360894a13ba1a3210667c828492db98dca3e2076cc3735a920a3ca505d382bbc60001b8114611e23576040517f08c379a0000000000000000000000000000000000000000000000000000000008152600401611e1a90614508565b60405180910390fd5b50611e2f83838361252a565b5b505050565b60006067600083815260200190815260200160002060009054906101000a900473ffffffffffffffffffffffffffffffffffffffff169050919050565b6000808273ffffffffffffffffffffffffffffffffffffffff163b119050919050565b600060019054906101000a900460ff16611ee4576040517f08c379a0000000000000000000000000000000000000000000000000000000008152600401611edb9061459a565b60405180910390fd5b611eee8282612556565b5050565b600060019054906101000a900460ff16611f41576040517f08c379a0000000000000000000000000000000000000000000000000000000008152600401611f389061459a565b60405180910390fd5b565b600060019054906101000a900460ff16611f92576040517f08c379a0000000000000000000000000000000000000000000000000000000008152600401611f899061459a565b60405180910390fd5b565b600060019054906101000a900460ff16611fe3576040517f08c379a0000000000000000000000000000000000000000000000000000000008152600401611fda9061459a565b60405180910390fd5b565b611fef8282611a8d565b5050565b8173ffffffffffffffffffffffffffffffffffffffff168373ffffffffffffffffffffffffffffffffffffffff161415612062576040517f08c379a000000000000000000000000000000000000000000000000000000000815260040161205990614606565b60405180910390fd5b80606a60008573ffffffffffffffffffffffffffffffffffffffff1673ffffffffffffffffffffffffffffffffffffffff16815260200190815260200160002060008473ffffffffffffffffffffffffffffffffffffffff1673ffffffffffffffffffffffffffffffffffffffff16815260200190815260200160002060006101000a81548160ff0219169083151502179055508173ffffffffffffffffffffffffffffffffffffffff168373ffffffffffffffffffffffffffffffffffffffff167f17307eab39ab6107e8899845ad3d59bd9653f200f220920489ca2b5937696c3183604051612153919061330a565b60405180910390a3505050565b61216b848484611692565b612177848484846125d7565b6121b6576040517f08c379a00000000000000000000000000000000000000000000000000000000081526004016121ad90614698565b60405180910390fd5b50505050565b60606121c7826114f1565b60006097600084815260200190815260200160002080546121e790613acc565b80601f016020809104026020016040519081016040528092919081815260200182805461221390613acc565b80156122605780601f1061223557610100808354040283529160200191612260565b820191906000526020600020905b81548152906001019060200180831161224357829003601f168201915b50505050509050600061227161276e565b90506000815114156122875781925050506122ca565b6000825111156122bc5780826040516020016122a49291906146f4565b604051602081830303815290604052925050506122ca565b6122c584612785565b925050505b919050565b6000634906490660e01b7bffffffffffffffffffffffffffffffffffffffffffffffffffffffff1916827bffffffffffffffffffffffffffffffffffffffffffffffffffffffff191614806123295750612328826127ed565b5b9050919050565b60008073ffffffffffffffffffffffffffffffffffffffff1661235283611e35565b73ffffffffffffffffffffffffffffffffffffffff1614159050919050565b50505050565b50505050565b6123878282611210565b6123fe57612394816128cf565b6123a28360001c60206128fc565b6040516020016123b39291906147b0565b6040516020818303038152906040526040517f08c379a00000000000000000000000000000000000000000000000000000000081526004016123f591906133be565b60405180910390fd5b5050565b61240c8383612b38565b61241960008484846125d7565b612458576040517f08c379a000000000000000000000000000000000000000000000000000000000815260040161244f90614698565b60405180910390fd5b505050565b6000819050919050565b6000819050919050565b61247a81611e72565b6124b9576040517f08c379a00000000000000000000000000000000000000000000000000000000081526004016124b09061485c565b60405180910390fd5b806124e67f360894a13ba1a3210667c828492db98dca3e2076cc3735a920a3ca505d382bbc60001b61245d565b60000160006101000a81548173ffffffffffffffffffffffffffffffffffffffff021916908373ffffffffffffffffffffffffffffffffffffffff16021790555050565b61253383612d56565b6000825111806125405750805b156125515761254f8383612da5565b505b505050565b600060019054906101000a900460ff166125a5576040517f08c379a000000000000000000000000000000000000000000000000000000000815260040161259c9061459a565b60405180910390fd5b81606590805190602001906125bb9291906131b3565b5080606690805190602001906125d29291906131b3565b505050565b60006125f88473ffffffffffffffffffffffffffffffffffffffff16611e72565b15612761578373ffffffffffffffffffffffffffffffffffffffff1663150b7a0261262161153c565b8786866040518563ffffffff1660e01b815260040161264394939291906148d1565b602060405180830381600087803b15801561265d57600080fd5b505af192505050801561268e57506040513d601f19601f8201168201806040525081019061268b9190614932565b60015b612711573d80600081146126be576040519150601f19603f3d011682016040523d82523d6000602084013e6126c3565b606091505b50600081511415612709576040517f08c379a000000000000000000000000000000000000000000000000000000000815260040161270090614698565b60405180910390fd5b805181602001fd5b63150b7a0260e01b7bffffffffffffffffffffffffffffffffffffffffffffffffffffffff1916817bffffffffffffffffffffffffffffffffffffffffffffffffffffffff191614915050612766565b600190505b949350505050565b606060405180602001604052806000815250905090565b6060612790826114f1565b600061279a61276e565b905060008151116127ba57604051806020016040528060008152506127e5565b806127c484612dd2565b6040516020016127d59291906146f4565b6040516020818303038152906040525b915050919050565b60007f80ac58cd000000000000000000000000000000000000000000000000000000007bffffffffffffffffffffffffffffffffffffffffffffffffffffffff1916827bffffffffffffffffffffffffffffffffffffffffffffffffffffffff191614806128b857507f5b5e139f000000000000000000000000000000000000000000000000000000007bffffffffffffffffffffffffffffffffffffffffffffffffffffffff1916827bffffffffffffffffffffffffffffffffffffffffffffffffffffffff1916145b806128c857506128c782612eaa565b5b9050919050565b60606128f58273ffffffffffffffffffffffffffffffffffffffff16601460ff166128fc565b9050919050565b60606000600283600261290f919061495f565b61291991906149b9565b67ffffffffffffffff8111156129325761293161361f565b5b6040519080825280601f01601f1916602001820160405280156129645781602001600182028036833780820191505090505b5090507f30000000000000000000000000000000000000000000000000000000000000008160008151811061299c5761299b613fe0565b5b60200101907effffffffffffffffffffffffffffffffffffffffffffffffffffffffffffff1916908160001a9053507f780000000000000000000000000000000000000000000000000000000000000081600181518110612a00576129ff613fe0565b5b60200101907effffffffffffffffffffffffffffffffffffffffffffffffffffffffffffff1916908160001a90535060006001846002612a40919061495f565b612a4a91906149b9565b90505b6001811115612aea577f3031323334353637383961626364656600000000000000000000000000000000600f861660108110612a8c57612a8b613fe0565b5b1a60f81b828281518110612aa357612aa2613fe0565b5b60200101907effffffffffffffffffffffffffffffffffffffffffffffffffffffffffffff1916908160001a905350600485901c945080612ae390614a0f565b9050612a4d565b5060008414612b2e576040517f08c379a0000000000000000000000000000000000000000000000000000000008152600401612b2590614a85565b60405180910390fd5b8091505092915050565b600073ffffffffffffffffffffffffffffffffffffffff168273ffffffffffffffffffffffffffffffffffffffff161415612ba8576040517f08c379a0000000000000000000000000000000000000000000000000000000008152600401612b9f90614af1565b60405180910390fd5b612bb181612330565b15612bf1576040517f08c379a0000000000000000000000000000000000000000000000000000000008152600401612be890614b5d565b60405180910390fd5b612bff600083836001612371565b612c0881612330565b15612c48576040517f08c379a0000000000000000000000000000000000000000000000000000000008152600401612c3f90614b5d565b60405180910390fd5b6001606860008473ffffffffffffffffffffffffffffffffffffffff1673ffffffffffffffffffffffffffffffffffffffff16815260200190815260200160002060008282540192505081905550816067600083815260200190815260200160002060006101000a81548173ffffffffffffffffffffffffffffffffffffffff021916908373ffffffffffffffffffffffffffffffffffffffff160217905550808273ffffffffffffffffffffffffffffffffffffffff16600073ffffffffffffffffffffffffffffffffffffffff167fddf252ad1be2c89b69c2b068fc378daa952ba7f163c4a11628f55a4df523b3ef60405160405180910390a4612d52600083836001612377565b5050565b612d5f81612471565b8073ffffffffffffffffffffffffffffffffffffffff167fbc7cd75a20ee27fd9adebab32041f755214dbc6bffa90cc0225b39da2e5c2d3b60405160405180910390a250565b6060612dca8383604051806060016040528060278152602001614c6c60279139612f14565b905092915050565b606060006001612de184612f9a565b01905060008167ffffffffffffffff811115612e0057612dff61361f565b5b6040519080825280601f01601f191660200182016040528015612e325781602001600182028036833780820191505090505b509050600082602001820190505b600115612e9f578080600190039150507f3031323334353637383961626364656600000000000000000000000000000000600a86061a8153600a8581612e8957612e88614b7d565b5b0494506000851415612e9a57612e9f565b612e40565b819350505050919050565b60007f01ffc9a7000000000000000000000000000000000000000000000000000000007bffffffffffffffffffffffffffffffffffffffffffffffffffffffff1916827bffffffffffffffffffffffffffffffffffffffffffffffffffffffff1916149050919050565b60606000808573ffffffffffffffffffffffffffffffffffffffff1685604051612f3e9190614be8565b600060405180830381855af49150503d8060008114612f79576040519150601f19603f3d011682016040523d82523d6000602084013e612f7e565b606091505b5091509150612f8f868383876130ed565b925050509392505050565b600080600090507a184f03e93ff9f4daa797ed6e38ed64bf6a1f0100000000000000008310612ff8577a184f03e93ff9f4daa797ed6e38ed64bf6a1f0100000000000000008381612fee57612fed614b7d565b5b0492506040810190505b6d04ee2d6d415b85acef81000000008310613035576d04ee2d6d415b85acef8100000000838161302b5761302a614b7d565b5b0492506020810190505b662386f26fc10000831061306457662386f26fc10000838161305a57613059614b7d565b5b0492506010810190505b6305f5e100831061308d576305f5e100838161308357613082614b7d565b5b0492506008810190505b61271083106130b25761271083816130a8576130a7614b7d565b5b0492506004810190505b606483106130d557606483816130cb576130ca614b7d565b5b0492506002810190505b600a83106130e4576001810190505b80915050919050565b60608315613150576000835114156131485761310885611e72565b613147576040517f08c379a000000000000000000000000000000000000000000000000000000000815260040161313e90614c4b565b60405180910390fd5b5b82905061315b565b61315a8383613163565b5b949350505050565b6000825111156131765781518083602001fd5b806040517f08c379a00000000000000000000000000000000000000000000000000000000081526004016131aa91906133be565b60405180910390fd5b8280546131bf90613acc565b90600052602060002090601f0160209004810192826131e15760008555613228565b82601f106131fa57805160ff1916838001178555613228565b82800160010185558215613228579182015b8281111561322757825182559160200191906001019061320c565b5b5090506132359190613239565b5090565b5b8082111561325257600081600090555060010161323a565b5090565b6000604051905090565b600080fd5b600080fd5b60007fffffffff0000000000000000000000000000000000000000000000000000000082169050919050565b61329f8161326a565b81146132aa57600080fd5b50565b6000813590506132bc81613296565b92915050565b6000602082840312156132d8576132d7613260565b5b60006132e6848285016132ad565b91505092915050565b60008115159050919050565b613304816132ef565b82525050565b600060208201905061331f60008301846132fb565b92915050565b600081519050919050565b600082825260208201905092915050565b60005b8381101561335f578082015181840152602081019050613344565b8381111561336e576000848401525b50505050565b6000601f19601f8301169050919050565b600061339082613325565b61339a8185613330565b93506133aa818560208601613341565b6133b381613374565b840191505092915050565b600060208201905081810360008301526133d88184613385565b905092915050565b6000819050919050565b6133f3816133e0565b81146133fe57600080fd5b50565b600081359050613410816133ea565b92915050565b60006020828403121561342c5761342b613260565b5b600061343a84828501613401565b91505092915050565b600073ffffffffffffffffffffffffffffffffffffffff82169050919050565b600061346e82613443565b9050919050565b61347e81613463565b82525050565b60006020820190506134996000830184613475565b92915050565b6134a881613463565b81146134b357600080fd5b50565b6000813590506134c58161349f565b92915050565b600080604083850312156134e2576134e1613260565b5b60006134f0858286016134b6565b925050602061350185828601613401565b9150509250929050565b613514816133e0565b82525050565b600060208201905061352f600083018461350b565b92915050565b60008060006060848603121561354e5761354d613260565b5b600061355c868287016134b6565b935050602061356d868287016134b6565b925050604061357e86828701613401565b9150509250925092565b6000819050919050565b61359b81613588565b81146135a657600080fd5b50565b6000813590506135b881613592565b92915050565b6000602082840312156135d4576135d3613260565b5b60006135e2848285016135a9565b91505092915050565b6135f481613588565b82525050565b600060208201905061360f60008301846135eb565b92915050565b600080fd5b600080fd5b7f4e487b7100000000000000000000000000000000000000000000000000000000600052604160045260246000fd5b61365782613374565b810181811067ffffffffffffffff821117156136765761367561361f565b5b80604052505050565b6000613689613256565b9050613695828261364e565b919050565b600067ffffffffffffffff8211156136b5576136b461361f565b5b6136be82613374565b9050602081019050919050565b82818337600083830152505050565b60006136ed6136e88461369a565b61367f565b9050828152602081018484840111156137095761370861361a565b5b6137148482856136cb565b509392505050565b600082601f83011261373157613730613615565b5b81356137418482602086016136da565b91505092915050565b6000806000806080858703121561376457613763613260565b5b6000613772878288016134b6565b945050602085013567ffffffffffffffff81111561379357613792613265565b5b61379f8782880161371c565b93505060406137b087828801613401565b92505060606137c187828801613401565b91505092959194509250565b600080604083850312156137e4576137e3613260565b5b60006137f2858286016135a9565b9250506020613803858286016134b6565b9150509250929050565b60006020828403121561382357613822613260565b5b6000613831848285016134b6565b91505092915050565b600067ffffffffffffffff8211156138555761385461361f565b5b61385e82613374565b9050602081019050919050565b600061387e6138798461383a565b61367f565b90508281526020810184848401111561389a5761389961361a565b5b6138a58482856136cb565b509392505050565b600082601f8301126138c2576138c1613615565b5b81356138d284826020860161386b565b91505092915050565b600080604083850312156138f2576138f1613260565b5b6000613900858286016134b6565b925050602083013567ffffffffffffffff81111561392157613920613265565b5b61392d858286016138ad565b9150509250929050565b600060608201905061394c600083018661350b565b613959602083018561350b565b613966604083018461350b565b949350505050565b613977816132ef565b811461398257600080fd5b50565b6000813590506139948161396e565b92915050565b600080604083850312156139b1576139b0613260565b5b60006139bf858286016134b6565b92505060206139d085828601613985565b9150509250929050565b600080600080608085870312156139f4576139f3613260565b5b6000613a02878288016134b6565b9450506020613a13878288016134b6565b9350506040613a2487828801613401565b925050606085013567ffffffffffffffff811115613a4557613a44613265565b5b613a51878288016138ad565b91505092959194509250565b60008060408385031215613a7457613a73613260565b5b6000613a82858286016134b6565b9250506020613a93858286016134b6565b9150509250929050565b7f4e487b7100000000000000000000000000000000000000000000000000000000600052602260045260246000fd5b60006002820490506001821680613ae457607f821691505b60208210811415613af857613af7613a9d565b5b50919050565b7f4552433732313a20617070726f76616c20746f2063757272656e74206f776e6560008201527f7200000000000000000000000000000000000000000000000000000000000000602082015250565b6000613b5a602183613330565b9150613b6582613afe565b604082019050919050565b60006020820190508181036000830152613b8981613b4d565b9050919050565b7f4552433732313a20617070726f76652063616c6c6572206973206e6f7420746f60008201527f6b656e206f776e6572206f7220617070726f76656420666f7220616c6c000000602082015250565b6000613bec603d83613330565b9150613bf782613b90565b604082019050919050565b60006020820190508181036000830152613c1b81613bdf565b9050919050565b7f4552433732313a2063616c6c6572206973206e6f7420746f6b656e206f776e6560008201527f72206f7220617070726f76656400000000000000000000000000000000000000602082015250565b6000613c7e602d83613330565b9150613c8982613c22565b604082019050919050565b60006020820190508181036000830152613cad81613c71565b9050919050565b7f4e487b7100000000000000000000000000000000000000000000000000000000600052601160045260246000fd5b6000613cee826133e0565b91507fffffffffffffffffffffffffffffffffffffffffffffffffffffffffffffffff821415613d2157613d20613cb4565b5b600182019050919050565b7f416363657373436f6e74726f6c3a2063616e206f6e6c792072656e6f756e636560008201527f20726f6c657320666f722073656c660000000000000000000000000000000000602082015250565b6000613d88602f83613330565b9150613d9382613d2c565b604082019050919050565b60006020820190508181036000830152613db781613d7b565b9050919050565b7f46756e6374696f6e206d7573742062652063616c6c6564207468726f7567682060008201527f64656c656761746563616c6c0000000000000000000000000000000000000000602082015250565b6000613e1a602c83613330565b9150613e2582613dbe565b604082019050919050565b60006020820190508181036000830152613e4981613e0d565b9050919050565b7f46756e6374696f6e206d7573742062652063616c6c6564207468726f7567682060008201527f6163746976652070726f78790000000000000000000000000000000000000000602082015250565b6000613eac602c83613330565b9150613eb782613e50565b604082019050919050565b60006020820190508181036000830152613edb81613e9f565b9050919050565b7f555550535570677261646561626c653a206d757374206e6f742062652063616c60008201527f6c6564207468726f7567682064656c656761746563616c6c0000000000000000602082015250565b6000613f3e603883613330565b9150613f4982613ee2565b604082019050919050565b60006020820190508181036000830152613f6d81613f31565b9050919050565b7f496e76616c69642063617220696e646578000000000000000000000000000000600082015250565b6000613faa601183613330565b9150613fb582613f74565b602082019050919050565b60006020820190508181036000830152613fd981613f9d565b9050919050565b7f4e487b7100000000000000000000000000000000000000000000000000000000600052603260045260246000fd5b7f4552433732313a20696e76616c696420746f6b656e2049440000000000000000600082015250565b6000614045601883613330565b91506140508261400f565b602082019050919050565b6000602082019050818103600083015261407481614038565b9050919050565b7f4552433732313a2061646472657373207a65726f206973206e6f74206120766160008201527f6c6964206f776e65720000000000000000000000000000000000000000000000602082015250565b60006140d7602983613330565b91506140e28261407b565b604082019050919050565b60006020820190508181036000830152614106816140ca565b9050919050565b7f496e697469616c697a61626c653a20636f6e747261637420697320616c72656160008201527f647920696e697469616c697a6564000000000000000000000000000000000000602082015250565b6000614169602e83613330565b91506141748261410d565b604082019050919050565b600060208201905081810360008301526141988161415c565b9050919050565b6000819050919050565b600060ff82169050919050565b6000819050919050565b60006141db6141d66141d18461419f565b6141b6565b6141a9565b9050919050565b6141eb816141c0565b82525050565b600060208201905061420660008301846141e2565b92915050565b7f4552433732313a207472616e736665722066726f6d20696e636f72726563742060008201527f6f776e6572000000000000000000000000000000000000000000000000000000602082015250565b6000614268602583613330565b91506142738261420c565b604082019050919050565b600060208201905081810360008301526142978161425b565b9050919050565b7f4552433732313a207472616e7366657220746f20746865207a65726f2061646460008201527f7265737300000000000000000000000000000000000000000000000000000000602082015250565b60006142fa602483613330565b91506143058261429e565b604082019050919050565b60006020820190508181036000830152614329816142ed565b9050919050565b7f45524337323155524953746f726167653a2055524920736574206f66206e6f6e60008201527f6578697374656e7420746f6b656e000000000000000000000000000000000000602082015250565b600061438c602e83613330565b915061439782614330565b604082019050919050565b600060208201905081810360008301526143bb8161437f565b9050919050565b6000815190506143d181613592565b92915050565b6000602082840312156143ed576143ec613260565b5b60006143fb848285016143c2565b91505092915050565b7f45524331393637557067726164653a206e657720696d706c656d656e7461746960008201527f6f6e206973206e6f742055555053000000000000000000000000000000000000602082015250565b6000614460602e83613330565b915061446b82614404565b604082019050919050565b6000602082019050818103600083015261448f81614453565b9050919050565b7f45524331393637557067726164653a20756e737570706f727465642070726f7860008201527f6961626c65555549440000000000000000000000000000000000000000000000602082015250565b60006144f2602983613330565b91506144fd82614496565b604082019050919050565b60006020820190508181036000830152614521816144e5565b9050919050565b7f496e697469616c697a61626c653a20636f6e7472616374206973206e6f74206960008201527f6e697469616c697a696e67000000000000000000000000000000000000000000602082015250565b6000614584602b83613330565b915061458f82614528565b604082019050919050565b600060208201905081810360008301526145b381614577565b9050919050565b7f4552433732313a20617070726f766520746f2063616c6c657200000000000000600082015250565b60006145f0601983613330565b91506145fb826145ba565b602082019050919050565b6000602082019050818103600083015261461f816145e3565b9050919050565b7f4552433732313a207472616e7366657220746f206e6f6e20455243373231526560008201527f63656976657220696d706c656d656e7465720000000000000000000000000000602082015250565b6000614682603283613330565b915061468d82614626565b604082019050919050565b600060208201905081810360008301526146b181614675565b9050919050565b600081905092915050565b60006146ce82613325565b6146d881856146b8565b93506146e8818560208601613341565b80840191505092915050565b600061470082856146c3565b915061470c82846146c3565b91508190509392505050565b7f416363657373436f6e74726f6c3a206163636f756e7420000000000000000000600082015250565b600061474e6017836146b8565b915061475982614718565b601782019050919050565b7f206973206d697373696e6720726f6c6520000000000000000000000000000000600082015250565b600061479a6011836146b8565b91506147a582614764565b601182019050919050565b60006147bb82614741565b91506147c782856146c3565b91506147d28261478d565b91506147de82846146c3565b91508190509392505050565b7f455243313936373a206e657720696d706c656d656e746174696f6e206973206e60008201527f6f74206120636f6e747261637400000000000000000000000000000000000000602082015250565b6000614846602d83613330565b9150614851826147ea565b604082019050919050565b6000602082019050818103600083015261487581614839565b9050919050565b600081519050919050565b600082825260208201905092915050565b60006148a38261487c565b6148ad8185614887565b93506148bd818560208601613341565b6148c681613374565b840191505092915050565b60006080820190506148e66000830187613475565b6148f36020830186613475565b614900604083018561350b565b81810360608301526149128184614898565b905095945050505050565b60008151905061492c81613296565b92915050565b60006020828403121561494857614947613260565b5b60006149568482850161491d565b91505092915050565b600061496a826133e0565b9150614975836133e0565b9250817fffffffffffffffffffffffffffffffffffffffffffffffffffffffffffffffff04831182151516156149ae576149ad613cb4565b5b828202905092915050565b60006149c4826133e0565b91506149cf836133e0565b9250827fffffffffffffffffffffffffffffffffffffffffffffffffffffffffffffffff03821115614a0457614a03613cb4565b5b828201905092915050565b6000614a1a826133e0565b91506000821415614a2e57614a2d613cb4565b5b600182039050919050565b7f537472696e67733a20686578206c656e67746820696e73756666696369656e74600082015250565b6000614a6f602083613330565b9150614a7a82614a39565b602082019050919050565b60006020820190508181036000830152614a9e81614a62565b9050919050565b7f4552433732313a206d696e7420746f20746865207a65726f2061646472657373600082015250565b6000614adb602083613330565b9150614ae682614aa5565b602082019050919050565b60006020820190508181036000830152614b0a81614ace565b9050919050565b7f4552433732313a20746f6b656e20616c7265616479206d696e74656400000000600082015250565b6000614b47601c83613330565b9150614b5282614b11565b602082019050919050565b60006020820190508181036000830152614b7681614b3a565b9050919050565b7f4e487b7100000000000000000000000000000000000000000000000000000000600052601260045260246000fd5b600081905092915050565b6000614bc28261487c565b614bcc8185614bac565b9350614bdc818560208601613341565b80840191505092915050565b6000614bf48284614bb7565b915081905092915050565b7f416464726573733a2063616c6c20746f206e6f6e2d636f6e7472616374000000600082015250565b6000614c35601d83613330565b9150614c4082614bff565b602082019050919050565b60006020820190508181036000830152614c6481614c28565b905091905056fe416464726573733a206c6f772d6c6576656c2064656c65676174652063616c6c206661696c6564a26469706673582212208e7cd93958c3039a43dc9379cc9c476fc89d39479ca62cf98dbad87427e60dbc64736f6c63430008090033",
  "linkReferences": {},
  "deployedLinkReferences": {}
}