{
  "_format": "hh-sol-artifact-1",
  "contractName": "NFT",
  "sourceName": "contracts/NFT.sol",
  "abi": [
    {
      "anonymous": false,
      "inputs": [
        {
          "indexed": false,
          "internalType": "address",
          "name": "previousAdmin",
          "type": "address"
        },
        {
          "indexed": false,
          "internalType": "address",
          "name": "newAdmin",
          "type": "address"
        }
      ],
      "name": "AdminChanged",
      "type": "event"
    },
    {
      "anonymous": false,
      "inputs": [
        {
          "indexed": true,
          "internalType": "address",
          "name": "owner",
          "type": "address"
        },
        {
          "indexed": true,
          "internalType": "address",
          "name": "approved",
          "type": "address"
        },
        {
          "indexed": true,
          "internalType": "uint256",
          "name": "tokenId",
          "type": "uint256"
        }
      ],
      "name": "Approval",
      "type": "event"
    },
    {
      "anonymous": false,
      "inputs": [
        {
          "indexed": true,
          "internalType": "address",
          "name": "owner",
          "type": "address"
        },
        {
          "indexed": true,
          "internalType": "address",
          "name": "operator",
          "type": "address"
        },
        {
          "indexed": false,
          "internalType": "bool",
          "name": "approved",
          "type": "bool"
        }
      ],
      "name": "ApprovalForAll",
      "type": "event"
    },
    {
      "anonymous": false,
      "inputs": [
        {
          "indexed": false,
          "internalType": "uint256",
          "name": "_fromTokenId",
          "type": "uint256"
        },
        {
          "indexed": false,
          "internalType": "uint256",
          "name": "_toTokenId",
          "type": "uint256"
        }
      ],
      "name": "BatchMetadataUpdate",
      "type": "event"
    },
    {
      "anonymous": false,
      "inputs": [
        {
          "indexed": true,
          "internalType": "address",
          "name": "beacon",
          "type": "address"
        }
      ],
      "name": "BeaconUpgraded",
      "type": "event"
    },
    {
      "anonymous": false,
      "inputs": [
        {
          "indexed": false,
          "internalType": "uint8",
          "name": "version",
          "type": "uint8"
        }
      ],
      "name": "Initialized",
      "type": "event"
    },
    {
      "anonymous": false,
      "inputs": [
        {
          "indexed": false,
          "internalType": "uint256",
          "name": "_tokenId",
          "type": "uint256"
        }
      ],
      "name": "MetadataUpdate",
      "type": "event"
    },
    {
      "anonymous": false,
      "inputs": [
        {
          "indexed": true,
          "internalType": "bytes32",
          "name": "role",
          "type": "bytes32"
        },
        {
          "indexed": true,
          "internalType": "bytes32",
          "name": "previousAdminRole",
          "type": "bytes32"
        },
        {
          "indexed": true,
          "internalType": "bytes32",
          "name": "newAdminRole",
          "type": "bytes32"
        }
      ],
      "name": "RoleAdminChanged",
      "type": "event"
    },
    {
      "anonymous": false,
      "inputs": [
        {
          "indexed": true,
          "internalType": "bytes32",
          "name": "role",
          "type": "bytes32"
        },
        {
          "indexed": true,
          "internalType": "address",
          "name": "account",
          "type": "address"
        },
        {
          "indexed": true,
          "internalType": "address",
          "name": "sender",
          "type": "address"
        }
      ],
      "name": "RoleGranted",
      "type": "event"
    },
    {
      "anonymous": false,
      "inputs": [
        {
          "indexed": true,
          "internalType": "bytes32",
          "name": "role",
          "type": "bytes32"
        },
        {
          "indexed": true,
          "internalType": "address",
          "name": "account",
          "type": "address"
        },
        {
          "indexed": true,
          "internalType": "address",
          "name": "sender",
          "type": "address"
        }
      ],
      "name": "RoleRevoked",
      "type": "event"
    },
    {
      "anonymous": false,
      "inputs": [
        {
          "indexed": true,
          "internalType": "address",
          "name": "from",
          "type": "address"
        },
        {
          "indexed": true,
          "internalType": "address",
          "name": "to",
          "type": "address"
        },
        {
          "indexed": true,
          "internalType": "uint256",
          "name": "tokenId",
          "type": "uint256"
        }
      ],
      "name": "Transfer",
      "type": "event"
    },
    {
      "anonymous": false,
      "inputs": [
        {
          "indexed": true,
          "internalType": "address",
          "name": "implementation",
          "type": "address"
        }
      ],
      "name": "Upgraded",
      "type": "event"
    },
    {
      "inputs": [],
      "name": "DEFAULT_ADMIN_ROLE",
      "outputs": [
        {
          "internalType": "bytes32",
          "name": "",
          "type": "bytes32"
        }
      ],
      "stateMutability": "view",
      "type": "function"
    },
    {
      "inputs": [],
      "name": "MINTER_ROLE",
      "outputs": [
        {
          "internalType": "bytes32",
          "name": "",
          "type": "bytes32"
        }
      ],
      "stateMutability": "view",
      "type": "function"
    },
    {
      "inputs": [
        {
          "internalType": "address",
          "name": "to",
          "type": "address"
        },
        {
          "internalType": "uint256",
          "name": "tokenId",
          "type": "uint256"
        }
      ],
      "name": "approve",
      "outputs": [],
      "stateMutability": "nonpayable",
      "type": "function"
    },
    {
      "inputs": [
        {
          "internalType": "address",
          "name": "owner",
          "type": "address"
        }
      ],
      "name": "balanceOf",
      "outputs": [
        {
          "internalType": "uint256",
          "name": "",
          "type": "uint256"
        }
      ],
      "stateMutability": "view",
      "type": "function"
    },
    {
      "inputs": [
        {
          "internalType": "uint256",
          "name": "tokenId",
          "type": "uint256"
        }
      ],
      "name": "burnOwnerToken",
      "outputs": [],
      "stateMutability": "nonpayable",
      "type": "function"
    },
    {
      "inputs": [
        {
          "internalType": "uint256",
          "name": "tokenId",
          "type": "uint256"
        }
      ],
      "name": "burnRenterToken",
      "outputs": [],
      "stateMutability": "nonpayable",
      "type": "function"
    },
    {
      "inputs": [
        {
          "internalType": "uint256",
          "name": "tokenId",
          "type": "uint256"
        }
      ],
      "name": "getApproved",
      "outputs": [
        {
          "internalType": "address",
          "name": "",
          "type": "address"
        }
      ],
      "stateMutability": "view",
      "type": "function"
    },
    {
      "inputs": [
        {
          "internalType": "uint256",
          "name": "index",
          "type": "uint256"
        }
      ],
      "name": "getCar",
      "outputs": [
        {
          "internalType": "uint256",
          "name": "tokenId",
          "type": "uint256"
        },
        {
          "internalType": "string",
          "name": "nameAuto",
          "type": "string"
        },
        {
          "internalType": "string",
          "name": "features",
          "type": "string"
        },
        {
          "internalType": "uint256",
          "name": "price",
          "type": "uint256"
        },
        {
          "internalType": "uint256",
          "name": "guarantee",
          "type": "uint256"
        },
        {
          "internalType": "uint256",
          "name": "interestRate",
          "type": "uint256"
        }
      ],
      "stateMutability": "view",
      "type": "function"
    },
    {
      "inputs": [
        {
          "internalType": "bytes32",
          "name": "role",
          "type": "bytes32"
        }
      ],
      "name": "getRoleAdmin",
      "outputs": [
        {
          "internalType": "bytes32",
          "name": "",
          "type": "bytes32"
        }
      ],
      "stateMutability": "view",
      "type": "function"
    },
    {
      "inputs": [
        {
          "internalType": "bytes32",
          "name": "role",
          "type": "bytes32"
        },
        {
          "internalType": "address",
          "name": "account",
          "type": "address"
        }
      ],
      "name": "grantRole",
      "outputs": [],
      "stateMutability": "nonpayable",
      "type": "function"
    },
    {
      "inputs": [
        {
          "internalType": "bytes32",
          "name": "role",
          "type": "bytes32"
        },
        {
          "internalType": "address",
          "name": "account",
          "type": "address"
        }
      ],
      "name": "hasRole",
      "outputs": [
        {
          "internalType": "bool",
          "name": "",
          "type": "bool"
        }
      ],
      "stateMutability": "view",
      "type": "function"
    },
    {
      "inputs": [],
      "name": "initialize",
      "outputs": [],
      "stateMutability": "nonpayable",
      "type": "function"
    },
    {
      "inputs": [
        {
          "internalType": "address",
          "name": "owner",
          "type": "address"
        },
        {
          "internalType": "address",
          "name": "operator",
          "type": "address"
        }
      ],
      "name": "isApprovedForAll",
      "outputs": [
        {
          "internalType": "bool",
          "name": "",
          "type": "bool"
        }
      ],
      "stateMutability": "view",
      "type": "function"
    },
    {
      "inputs": [],
      "name": "name",
      "outputs": [
        {
          "internalType": "string",
          "name": "",
          "type": "string"
        }
      ],
      "stateMutability": "view",
      "type": "function"
    },
    {
      "inputs": [
        {
          "internalType": "uint256",
          "name": "tokenId",
          "type": "uint256"
        }
      ],
      "name": "ownerOf",
      "outputs": [
        {
          "internalType": "address",
          "name": "",
          "type": "address"
        }
      ],
      "stateMutability": "view",
      "type": "function"
    },
    {
      "inputs": [],
      "name": "proxiableUUID",
      "outputs": [
        {
          "internalType": "bytes32",
          "name": "",
          "type": "bytes32"
        }
      ],
      "stateMutability": "view",
      "type": "function"
    },
    {
      "inputs": [
        {
          "internalType": "bytes32",
          "name": "role",
          "type": "bytes32"
        },
        {
          "internalType": "address",
          "name": "account",
          "type": "address"
        }
      ],
      "name": "renounceRole",
      "outputs": [],
      "stateMutability": "nonpayable",
      "type": "function"
    },
    {
      "inputs": [
        {
          "internalType": "bytes32",
          "name": "role",
          "type": "bytes32"
        },
        {
          "internalType": "address",
          "name": "account",
          "type": "address"
        }
      ],
      "name": "revokeRole",
      "outputs": [],
      "stateMutability": "nonpayable",
      "type": "function"
    },
    {
      "inputs": [
        {
          "internalType": "address",
          "name": "to",
          "type": "address"
        },
        {
          "internalType": "string",
          "name": "uri",
          "type": "string"
        },
        {
          "internalType": "string",
          "name": "nameAuto",
          "type": "string"
        },
        {
          "internalType": "string",
          "name": "features",
          "type": "string"
        },
        {
          "internalType": "uint256",
          "name": "price",
          "type": "uint256"
        },
        {
          "internalType": "uint256",
          "name": "guarantee",
          "type": "uint256"
        },
        {
          "internalType": "uint256",
          "name": "interestRate",
          "type": "uint256"
        }
      ],
      "name": "safeMintOwner",
      "outputs": [],
      "stateMutability": "nonpayable",
      "type": "function"
    },
    {
      "inputs": [
        {
          "internalType": "address",
          "name": "to",
          "type": "address"
        },
        {
          "internalType": "string",
          "name": "uri",
          "type": "string"
        }
      ],
      "name": "safeMintRental",
      "outputs": [],
      "stateMutability": "nonpayable",
      "type": "function"
    },
    {
      "inputs": [
        {
          "internalType": "address",
          "name": "from",
          "type": "address"
        },
        {
          "internalType": "address",
          "name": "to",
          "type": "address"
        },
        {
          "internalType": "uint256",
          "name": "tokenId",
          "type": "uint256"
        }
      ],
      "name": "safeTransferFrom",
      "outputs": [],
      "stateMutability": "nonpayable",
      "type": "function"
    },
    {
      "inputs": [
        {
          "internalType": "address",
          "name": "from",
          "type": "address"
        },
        {
          "internalType": "address",
          "name": "to",
          "type": "address"
        },
        {
          "internalType": "uint256",
          "name": "tokenId",
          "type": "uint256"
        },
        {
          "internalType": "bytes",
          "name": "data",
          "type": "bytes"
        }
      ],
      "name": "safeTransferFrom",
      "outputs": [],
      "stateMutability": "nonpayable",
      "type": "function"
    },
    {
      "inputs": [
        {
          "internalType": "address",
          "name": "operator",
          "type": "address"
        },
        {
          "internalType": "bool",
          "name": "approved",
          "type": "bool"
        }
      ],
      "name": "setApprovalForAll",
      "outputs": [],
      "stateMutability": "nonpayable",
      "type": "function"
    },
    {
      "inputs": [
        {
          "internalType": "bytes4",
          "name": "interfaceId",
          "type": "bytes4"
        }
      ],
      "name": "supportsInterface",
      "outputs": [
        {
          "internalType": "bool",
          "name": "",
          "type": "bool"
        }
      ],
      "stateMutability": "view",
      "type": "function"
    },
    {
      "inputs": [],
      "name": "symbol",
      "outputs": [
        {
          "internalType": "string",
          "name": "",
          "type": "string"
        }
      ],
      "stateMutability": "view",
      "type": "function"
    },
    {
      "inputs": [
        {
          "internalType": "uint256",
          "name": "tokenId",
          "type": "uint256"
        }
      ],
      "name": "tokenURI",
      "outputs": [
        {
          "internalType": "string",
          "name": "",
          "type": "string"
        }
      ],
      "stateMutability": "view",
      "type": "function"
    },
    {
      "inputs": [],
      "name": "totalSupply",
      "outputs": [
        {
          "internalType": "uint256",
          "name": "",
          "type": "uint256"
        }
      ],
      "stateMutability": "view",
      "type": "function"
    },
    {
      "inputs": [
        {
          "internalType": "address",
          "name": "from",
          "type": "address"
        },
        {
          "internalType": "address",
          "name": "to",
          "type": "address"
        },
        {
          "internalType": "uint256",
          "name": "tokenId",
          "type": "uint256"
        }
      ],
      "name": "transferFrom",
      "outputs": [],
      "stateMutability": "nonpayable",
      "type": "function"
    },
    {
      "inputs": [
        {
          "internalType": "address",
          "name": "newImplementation",
          "type": "address"
        }
      ],
      "name": "upgradeTo",
      "outputs": [],
      "stateMutability": "nonpayable",
      "type": "function"
    },
    {
      "inputs": [
        {
          "internalType": "address",
          "name": "newImplementation",
          "type": "address"
        },
        {
          "internalType": "bytes",
          "name": "data",
          "type": "bytes"
        }
      ],
      "name": "upgradeToAndCall",
      "outputs": [],
      "stateMutability": "payable",
      "type": "function"
    }
  ],
  "bytecode": "0x60a06040523073ffffffffffffffffffffffffffffffffffffffff1660809073ffffffffffffffffffffffffffffffffffffffff1681525034801561004357600080fd5b506080516154af61007b60003960008181610a7901528181610b0801528181610d5b01528181610dea0152610e9a01526154af6000f3fe6080604052600436106101cd5760003560e01c80636352211e116100f7578063b88d4fde11610095578063d547741f11610064578063d547741f1461068e578063d75796f0146106b7578063e985e9c5146106e0578063f31b10f71461071d576101cd565b8063b88d4fde146105d4578063bdb614f0146105fd578063c87b56dd14610626578063d539139314610663576101cd565b806391d14854116100d157806391d148541461051857806395d89b4114610555578063a217fddf14610580578063a22cb465146105ab576101cd565b80636352211e1461048757806370a08231146104c45780638129fc1c14610501576101cd565b80632f2ff15d1161016f578063441620e01161013e578063441620e0146103d55780634f1ef286146103fe57806352d1902d1461041a5780635e8be19014610445576101cd565b80632f2ff15d1461033157806336568abe1461035a5780633659cfe61461038357806342842e0e146103ac576101cd565b8063095ea7b3116101ab578063095ea7b31461027757806318160ddd146102a057806323b872dd146102cb578063248a9ca3146102f4576101cd565b806301ffc9a7146101d257806306fdde031461020f578063081812fc1461023a575b600080fd5b3480156101de57600080fd5b506101f960048036038101906101f491906138ca565b610746565b6040516102069190613912565b60405180910390f35b34801561021b57600080fd5b50610224610758565b60405161023191906139c6565b60405180910390f35b34801561024657600080fd5b50610261600480360381019061025c9190613a1e565b6107ea565b60405161026e9190613a8c565b60405180910390f35b34801561028357600080fd5b5061029e60048036038101906102999190613ad3565b610830565b005b3480156102ac57600080fd5b506102b5610948565b6040516102c29190613b22565b60405180910390f35b3480156102d757600080fd5b506102f260048036038101906102ed9190613b3d565b610953565b005b34801561030057600080fd5b5061031b60048036038101906103169190613bc6565b6109b3565b6040516103289190613c02565b60405180910390f35b34801561033d57600080fd5b5061035860048036038101906103539190613c1d565b6109d3565b005b34801561036657600080fd5b50610381600480360381019061037c9190613c1d565b6109f4565b005b34801561038f57600080fd5b506103aa60048036038101906103a59190613c5d565b610a77565b005b3480156103b857600080fd5b506103d360048036038101906103ce9190613b3d565b610c00565b005b3480156103e157600080fd5b506103fc60048036038101906103f79190613dbf565b610c20565b005b61041860048036038101906104139190613f56565b610d59565b005b34801561042657600080fd5b5061042f610e96565b60405161043c9190613c02565b60405180910390f35b34801561045157600080fd5b5061046c60048036038101906104679190613a1e565b610f4f565b60405161047e96959493929190613fb2565b60405180910390f35b34801561049357600080fd5b506104ae60048036038101906104a99190613a1e565b611112565b6040516104bb9190613a8c565b60405180910390f35b3480156104d057600080fd5b506104eb60048036038101906104e69190613c5d565b611199565b6040516104f89190613b22565b60405180910390f35b34801561050d57600080fd5b50610516611251565b005b34801561052457600080fd5b5061053f600480360381019061053a9190613c1d565b61144a565b60405161054c9190613912565b60405180910390f35b34801561056157600080fd5b5061056a6114b5565b60405161057791906139c6565b60405180910390f35b34801561058c57600080fd5b50610595611547565b6040516105a29190613c02565b60405180910390f35b3480156105b757600080fd5b506105d260048036038101906105cd919061404d565b61154e565b005b3480156105e057600080fd5b506105fb60048036038101906105f6919061408d565b611564565b005b34801561060957600080fd5b50610624600480360381019061061f9190613a1e565b6115c6565b005b34801561063257600080fd5b5061064d60048036038101906106489190613a1e565b61167b565b60405161065a91906139c6565b60405180910390f35b34801561066f57600080fd5b5061067861168d565b6040516106859190613c02565b60405180910390f35b34801561069a57600080fd5b506106b560048036038101906106b09190613c1d565b6116b1565b005b3480156106c357600080fd5b506106de60048036038101906106d99190613a1e565b6116d2565b005b3480156106ec57600080fd5b5061070760048036038101906107029190614110565b611787565b6040516107149190613912565b60405180910390f35b34801561072957600080fd5b50610744600480360381019061073f9190614150565b61181b565b005b600061075182611892565b9050919050565b606060658054610767906141db565b80601f0160208091040260200160405190810160405280929190818152602001828054610793906141db565b80156107e05780601f106107b5576101008083540402835291602001916107e0565b820191906000526020600020905b8154815290600101906020018083116107c357829003601f168201915b5050505050905090565b60006107f58261190c565b6069600083815260200190815260200160002060009054906101000a900473ffffffffffffffffffffffffffffffffffffffff169050919050565b600061083b82611112565b90508073ffffffffffffffffffffffffffffffffffffffff168373ffffffffffffffffffffffffffffffffffffffff1614156108ac576040517f08c379a00000000000000000000000000000000000000000000000000000000081526004016108a39061427f565b60405180910390fd5b8073ffffffffffffffffffffffffffffffffffffffff166108cb611957565b73ffffffffffffffffffffffffffffffffffffffff1614806108fa57506108f9816108f4611957565b611787565b5b610939576040517f08c379a000000000000000000000000000000000000000000000000000000000815260040161093090614311565b60405180910390fd5b610943838361195f565b505050565b600061016054905090565b61096461095e611957565b82611a18565b6109a3576040517f08c379a000000000000000000000000000000000000000000000000000000000815260040161099a906143a3565b60405180910390fd5b6109ae838383611aad565b505050565b600060c96000838152602001908152602001600020600101549050919050565b6109dc826109b3565b6109e581611da7565b6109ef8383611dbb565b505050565b6109fc611957565b73ffffffffffffffffffffffffffffffffffffffff168173ffffffffffffffffffffffffffffffffffffffff1614610a69576040517f08c379a0000000000000000000000000000000000000000000000000000000008152600401610a6090614435565b60405180910390fd5b610a738282611e9c565b5050565b7f000000000000000000000000000000000000000000000000000000000000000073ffffffffffffffffffffffffffffffffffffffff163073ffffffffffffffffffffffffffffffffffffffff161415610b06576040517f08c379a0000000000000000000000000000000000000000000000000000000008152600401610afd906144c7565b60405180910390fd5b7f000000000000000000000000000000000000000000000000000000000000000073ffffffffffffffffffffffffffffffffffffffff16610b45611f7e565b73ffffffffffffffffffffffffffffffffffffffff1614610b9b576040517f08c379a0000000000000000000000000000000000000000000000000000000008152600401610b9290614559565b60405180910390fd5b610ba481611fd5565b610bfd81600067ffffffffffffffff811115610bc357610bc2613c94565b5b6040519080825280601f01601f191660200182016040528015610bf55781602001600182028036833780820191505090505b506000611fe6565b50565b610c1b83838360405180602001604052806000815250611564565b505050565b7f9f2df0fed2c77648de5860a4cc508cd0818c85b8b8a1ab4ceeef8d981c8956a6610c4a81611da7565b6000610c5761015f612163565b9050610c638982612171565b610c6d818961218f565b6101616040518060c00160405280838152602001898152602001888152602001878152602001868152602001858152509080600181540180825580915050600190039060005260206000209060060201600090919091909150600082015181600001556020820151816001019080519060200190610cec92919061377b565b506040820151816002019080519060200190610d0992919061377b565b50606082015181600301556080820151816004015560a082015181600501555050610d3561015f61223a565b6101606000815480929190610d49906145a8565b9190505550505050505050505050565b7f000000000000000000000000000000000000000000000000000000000000000073ffffffffffffffffffffffffffffffffffffffff163073ffffffffffffffffffffffffffffffffffffffff161415610de8576040517f08c379a0000000000000000000000000000000000000000000000000000000008152600401610ddf906144c7565b60405180910390fd5b7f000000000000000000000000000000000000000000000000000000000000000073ffffffffffffffffffffffffffffffffffffffff16610e27611f7e565b73ffffffffffffffffffffffffffffffffffffffff1614610e7d576040517f08c379a0000000000000000000000000000000000000000000000000000000008152600401610e7490614559565b60405180910390fd5b610e8682611fd5565b610e9282826001611fe6565b5050565b60007f000000000000000000000000000000000000000000000000000000000000000073ffffffffffffffffffffffffffffffffffffffff163073ffffffffffffffffffffffffffffffffffffffff1614610f26576040517f08c379a0000000000000000000000000000000000000000000000000000000008152600401610f1d90614663565b60405180910390fd5b7f360894a13ba1a3210667c828492db98dca3e2076cc3735a920a3ca505d382bbc60001b905090565b60006060806000806000610161805490508710610fa1576040517f08c379a0000000000000000000000000000000000000000000000000000000008152600401610f98906146cf565b60405180910390fd5b60006101618881548110610fb857610fb76146ef565b5b9060005260206000209060060201905080600001548160010182600201836003015484600401548560050154848054610ff0906141db565b80601f016020809104026020016040519081016040528092919081815260200182805461101c906141db565b80156110695780601f1061103e57610100808354040283529160200191611069565b820191906000526020600020905b81548152906001019060200180831161104c57829003601f168201915b5050505050945083805461107c906141db565b80601f01602080910402602001604051908101604052809291908181526020018280546110a8906141db565b80156110f55780601f106110ca576101008083540402835291602001916110f5565b820191906000526020600020905b8154815290600101906020018083116110d857829003601f168201915b505050505093509650965096509650965096505091939550919395565b60008061111e83612250565b9050600073ffffffffffffffffffffffffffffffffffffffff168173ffffffffffffffffffffffffffffffffffffffff161415611190576040517f08c379a00000000000000000000000000000000000000000000000000000000081526004016111879061476a565b60405180910390fd5b80915050919050565b60008073ffffffffffffffffffffffffffffffffffffffff168273ffffffffffffffffffffffffffffffffffffffff16141561120a576040517f08c379a0000000000000000000000000000000000000000000000000000000008152600401611201906147fc565b60405180910390fd5b606860008373ffffffffffffffffffffffffffffffffffffffff1673ffffffffffffffffffffffffffffffffffffffff168152602001908152602001600020549050919050565b60008060019054906101000a900460ff161590508080156112825750600160008054906101000a900460ff1660ff16105b806112af57506112913061228d565b1580156112ae5750600160008054906101000a900460ff1660ff16145b5b6112ee576040517f08c379a00000000000000000000000000000000000000000000000000000000081526004016112e59061488e565b60405180910390fd5b60016000806101000a81548160ff021916908360ff160217905550801561132b576001600060016101000a81548160ff0219169083151502179055505b61139f6040518060400160405280600381526020017f4e465400000000000000000000000000000000000000000000000000000000008152506040518060400160405280600281526020017f52430000000000000000000000000000000000000000000000000000000000008152506122b0565b6113a761230d565b6113af61235e565b6113b76123af565b6113c46000801b33612400565b6113ee7f9f2df0fed2c77648de5860a4cc508cd0818c85b8b8a1ab4ceeef8d981c8956a633612400565b80156114475760008060016101000a81548160ff0219169083151502179055507f7f26b83ff96e1f2b6a682f133852f6798a09c465da95921460cefb3847402498600160405161143e9190614900565b60405180910390a15b50565b600060c9600084815260200190815260200160002060000160008373ffffffffffffffffffffffffffffffffffffffff1673ffffffffffffffffffffffffffffffffffffffff16815260200190815260200160002060009054906101000a900460ff16905092915050565b6060606680546114c4906141db565b80601f01602080910402602001604051908101604052809291908181526020018280546114f0906141db565b801561153d5780601f106115125761010080835404028352916020019161153d565b820191906000526020600020905b81548152906001019060200180831161152057829003601f168201915b5050505050905090565b6000801b81565b611560611559611957565b838361240e565b5050565b61157561156f611957565b83611a18565b6115b4576040517f08c379a00000000000000000000000000000000000000000000000000000000081526004016115ab906143a3565b60405180910390fd5b6115c08484848461257b565b50505050565b7f9f2df0fed2c77648de5860a4cc508cd0818c85b8b8a1ab4ceeef8d981c8956a66115f081611da7565b60006115fb83611112565b9050600073ffffffffffffffffffffffffffffffffffffffff168173ffffffffffffffffffffffffffffffffffffffff16141561166d576040517f08c379a000000000000000000000000000000000000000000000000000000000815260040161166490614967565b60405180910390fd5b611676836125d7565b505050565b6060611686826125e3565b9050919050565b7f9f2df0fed2c77648de5860a4cc508cd0818c85b8b8a1ab4ceeef8d981c8956a681565b6116ba826109b3565b6116c381611da7565b6116cd8383611e9c565b505050565b7f9f2df0fed2c77648de5860a4cc508cd0818c85b8b8a1ab4ceeef8d981c8956a66116fc81611da7565b600061170783611112565b9050600073ffffffffffffffffffffffffffffffffffffffff168173ffffffffffffffffffffffffffffffffffffffff161415611779576040517f08c379a0000000000000000000000000000000000000000000000000000000008152600401611770906149d3565b60405180910390fd5b611782836125d7565b505050565b6000606a60008473ffffffffffffffffffffffffffffffffffffffff1673ffffffffffffffffffffffffffffffffffffffff16815260200190815260200160002060008373ffffffffffffffffffffffffffffffffffffffff1673ffffffffffffffffffffffffffffffffffffffff16815260200190815260200160002060009054906101000a900460ff16905092915050565b7f9f2df0fed2c77648de5860a4cc508cd0818c85b8b8a1ab4ceeef8d981c8956a661184581611da7565b600061185261015f612163565b905061185e8482612171565b611868818461218f565b61187361015f61223a565b6101606000815480929190611887906145a8565b919050555050505050565b60007f7965db0b000000000000000000000000000000000000000000000000000000007bffffffffffffffffffffffffffffffffffffffffffffffffffffffff1916827bffffffffffffffffffffffffffffffffffffffffffffffffffffffff191614806119055750611904826126f6565b5b9050919050565b61191581612757565b611954576040517f08c379a000000000000000000000000000000000000000000000000000000000815260040161194b9061476a565b60405180910390fd5b50565b600033905090565b816069600083815260200190815260200160002060006101000a81548173ffffffffffffffffffffffffffffffffffffffff021916908373ffffffffffffffffffffffffffffffffffffffff160217905550808273ffffffffffffffffffffffffffffffffffffffff166119d283611112565b73ffffffffffffffffffffffffffffffffffffffff167f8c5be1e5ebec7d5bd14f71427d1e84f3dd0314c0f7b2291e5b200ac8c7c3b92560405160405180910390a45050565b600080611a2483611112565b90508073ffffffffffffffffffffffffffffffffffffffff168473ffffffffffffffffffffffffffffffffffffffff161480611a665750611a658185611787565b5b80611aa457508373ffffffffffffffffffffffffffffffffffffffff16611a8c846107ea565b73ffffffffffffffffffffffffffffffffffffffff16145b91505092915050565b8273ffffffffffffffffffffffffffffffffffffffff16611acd82611112565b73ffffffffffffffffffffffffffffffffffffffff1614611b23576040517f08c379a0000000000000000000000000000000000000000000000000000000008152600401611b1a90614a65565b60405180910390fd5b600073ffffffffffffffffffffffffffffffffffffffff168273ffffffffffffffffffffffffffffffffffffffff161415611b93576040517f08c379a0000000000000000000000000000000000000000000000000000000008152600401611b8a90614af7565b60405180910390fd5b611ba08383836001612798565b8273ffffffffffffffffffffffffffffffffffffffff16611bc082611112565b73ffffffffffffffffffffffffffffffffffffffff1614611c16576040517f08c379a0000000000000000000000000000000000000000000000000000000008152600401611c0d90614a65565b60405180910390fd5b6069600082815260200190815260200160002060006101000a81549073ffffffffffffffffffffffffffffffffffffffff02191690556001606860008573ffffffffffffffffffffffffffffffffffffffff1673ffffffffffffffffffffffffffffffffffffffff168152602001908152602001600020600082825403925050819055506001606860008473ffffffffffffffffffffffffffffffffffffffff1673ffffffffffffffffffffffffffffffffffffffff16815260200190815260200160002060008282540192505081905550816067600083815260200190815260200160002060006101000a81548173ffffffffffffffffffffffffffffffffffffffff021916908373ffffffffffffffffffffffffffffffffffffffff160217905550808273ffffffffffffffffffffffffffffffffffffffff168473ffffffffffffffffffffffffffffffffffffffff167fddf252ad1be2c89b69c2b068fc378daa952ba7f163c4a11628f55a4df523b3ef60405160405180910390a4611da2838383600161279e565b505050565b611db881611db3611957565b6127a4565b50565b611dc5828261144a565b611e9857600160c9600084815260200190815260200160002060000160008373ffffffffffffffffffffffffffffffffffffffff1673ffffffffffffffffffffffffffffffffffffffff16815260200190815260200160002060006101000a81548160ff021916908315150217905550611e3d611957565b73ffffffffffffffffffffffffffffffffffffffff168173ffffffffffffffffffffffffffffffffffffffff16837f2f8788117e7eff1d82e926ec794901d17c78024a50270940304540a733656f0d60405160405180910390a45b5050565b611ea6828261144a565b15611f7a57600060c9600084815260200190815260200160002060000160008373ffffffffffffffffffffffffffffffffffffffff1673ffffffffffffffffffffffffffffffffffffffff16815260200190815260200160002060006101000a81548160ff021916908315150217905550611f1f611957565b73ffffffffffffffffffffffffffffffffffffffff168173ffffffffffffffffffffffffffffffffffffffff16837ff6391f5c32d9c69d2a47ea670b442974b53935d1edc7fd64eb21e047a839171b60405160405180910390a45b5050565b6000611fac7f360894a13ba1a3210667c828492db98dca3e2076cc3735a920a3ca505d382bbc60001b612829565b60000160009054906101000a900473ffffffffffffffffffffffffffffffffffffffff16905090565b6000801b611fe281611da7565b5050565b6120127f4910fdfa16fed3260ed0e7147f7cc6da11a60208b5b9406d12a635614ffd914360001b612833565b60000160009054906101000a900460ff1615612036576120318361283d565b61215e565b8273ffffffffffffffffffffffffffffffffffffffff166352d1902d6040518163ffffffff1660e01b815260040160206040518083038186803b15801561207c57600080fd5b505afa9250505080156120ad57506040513d601f19601f820116820180604052508101906120aa9190614b2c565b60015b6120ec576040517f08c379a00000000000000000000000000000000000000000000000000000000081526004016120e390614bcb565b60405180910390fd5b7f360894a13ba1a3210667c828492db98dca3e2076cc3735a920a3ca505d382bbc60001b8114612151576040517f08c379a000000000000000000000000000000000000000000000000000000000815260040161214890614c5d565b60405180910390fd5b5061215d8383836128f6565b5b505050565b600081600001549050919050565b61218b828260405180602001604052806000815250612922565b5050565b61219882612757565b6121d7576040517f08c379a00000000000000000000000000000000000000000000000000000000081526004016121ce90614cef565b60405180910390fd5b806097600084815260200190815260200160002090805190602001906121fe92919061377b565b507ff8e1a15aba9398e019f0b49df1a4fde98ee17ae345cb5f6b5e2c27f5033e8ce78260405161222e9190613b22565b60405180910390a15050565b6001816000016000828254019250508190555050565b60006067600083815260200190815260200160002060009054906101000a900473ffffffffffffffffffffffffffffffffffffffff169050919050565b6000808273ffffffffffffffffffffffffffffffffffffffff163b119050919050565b600060019054906101000a900460ff166122ff576040517f08c379a00000000000000000000000000000000000000000000000000000000081526004016122f690614d81565b60405180910390fd5b612309828261297d565b5050565b600060019054906101000a900460ff1661235c576040517f08c379a000000000000000000000000000000000000000000000000000000000815260040161235390614d81565b60405180910390fd5b565b600060019054906101000a900460ff166123ad576040517f08c379a00000000000000000000000000000000000000000000000000000000081526004016123a490614d81565b60405180910390fd5b565b600060019054906101000a900460ff166123fe576040517f08c379a00000000000000000000000000000000000000000000000000000000081526004016123f590614d81565b60405180910390fd5b565b61240a8282611dbb565b5050565b8173ffffffffffffffffffffffffffffffffffffffff168373ffffffffffffffffffffffffffffffffffffffff16141561247d576040517f08c379a000000000000000000000000000000000000000000000000000000000815260040161247490614ded565b60405180910390fd5b80606a60008573ffffffffffffffffffffffffffffffffffffffff1673ffffffffffffffffffffffffffffffffffffffff16815260200190815260200160002060008473ffffffffffffffffffffffffffffffffffffffff1673ffffffffffffffffffffffffffffffffffffffff16815260200190815260200160002060006101000a81548160ff0219169083151502179055508173ffffffffffffffffffffffffffffffffffffffff168373ffffffffffffffffffffffffffffffffffffffff167f17307eab39ab6107e8899845ad3d59bd9653f200f220920489ca2b5937696c318360405161256e9190613912565b60405180910390a3505050565b612586848484611aad565b612592848484846129fe565b6125d1576040517f08c379a00000000000000000000000000000000000000000000000000000000081526004016125c890614e7f565b60405180910390fd5b50505050565b6125e081612b95565b50565b60606125ee8261190c565b600060976000848152602001908152602001600020805461260e906141db565b80601f016020809104026020016040519081016040528092919081815260200182805461263a906141db565b80156126875780601f1061265c57610100808354040283529160200191612687565b820191906000526020600020905b81548152906001019060200180831161266a57829003601f168201915b505050505090506000612698612be8565b90506000815114156126ae5781925050506126f1565b6000825111156126e35780826040516020016126cb929190614edb565b604051602081830303815290604052925050506126f1565b6126ec84612bff565b925050505b919050565b6000634906490660e01b7bffffffffffffffffffffffffffffffffffffffffffffffffffffffff1916827bffffffffffffffffffffffffffffffffffffffffffffffffffffffff19161480612750575061274f82612c67565b5b9050919050565b60008073ffffffffffffffffffffffffffffffffffffffff1661277983612250565b73ffffffffffffffffffffffffffffffffffffffff1614159050919050565b50505050565b50505050565b6127ae828261144a565b612825576127bb81612d49565b6127c98360001c6020612d76565b6040516020016127da929190614f97565b6040516020818303038152906040526040517f08c379a000000000000000000000000000000000000000000000000000000000815260040161281c91906139c6565b60405180910390fd5b5050565b6000819050919050565b6000819050919050565b6128468161228d565b612885576040517f08c379a000000000000000000000000000000000000000000000000000000000815260040161287c90615043565b60405180910390fd5b806128b27f360894a13ba1a3210667c828492db98dca3e2076cc3735a920a3ca505d382bbc60001b612829565b60000160006101000a81548173ffffffffffffffffffffffffffffffffffffffff021916908373ffffffffffffffffffffffffffffffffffffffff16021790555050565b6128ff83612fb2565b60008251118061290c5750805b1561291d5761291b8383613001565b505b505050565b61292c838361302e565b61293960008484846129fe565b612978576040517f08c379a000000000000000000000000000000000000000000000000000000000815260040161296f90614e7f565b60405180910390fd5b505050565b600060019054906101000a900460ff166129cc576040517f08c379a00000000000000000000000000000000000000000000000000000000081526004016129c390614d81565b60405180910390fd5b81606590805190602001906129e292919061377b565b5080606690805190602001906129f992919061377b565b505050565b6000612a1f8473ffffffffffffffffffffffffffffffffffffffff1661228d565b15612b88578373ffffffffffffffffffffffffffffffffffffffff1663150b7a02612a48611957565b8786866040518563ffffffff1660e01b8152600401612a6a94939291906150b8565b602060405180830381600087803b158015612a8457600080fd5b505af1925050508015612ab557506040513d601f19601f82011682018060405250810190612ab29190615119565b60015b612b38573d8060008114612ae5576040519150601f19603f3d011682016040523d82523d6000602084013e612aea565b606091505b50600081511415612b30576040517f08c379a0000000000000000000000000000000000000000000000000000000008152600401612b2790614e7f565b60405180910390fd5b805181602001fd5b63150b7a0260e01b7bffffffffffffffffffffffffffffffffffffffffffffffffffffffff1916817bffffffffffffffffffffffffffffffffffffffffffffffffffffffff191614915050612b8d565b600190505b949350505050565b612b9e8161324c565b6000609760008381526020019081526020016000208054612bbe906141db565b905014612be557609760008281526020019081526020016000206000612be49190613801565b5b50565b606060405180602001604052806000815250905090565b6060612c0a8261190c565b6000612c14612be8565b90506000815111612c345760405180602001604052806000815250612c5f565b80612c3e8461339a565b604051602001612c4f929190614edb565b6040516020818303038152906040525b915050919050565b60007f80ac58cd000000000000000000000000000000000000000000000000000000007bffffffffffffffffffffffffffffffffffffffffffffffffffffffff1916827bffffffffffffffffffffffffffffffffffffffffffffffffffffffff19161480612d3257507f5b5e139f000000000000000000000000000000000000000000000000000000007bffffffffffffffffffffffffffffffffffffffffffffffffffffffff1916827bffffffffffffffffffffffffffffffffffffffffffffffffffffffff1916145b80612d425750612d4182613472565b5b9050919050565b6060612d6f8273ffffffffffffffffffffffffffffffffffffffff16601460ff16612d76565b9050919050565b606060006002836002612d899190615146565b612d9391906151a0565b67ffffffffffffffff811115612dac57612dab613c94565b5b6040519080825280601f01601f191660200182016040528015612dde5781602001600182028036833780820191505090505b5090507f300000000000000000000000000000000000000000000000000000000000000081600081518110612e1657612e156146ef565b5b60200101907effffffffffffffffffffffffffffffffffffffffffffffffffffffffffffff1916908160001a9053507f780000000000000000000000000000000000000000000000000000000000000081600181518110612e7a57612e796146ef565b5b60200101907effffffffffffffffffffffffffffffffffffffffffffffffffffffffffffff1916908160001a90535060006001846002612eba9190615146565b612ec491906151a0565b90505b6001811115612f64577f3031323334353637383961626364656600000000000000000000000000000000600f861660108110612f0657612f056146ef565b5b1a60f81b828281518110612f1d57612f1c6146ef565b5b60200101907effffffffffffffffffffffffffffffffffffffffffffffffffffffffffffff1916908160001a905350600485901c945080612f5d906151f6565b9050612ec7565b5060008414612fa8576040517f08c379a0000000000000000000000000000000000000000000000000000000008152600401612f9f9061526c565b60405180910390fd5b8091505092915050565b612fbb8161283d565b8073ffffffffffffffffffffffffffffffffffffffff167fbc7cd75a20ee27fd9adebab32041f755214dbc6bffa90cc0225b39da2e5c2d3b60405160405180910390a250565b60606130268383604051806060016040528060278152602001615453602791396134dc565b905092915050565b600073ffffffffffffffffffffffffffffffffffffffff168273ffffffffffffffffffffffffffffffffffffffff16141561309e576040517f08c379a0000000000000000000000000000000000000000000000000000000008152600401613095906152d8565b60405180910390fd5b6130a781612757565b156130e7576040517f08c379a00000000000000000000000000000000000000000000000000000000081526004016130de90615344565b60405180910390fd5b6130f5600083836001612798565b6130fe81612757565b1561313e576040517f08c379a000000000000000000000000000000000000000000000000000000000815260040161313590615344565b60405180910390fd5b6001606860008473ffffffffffffffffffffffffffffffffffffffff1673ffffffffffffffffffffffffffffffffffffffff16815260200190815260200160002060008282540192505081905550816067600083815260200190815260200160002060006101000a81548173ffffffffffffffffffffffffffffffffffffffff021916908373ffffffffffffffffffffffffffffffffffffffff160217905550808273ffffffffffffffffffffffffffffffffffffffff16600073ffffffffffffffffffffffffffffffffffffffff167fddf252ad1be2c89b69c2b068fc378daa952ba7f163c4a11628f55a4df523b3ef60405160405180910390a461324860008383600161279e565b5050565b600061325782611112565b9050613267816000846001612798565b61327082611112565b90506069600083815260200190815260200160002060006101000a81549073ffffffffffffffffffffffffffffffffffffffff02191690556001606860008373ffffffffffffffffffffffffffffffffffffffff1673ffffffffffffffffffffffffffffffffffffffff168152602001908152602001600020600082825403925050819055506067600083815260200190815260200160002060006101000a81549073ffffffffffffffffffffffffffffffffffffffff021916905581600073ffffffffffffffffffffffffffffffffffffffff168273ffffffffffffffffffffffffffffffffffffffff167fddf252ad1be2c89b69c2b068fc378daa952ba7f163c4a11628f55a4df523b3ef60405160405180910390a461339681600084600161279e565b5050565b6060600060016133a984613562565b01905060008167ffffffffffffffff8111156133c8576133c7613c94565b5b6040519080825280601f01601f1916602001820160405280156133fa5781602001600182028036833780820191505090505b509050600082602001820190505b600115613467578080600190039150507f3031323334353637383961626364656600000000000000000000000000000000600a86061a8153600a858161345157613450615364565b5b049450600085141561346257613467565b613408565b819350505050919050565b60007f01ffc9a7000000000000000000000000000000000000000000000000000000007bffffffffffffffffffffffffffffffffffffffffffffffffffffffff1916827bffffffffffffffffffffffffffffffffffffffffffffffffffffffff1916149050919050565b60606000808573ffffffffffffffffffffffffffffffffffffffff168560405161350691906153cf565b600060405180830381855af49150503d8060008114613541576040519150601f19603f3d011682016040523d82523d6000602084013e613546565b606091505b5091509150613557868383876136b5565b925050509392505050565b600080600090507a184f03e93ff9f4daa797ed6e38ed64bf6a1f01000000000000000083106135c0577a184f03e93ff9f4daa797ed6e38ed64bf6a1f01000000000000000083816135b6576135b5615364565b5b0492506040810190505b6d04ee2d6d415b85acef810000000083106135fd576d04ee2d6d415b85acef810000000083816135f3576135f2615364565b5b0492506020810190505b662386f26fc10000831061362c57662386f26fc10000838161362257613621615364565b5b0492506010810190505b6305f5e1008310613655576305f5e100838161364b5761364a615364565b5b0492506008810190505b612710831061367a5761271083816136705761366f615364565b5b0492506004810190505b6064831061369d576064838161369357613692615364565b5b0492506002810190505b600a83106136ac576001810190505b80915050919050565b6060831561371857600083511415613710576136d08561228d565b61370f576040517f08c379a000000000000000000000000000000000000000000000000000000000815260040161370690615432565b60405180910390fd5b5b829050613723565b613722838361372b565b5b949350505050565b60008251111561373e5781518083602001fd5b806040517f08c379a000000000000000000000000000000000000000000000000000000000815260040161377291906139c6565b60405180910390fd5b828054613787906141db565b90600052602060002090601f0160209004810192826137a957600085556137f0565b82601f106137c257805160ff19168380011785556137f0565b828001600101855582156137f0579182015b828111156137ef5782518255916020019190600101906137d4565b5b5090506137fd9190613841565b5090565b50805461380d906141db565b6000825580601f1061381f575061383e565b601f01602090049060005260206000209081019061383d9190613841565b5b50565b5b8082111561385a576000816000905550600101613842565b5090565b6000604051905090565b600080fd5b600080fd5b60007fffffffff0000000000000000000000000000000000000000000000000000000082169050919050565b6138a781613872565b81146138b257600080fd5b50565b6000813590506138c48161389e565b92915050565b6000602082840312156138e0576138df613868565b5b60006138ee848285016138b5565b91505092915050565b60008115159050919050565b61390c816138f7565b82525050565b60006020820190506139276000830184613903565b92915050565b600081519050919050565b600082825260208201905092915050565b60005b8381101561396757808201518184015260208101905061394c565b83811115613976576000848401525b50505050565b6000601f19601f8301169050919050565b60006139988261392d565b6139a28185613938565b93506139b2818560208601613949565b6139bb8161397c565b840191505092915050565b600060208201905081810360008301526139e0818461398d565b905092915050565b6000819050919050565b6139fb816139e8565b8114613a0657600080fd5b50565b600081359050613a18816139f2565b92915050565b600060208284031215613a3457613a33613868565b5b6000613a4284828501613a09565b91505092915050565b600073ffffffffffffffffffffffffffffffffffffffff82169050919050565b6000613a7682613a4b565b9050919050565b613a8681613a6b565b82525050565b6000602082019050613aa16000830184613a7d565b92915050565b613ab081613a6b565b8114613abb57600080fd5b50565b600081359050613acd81613aa7565b92915050565b60008060408385031215613aea57613ae9613868565b5b6000613af885828601613abe565b9250506020613b0985828601613a09565b9150509250929050565b613b1c816139e8565b82525050565b6000602082019050613b376000830184613b13565b92915050565b600080600060608486031215613b5657613b55613868565b5b6000613b6486828701613abe565b9350506020613b7586828701613abe565b9250506040613b8686828701613a09565b9150509250925092565b6000819050919050565b613ba381613b90565b8114613bae57600080fd5b50565b600081359050613bc081613b9a565b92915050565b600060208284031215613bdc57613bdb613868565b5b6000613bea84828501613bb1565b91505092915050565b613bfc81613b90565b82525050565b6000602082019050613c176000830184613bf3565b92915050565b60008060408385031215613c3457613c33613868565b5b6000613c4285828601613bb1565b9250506020613c5385828601613abe565b9150509250929050565b600060208284031215613c7357613c72613868565b5b6000613c8184828501613abe565b91505092915050565b600080fd5b600080fd5b7f4e487b7100000000000000000000000000000000000000000000000000000000600052604160045260246000fd5b613ccc8261397c565b810181811067ffffffffffffffff82111715613ceb57613cea613c94565b5b80604052505050565b6000613cfe61385e565b9050613d0a8282613cc3565b919050565b600067ffffffffffffffff821115613d2a57613d29613c94565b5b613d338261397c565b9050602081019050919050565b82818337600083830152505050565b6000613d62613d5d84613d0f565b613cf4565b905082815260208101848484011115613d7e57613d7d613c8f565b5b613d89848285613d40565b509392505050565b600082601f830112613da657613da5613c8a565b5b8135613db6848260208601613d4f565b91505092915050565b600080600080600080600060e0888a031215613dde57613ddd613868565b5b6000613dec8a828b01613abe565b975050602088013567ffffffffffffffff811115613e0d57613e0c61386d565b5b613e198a828b01613d91565b965050604088013567ffffffffffffffff811115613e3a57613e3961386d565b5b613e468a828b01613d91565b955050606088013567ffffffffffffffff811115613e6757613e6661386d565b5b613e738a828b01613d91565b9450506080613e848a828b01613a09565b93505060a0613e958a828b01613a09565b92505060c0613ea68a828b01613a09565b91505092959891949750929550565b600067ffffffffffffffff821115613ed057613ecf613c94565b5b613ed98261397c565b9050602081019050919050565b6000613ef9613ef484613eb5565b613cf4565b905082815260208101848484011115613f1557613f14613c8f565b5b613f20848285613d40565b509392505050565b600082601f830112613f3d57613f3c613c8a565b5b8135613f4d848260208601613ee6565b91505092915050565b60008060408385031215613f6d57613f6c613868565b5b6000613f7b85828601613abe565b925050602083013567ffffffffffffffff811115613f9c57613f9b61386d565b5b613fa885828601613f28565b9150509250929050565b600060c082019050613fc76000830189613b13565b8181036020830152613fd9818861398d565b90508181036040830152613fed818761398d565b9050613ffc6060830186613b13565b6140096080830185613b13565b61401660a0830184613b13565b979650505050505050565b61402a816138f7565b811461403557600080fd5b50565b60008135905061404781614021565b92915050565b6000806040838503121561406457614063613868565b5b600061407285828601613abe565b925050602061408385828601614038565b9150509250929050565b600080600080608085870312156140a7576140a6613868565b5b60006140b587828801613abe565b94505060206140c687828801613abe565b93505060406140d787828801613a09565b925050606085013567ffffffffffffffff8111156140f8576140f761386d565b5b61410487828801613f28565b91505092959194509250565b6000806040838503121561412757614126613868565b5b600061413585828601613abe565b925050602061414685828601613abe565b9150509250929050565b6000806040838503121561416757614166613868565b5b600061417585828601613abe565b925050602083013567ffffffffffffffff8111156141965761419561386d565b5b6141a285828601613d91565b9150509250929050565b7f4e487b7100000000000000000000000000000000000000000000000000000000600052602260045260246000fd5b600060028204905060018216806141f357607f821691505b60208210811415614207576142066141ac565b5b50919050565b7f4552433732313a20617070726f76616c20746f2063757272656e74206f776e6560008201527f7200000000000000000000000000000000000000000000000000000000000000602082015250565b6000614269602183613938565b91506142748261420d565b604082019050919050565b600060208201905081810360008301526142988161425c565b9050919050565b7f4552433732313a20617070726f76652063616c6c6572206973206e6f7420746f60008201527f6b656e206f776e6572206f7220617070726f76656420666f7220616c6c000000602082015250565b60006142fb603d83613938565b91506143068261429f565b604082019050919050565b6000602082019050818103600083015261432a816142ee565b9050919050565b7f4552433732313a2063616c6c6572206973206e6f7420746f6b656e206f776e6560008201527f72206f7220617070726f76656400000000000000000000000000000000000000602082015250565b600061438d602d83613938565b915061439882614331565b604082019050919050565b600060208201905081810360008301526143bc81614380565b9050919050565b7f416363657373436f6e74726f6c3a2063616e206f6e6c792072656e6f756e636560008201527f20726f6c657320666f722073656c660000000000000000000000000000000000602082015250565b600061441f602f83613938565b915061442a826143c3565b604082019050919050565b6000602082019050818103600083015261444e81614412565b9050919050565b7f46756e6374696f6e206d7573742062652063616c6c6564207468726f7567682060008201527f64656c656761746563616c6c0000000000000000000000000000000000000000602082015250565b60006144b1602c83613938565b91506144bc82614455565b604082019050919050565b600060208201905081810360008301526144e0816144a4565b9050919050565b7f46756e6374696f6e206d7573742062652063616c6c6564207468726f7567682060008201527f6163746976652070726f78790000000000000000000000000000000000000000602082015250565b6000614543602c83613938565b915061454e826144e7565b604082019050919050565b6000602082019050818103600083015261457281614536565b9050919050565b7f4e487b7100000000000000000000000000000000000000000000000000000000600052601160045260246000fd5b60006145b3826139e8565b91507fffffffffffffffffffffffffffffffffffffffffffffffffffffffffffffffff8214156145e6576145e5614579565b5b600182019050919050565b7f555550535570677261646561626c653a206d757374206e6f742062652063616c60008201527f6c6564207468726f7567682064656c656761746563616c6c0000000000000000602082015250565b600061464d603883613938565b9150614658826145f1565b604082019050919050565b6000602082019050818103600083015261467c81614640565b9050919050565b7f496e64657820646520636172726f20696e76616c69646f000000000000000000600082015250565b60006146b9601783613938565b91506146c482614683565b602082019050919050565b600060208201905081810360008301526146e8816146ac565b9050919050565b7f4e487b7100000000000000000000000000000000000000000000000000000000600052603260045260246000fd5b7f4552433732313a20696e76616c696420746f6b656e2049440000000000000000600082015250565b6000614754601883613938565b915061475f8261471e565b602082019050919050565b6000602082019050818103600083015261478381614747565b9050919050565b7f4552433732313a2061646472657373207a65726f206973206e6f74206120766160008201527f6c6964206f776e65720000000000000000000000000000000000000000000000602082015250565b60006147e6602983613938565b91506147f18261478a565b604082019050919050565b60006020820190508181036000830152614815816147d9565b9050919050565b7f496e697469616c697a61626c653a20636f6e747261637420697320616c72656160008201527f647920696e697469616c697a6564000000000000000000000000000000000000602082015250565b6000614878602e83613938565b91506148838261481c565b604082019050919050565b600060208201905081810360008301526148a78161486b565b9050919050565b6000819050919050565b600060ff82169050919050565b6000819050919050565b60006148ea6148e56148e0846148ae565b6148c5565b6148b8565b9050919050565b6148fa816148cf565b82525050565b600060208201905061491560008301846148f1565b92915050565b7f417272656e6461746172696f20646520746f6b656e20696e76616c69646f0000600082015250565b6000614951601e83613938565b915061495c8261491b565b602082019050919050565b6000602082019050818103600083015261498081614944565b9050919050565b7f50726f706965746172696f20646520746f6b656e20696e76616c69646f000000600082015250565b60006149bd601d83613938565b91506149c882614987565b602082019050919050565b600060208201905081810360008301526149ec816149b0565b9050919050565b7f4552433732313a207472616e736665722066726f6d20696e636f72726563742060008201527f6f776e6572000000000000000000000000000000000000000000000000000000602082015250565b6000614a4f602583613938565b9150614a5a826149f3565b604082019050919050565b60006020820190508181036000830152614a7e81614a42565b9050919050565b7f4552433732313a207472616e7366657220746f20746865207a65726f2061646460008201527f7265737300000000000000000000000000000000000000000000000000000000602082015250565b6000614ae1602483613938565b9150614aec82614a85565b604082019050919050565b60006020820190508181036000830152614b1081614ad4565b9050919050565b600081519050614b2681613b9a565b92915050565b600060208284031215614b4257614b41613868565b5b6000614b5084828501614b17565b91505092915050565b7f45524331393637557067726164653a206e657720696d706c656d656e7461746960008201527f6f6e206973206e6f742055555053000000000000000000000000000000000000602082015250565b6000614bb5602e83613938565b9150614bc082614b59565b604082019050919050565b60006020820190508181036000830152614be481614ba8565b9050919050565b7f45524331393637557067726164653a20756e737570706f727465642070726f7860008201527f6961626c65555549440000000000000000000000000000000000000000000000602082015250565b6000614c47602983613938565b9150614c5282614beb565b604082019050919050565b60006020820190508181036000830152614c7681614c3a565b9050919050565b7f45524337323155524953746f726167653a2055524920736574206f66206e6f6e60008201527f6578697374656e7420746f6b656e000000000000000000000000000000000000602082015250565b6000614cd9602e83613938565b9150614ce482614c7d565b604082019050919050565b60006020820190508181036000830152614d0881614ccc565b9050919050565b7f496e697469616c697a61626c653a20636f6e7472616374206973206e6f74206960008201527f6e697469616c697a696e67000000000000000000000000000000000000000000602082015250565b6000614d6b602b83613938565b9150614d7682614d0f565b604082019050919050565b60006020820190508181036000830152614d9a81614d5e565b9050919050565b7f4552433732313a20617070726f766520746f2063616c6c657200000000000000600082015250565b6000614dd7601983613938565b9150614de282614da1565b602082019050919050565b60006020820190508181036000830152614e0681614dca565b9050919050565b7f4552433732313a207472616e7366657220746f206e6f6e20455243373231526560008201527f63656976657220696d706c656d656e7465720000000000000000000000000000602082015250565b6000614e69603283613938565b9150614e7482614e0d565b604082019050919050565b60006020820190508181036000830152614e9881614e5c565b9050919050565b600081905092915050565b6000614eb58261392d565b614ebf8185614e9f565b9350614ecf818560208601613949565b80840191505092915050565b6000614ee78285614eaa565b9150614ef38284614eaa565b91508190509392505050565b7f416363657373436f6e74726f6c3a206163636f756e7420000000000000000000600082015250565b6000614f35601783614e9f565b9150614f4082614eff565b601782019050919050565b7f206973206d697373696e6720726f6c6520000000000000000000000000000000600082015250565b6000614f81601183614e9f565b9150614f8c82614f4b565b601182019050919050565b6000614fa282614f28565b9150614fae8285614eaa565b9150614fb982614f74565b9150614fc58284614eaa565b91508190509392505050565b7f455243313936373a206e657720696d706c656d656e746174696f6e206973206e60008201527f6f74206120636f6e747261637400000000000000000000000000000000000000602082015250565b600061502d602d83613938565b915061503882614fd1565b604082019050919050565b6000602082019050818103600083015261505c81615020565b9050919050565b600081519050919050565b600082825260208201905092915050565b600061508a82615063565b615094818561506e565b93506150a4818560208601613949565b6150ad8161397c565b840191505092915050565b60006080820190506150cd6000830187613a7d565b6150da6020830186613a7d565b6150e76040830185613b13565b81810360608301526150f9818461507f565b905095945050505050565b6000815190506151138161389e565b92915050565b60006020828403121561512f5761512e613868565b5b600061513d84828501615104565b91505092915050565b6000615151826139e8565b915061515c836139e8565b9250817fffffffffffffffffffffffffffffffffffffffffffffffffffffffffffffffff048311821515161561519557615194614579565b5b828202905092915050565b60006151ab826139e8565b91506151b6836139e8565b9250827fffffffffffffffffffffffffffffffffffffffffffffffffffffffffffffffff038211156151eb576151ea614579565b5b828201905092915050565b6000615201826139e8565b9150600082141561521557615214614579565b5b600182039050919050565b7f537472696e67733a20686578206c656e67746820696e73756666696369656e74600082015250565b6000615256602083613938565b915061526182615220565b602082019050919050565b6000602082019050818103600083015261528581615249565b9050919050565b7f4552433732313a206d696e7420746f20746865207a65726f2061646472657373600082015250565b60006152c2602083613938565b91506152cd8261528c565b602082019050919050565b600060208201905081810360008301526152f1816152b5565b9050919050565b7f4552433732313a20746f6b656e20616c7265616479206d696e74656400000000600082015250565b600061532e601c83613938565b9150615339826152f8565b602082019050919050565b6000602082019050818103600083015261535d81615321565b9050919050565b7f4e487b7100000000000000000000000000000000000000000000000000000000600052601260045260246000fd5b600081905092915050565b60006153a982615063565b6153b38185615393565b93506153c3818560208601613949565b80840191505092915050565b60006153db828461539e565b915081905092915050565b7f416464726573733a2063616c6c20746f206e6f6e2d636f6e7472616374000000600082015250565b600061541c601d83613938565b9150615427826153e6565b602082019050919050565b6000602082019050818103600083015261544b8161540f565b905091905056fe416464726573733a206c6f772d6c6576656c2064656c65676174652063616c6c206661696c6564a264697066735822122057fe5cd0a2207c2eeb12114a65f2f097ab0deaafa65ce05a3967feb91ad1c50764736f6c63430008090033",
  "linkReferences": {},
  "deployedLinkReferences": {}
}